{
  "_format": "hh-sol-artifact-1",
  "contractName": "LendingPoolAddressesProviderMock",
  "sourceName": "contracts/test/aaveV2/AaveV2LendingPoolAddressProvider.sol",
  "abi": [
    {
      "anonymous": false,
      "inputs": [
        {
          "indexed": true,
          "internalType": "address",
          "name": "previousOwner",
          "type": "address"
        },
        {
          "indexed": true,
          "internalType": "address",
          "name": "newOwner",
          "type": "address"
        }
      ],
      "name": "OwnershipTransferred",
      "type": "event"
    },
    {
      "inputs": [],
      "name": "getLendingPool",
      "outputs": [
        {
          "internalType": "address",
          "name": "",
          "type": "address"
        }
      ],
      "stateMutability": "view",
      "type": "function"
    },
    {
      "inputs": [],
      "name": "owner",
      "outputs": [
        {
          "internalType": "address",
          "name": "",
          "type": "address"
        }
      ],
      "stateMutability": "view",
      "type": "function"
    },
    {
      "inputs": [],
      "name": "renounceOwnership",
      "outputs": [],
      "stateMutability": "nonpayable",
      "type": "function"
    },
    {
      "inputs": [
        {
          "internalType": "address",
          "name": "pool",
          "type": "address"
        }
      ],
      "name": "setLendingPoolImpl",
      "outputs": [],
      "stateMutability": "nonpayable",
      "type": "function"
    },
    {
      "inputs": [
        {
          "internalType": "address",
          "name": "newOwner",
          "type": "address"
        }
      ],
      "name": "transferOwnership",
      "outputs": [],
      "stateMutability": "nonpayable",
      "type": "function"
    }
  ],
  "bytecode": "0x608060405234801561001057600080fd5b5061002d61002261003260201b60201c565b61003a60201b60201c565b6100fe565b600033905090565b60008060009054906101000a900473ffffffffffffffffffffffffffffffffffffffff169050816000806101000a81548173ffffffffffffffffffffffffffffffffffffffff021916908373ffffffffffffffffffffffffffffffffffffffff1602179055508173ffffffffffffffffffffffffffffffffffffffff168173ffffffffffffffffffffffffffffffffffffffff167f8be0079c531659141344cd1fd0a4f28419497f9722a3daafe3b4186f6b6457e060405160405180910390a35050565b6106918061010d6000396000f3fe608060405234801561001057600080fd5b50600436106100575760003560e01c80630261bf8b1461005c5780635aef021f1461007a578063715018a6146100965780638da5cb5b146100a0578063f2fde38b146100be575b600080fd5b6100646100da565b604051610071919061052e565b60405180910390f35b610094600480360381019061008f91906104b0565b610135565b005b61009e610226565b005b6100a86102ae565b6040516100b5919061052e565b60405180910390f35b6100d860048036038101906100d391906104b0565b6102d7565b005b6000600260007f4c454e44494e475f504f4f4c0000000000000000000000000000000000000000815260200190815260200160002060009054906101000a900473ffffffffffffffffffffffffffffffffffffffff16905090565b61013d6103cf565b73ffffffffffffffffffffffffffffffffffffffff1661015b6102ae565b73ffffffffffffffffffffffffffffffffffffffff16146101b1576040517f08c379a00000000000000000000000000000000000000000000000000000000081526004016101a890610569565b60405180910390fd5b80600260007f4c454e44494e475f504f4f4c0000000000000000000000000000000000000000815260200190815260200160002060006101000a81548173ffffffffffffffffffffffffffffffffffffffff021916908373ffffffffffffffffffffffffffffffffffffffff16021790555050565b61022e6103cf565b73ffffffffffffffffffffffffffffffffffffffff1661024c6102ae565b73ffffffffffffffffffffffffffffffffffffffff16146102a2576040517f08c379a000000000000000000000000000000000000000000000000000000000815260040161029990610569565b60405180910390fd5b6102ac60006103d7565b565b60008060009054906101000a900473ffffffffffffffffffffffffffffffffffffffff16905090565b6102df6103cf565b73ffffffffffffffffffffffffffffffffffffffff166102fd6102ae565b73ffffffffffffffffffffffffffffffffffffffff1614610353576040517f08c379a000000000000000000000000000000000000000000000000000000000815260040161034a90610569565b60405180910390fd5b600073ffffffffffffffffffffffffffffffffffffffff168173ffffffffffffffffffffffffffffffffffffffff1614156103c3576040517f08c379a00000000000000000000000000000000000000000000000000000000081526004016103ba90610549565b60405180910390fd5b6103cc816103d7565b50565b600033905090565b60008060009054906101000a900473ffffffffffffffffffffffffffffffffffffffff169050816000806101000a81548173ffffffffffffffffffffffffffffffffffffffff021916908373ffffffffffffffffffffffffffffffffffffffff1602179055508173ffffffffffffffffffffffffffffffffffffffff168173ffffffffffffffffffffffffffffffffffffffff167f8be0079c531659141344cd1fd0a4f28419497f9722a3daafe3b4186f6b6457e060405160405180910390a35050565b6000813590506104aa81610644565b92915050565b6000602082840312156104c257600080fd5b60006104d08482850161049b565b91505092915050565b6104e28161059a565b82525050565b60006104f5602683610589565b9150610500826105cc565b604082019050919050565b6000610518602083610589565b91506105238261061b565b602082019050919050565b600060208201905061054360008301846104d9565b92915050565b60006020820190508181036000830152610562816104e8565b9050919050565b600060208201905081810360008301526105828161050b565b9050919050565b600082825260208201905092915050565b60006105a5826105ac565b9050919050565b600073ffffffffffffffffffffffffffffffffffffffff82169050919050565b7f4f776e61626c653a206e6577206f776e657220697320746865207a65726f206160008201527f6464726573730000000000000000000000000000000000000000000000000000602082015250565b7f4f776e61626c653a2063616c6c6572206973206e6f7420746865206f776e6572600082015250565b61064d8161059a565b811461065857600080fd5b5056fea2646970667358221220e8207911cc10ae3f9df5e367181babd109f1f8f61f51239339d46a50343d77c764736f6c63430008030033",
  "linkReferences": {},
  "deployedLinkReferences": {}
}