{
  "_format": "hh-sol-artifact-1",
  "contractName": "ERC165Checker",
  "sourceName": "contracts/v_0_5_7/ERC165/ERC165Checker.sol",
  "abi": [
    {
      "constant": true,
      "inputs": [],
      "name": "_INTERFACE_ID_ERC165",
      "outputs": [
        {
          "name": "",
          "type": "bytes4"
        }
      ],
      "payable": false,
      "stateMutability": "view",
      "type": "function"
    },
    {
      "constant": true,
      "inputs": [],
      "name": "_INTERFACE_ID_INVALID",
      "outputs": [
        {
          "name": "",
          "type": "bytes4"
        }
      ],
      "payable": false,
      "stateMutability": "view",
      "type": "function"
    },
    {
      "constant": true,
      "inputs": [
        {
          "name": "wallet",
          "type": "address"
        },
        {
          "name": "interfaces",
          "type": "bytes4[]"
        }
      ],
      "name": "checkInterfaces",
      "outputs": [
        {
          "name": "",
          "type": "bool"
        }
      ],
      "payable": false,
      "stateMutability": "view",
      "type": "function"
    },
    {
      "constant": true,
      "inputs": [
        {
          "name": "_contract",
          "type": "address"
        },
        {
          "name": "_interfaceId",
          "type": "bytes4"
        }
      ],
      "name": "doesContractImplementInterface",
      "outputs": [
        {
          "name": "",
          "type": "bool"
        }
      ],
      "payable": false,
      "stateMutability": "view",
      "type": "function"
    }
  ],
  "bytecode": "0x608060405234801561001057600080fd5b5061048f806100206000396000f3fe608060405234801561001057600080fd5b506004361061004c5760003560e01c806359931a4814610051578063c8acad6f146100ad578063e92aea7c14610109578063e9c54384146101ba575b600080fd5b61005961023f565b60405180827bffffffffffffffffffffffffffffffffffffffffffffffffffffffff19167bffffffffffffffffffffffffffffffffffffffffffffffffffffffff1916815260200191505060405180910390f35b6100b561024a565b60405180827bffffffffffffffffffffffffffffffffffffffffffffffffffffffff19167bffffffffffffffffffffffffffffffffffffffffffffffffffffffff1916815260200191505060405180910390f35b6101a06004803603604081101561011f57600080fd5b81019080803573ffffffffffffffffffffffffffffffffffffffff1690602001909291908035906020019064010000000081111561015c57600080fd5b82018360208201111561016e57600080fd5b8035906020019184602083028401116401000000008311171561019057600080fd5b9091929391929390505050610255565b604051808215151515815260200191505060405180910390f35b610225600480360360408110156101d057600080fd5b81019080803573ffffffffffffffffffffffffffffffffffffffff16906020019092919080357bffffffffffffffffffffffffffffffffffffffffffffffffffffffff191690602001909291905050506102cb565b604051808215151515815260200191505060405180910390f35b6301ffc9a760e01b81565b63ffffffff60e01b81565b600080600090505b838390508110156102be576102a38585858481811061027857fe5b905060200201357bffffffffffffffffffffffffffffffffffffffffffffffffffffffff19166102cb565b6102b15760009150506102c4565b808060010191505061025d565b50600190505b9392505050565b60008060006102e1856301ffc9a760e01b610380565b809250819350505060008214806102f85750600081145b156103085760009250505061037a565b6103198563ffffffff60e01b610380565b80925081935050506000821480610331575060008114155b156103415760009250505061037a565b61034b8585610380565b80925081935050506001821480156103635750600181145b156103735760019250505061037a565b6000925050505b92915050565b60008060606301ffc9a760e01b8460405160240180827bffffffffffffffffffffffffffffffffffffffffffffffffffffffff19167bffffffffffffffffffffffffffffffffffffffffffffffffffffffff19168152602001915050604051602081830303815290604052907bffffffffffffffffffffffffffffffffffffffffffffffffffffffff19166020820180517bffffffffffffffffffffffffffffffffffffffffffffffffffffffff838183161783525050505090508060200181516040516000815260208183858b617530fa95508051945050505050925092905056fea165627a7a7230582064dc749f59f93d8a4991ce898bf8a802ecedf2084459f51c50cde5ff8cfaa3af0029",
  "linkReferences": {},
  "deployedLinkReferences": {}
}