{
  "_format": "hh-sol-artifact-1",
  "contractName": "ZefiMultiSigWallet",
  "sourceName": "contracts/v_0_5_7/ZefiMultiSigWallet.sol",
  "abi": [
    {
      "constant": false,
      "inputs": [
        {
          "name": "_owner",
          "type": "address"
        }
      ],
      "name": "removeOwner",
      "outputs": [],
      "payable": false,
      "stateMutability": "nonpayable",
      "type": "function"
    },
    {
      "constant": true,
      "inputs": [
        {
          "name": "",
          "type": "address"
        }
      ],
      "name": "isOwner",
      "outputs": [
        {
          "name": "",
          "type": "bool"
        }
      ],
      "payable": false,
      "stateMutability": "view",
      "type": "function"
    },
    {
      "constant": true,
      "inputs": [],
      "name": "threshold",
      "outputs": [
        {
          "name": "",
          "type": "uint256"
        }
      ],
      "payable": false,
      "stateMutability": "view",
      "type": "function"
    },
    {
      "constant": false,
      "inputs": [
        {
          "name": "_newThreshold",
          "type": "uint256"
        }
      ],
      "name": "changeThreshold",
      "outputs": [],
      "payable": false,
      "stateMutability": "nonpayable",
      "type": "function"
    },
    {
      "constant": false,
      "inputs": [
        {
          "name": "_owner",
          "type": "address"
        }
      ],
      "name": "addOwner",
      "outputs": [],
      "payable": false,
      "stateMutability": "nonpayable",
      "type": "function"
    },
    {
      "constant": true,
      "inputs": [],
      "name": "nonce",
      "outputs": [
        {
          "name": "",
          "type": "uint256"
        }
      ],
      "payable": false,
      "stateMutability": "view",
      "type": "function"
    },
    {
      "constant": true,
      "inputs": [],
      "name": "ownersCount",
      "outputs": [
        {
          "name": "",
          "type": "uint256"
        }
      ],
      "payable": false,
      "stateMutability": "view",
      "type": "function"
    },
    {
      "constant": true,
      "inputs": [],
      "name": "MAX_OWNER_COUNT",
      "outputs": [
        {
          "name": "",
          "type": "uint256"
        }
      ],
      "payable": false,
      "stateMutability": "view",
      "type": "function"
    },
    {
      "constant": false,
      "inputs": [
        {
          "name": "_to",
          "type": "address"
        },
        {
          "name": "_value",
          "type": "uint256"
        },
        {
          "name": "_data",
          "type": "bytes"
        },
        {
          "name": "_signatures",
          "type": "bytes"
        }
      ],
      "name": "execute",
      "outputs": [],
      "payable": false,
      "stateMutability": "nonpayable",
      "type": "function"
    },
    {
      "inputs": [
        {
          "name": "_threshold",
          "type": "uint256"
        },
        {
          "name": "_owners",
          "type": "address[]"
        }
      ],
      "payable": false,
      "stateMutability": "nonpayable",
      "type": "constructor"
    },
    {
      "payable": true,
      "stateMutability": "payable",
      "type": "fallback"
    },
    {
      "anonymous": false,
      "inputs": [
        {
          "indexed": true,
          "name": "owner",
          "type": "address"
        }
      ],
      "name": "OwnerAdded",
      "type": "event"
    },
    {
      "anonymous": false,
      "inputs": [
        {
          "indexed": true,
          "name": "owner",
          "type": "address"
        }
      ],
      "name": "OwnerRemoved",
      "type": "event"
    },
    {
      "anonymous": false,
      "inputs": [
        {
          "indexed": true,
          "name": "newThreshold",
          "type": "uint256"
        }
      ],
      "name": "ThresholdChanged",
      "type": "event"
    },
    {
      "anonymous": false,
      "inputs": [
        {
          "indexed": true,
          "name": "destination",
          "type": "address"
        },
        {
          "indexed": true,
          "name": "value",
          "type": "uint256"
        },
        {
          "indexed": false,
          "name": "data",
          "type": "bytes"
        }
      ],
      "name": "Executed",
      "type": "event"
    },
    {
      "anonymous": false,
      "inputs": [
        {
          "indexed": true,
          "name": "value",
          "type": "uint256"
        },
        {
          "indexed": true,
          "name": "from",
          "type": "address"
        }
      ],
      "name": "Received",
      "type": "event"
    }
  ],
  "bytecode": "0x60806040523480156200001157600080fd5b506040516200150938038062001509833981018060405260408110156200003757600080fd5b810190808051906020019092919080516401000000008111156200005a57600080fd5b828101905060208101848111156200007157600080fd5b81518560208202830111640100000000821117156200008f57600080fd5b505092919050505060008151118015620000ab5750600a815111155b62000102576040517f08c379a0000000000000000000000000000000000000000000000000000000008152600401808060200182810382526022815260200180620014e76022913960400191505060405180910390fd5b60008211801562000114575080518211155b62000187576040517f08c379a00000000000000000000000000000000000000000000000000000000081526004018080602001828103825260168152602001807f4d53573a20496e76616c6964207468726573686f6c640000000000000000000081525060200191505060405180910390fd5b80516002819055508160018190555060008090505b81518110156200027757600160036000848481518110620001b957fe5b602002602001015173ffffffffffffffffffffffffffffffffffffffff1673ffffffffffffffffffffffffffffffffffffffff16815260200190815260200160002060006101000a81548160ff0219169083151502179055508181815181106200021f57fe5b602002602001015173ffffffffffffffffffffffffffffffffffffffff167f994a936646fe87ffe4f1e469d3d6aa417d6b855598397f323de5b449f765f0c360405160405180910390a280806001019150506200019c565b50817f6c4ce60fd690e1216286a10b875c5662555f10774484e58142cedd7a90781baa60405160405180910390a2505061123080620002b76000396000f3fe6080604052600436106100865760003560e01c80637065cb48116100595780637065cb48146101ec578063affed0e01461023d578063b948854614610268578063d74f8edd14610293578063da0980c7146102be57610086565b8063173825d9146100cc5780632f54bf6e1461011d57806342cde4e814610186578063694e80c3146101b1575b3373ffffffffffffffffffffffffffffffffffffffff16347f8863e458255c600ae3e61be347822f3ee57088c8538b68b5dd2357e682e59e1960405160405180910390a3005b3480156100d857600080fd5b5061011b600480360360208110156100ef57600080fd5b81019080803573ffffffffffffffffffffffffffffffffffffffff169060200190929190505050610447565b005b34801561012957600080fd5b5061016c6004803603602081101561014057600080fd5b81019080803573ffffffffffffffffffffffffffffffffffffffff1690602001909291905050506106b0565b604051808215151515815260200191505060405180910390f35b34801561019257600080fd5b5061019b6106d0565b6040518082815260200191505060405180910390f35b3480156101bd57600080fd5b506101ea600480360360208110156101d457600080fd5b81019080803590602001909291905050506106d6565b005b3480156101f857600080fd5b5061023b6004803603602081101561020f57600080fd5b81019080803573ffffffffffffffffffffffffffffffffffffffff169060200190929190505050610815565b005b34801561024957600080fd5b50610252610a86565b6040518082815260200191505060405180910390f35b34801561027457600080fd5b5061027d610a8c565b6040518082815260200191505060405180910390f35b34801561029f57600080fd5b506102a8610a92565b6040518082815260200191505060405180910390f35b3480156102ca57600080fd5b50610445600480360360808110156102e157600080fd5b81019080803573ffffffffffffffffffffffffffffffffffffffff169060200190929190803590602001909291908035906020019064010000000081111561032857600080fd5b82018360208201111561033a57600080fd5b8035906020019184600183028401116401000000008311171561035c57600080fd5b91908080601f016020809104026020016040519081016040528093929190818152602001838380828437600081840152601f19601f820116905080830192505050505050509192919290803590602001906401000000008111156103bf57600080fd5b8201836020820111156103d157600080fd5b803590602001918460018302840111640100000000831117156103f357600080fd5b91908080601f016020809104026020016040519081016040528093929190818152602001838380828437600081840152601f19601f820116905080830192505050505050509192919290505050610a97565b005b3073ffffffffffffffffffffffffffffffffffffffff163373ffffffffffffffffffffffffffffffffffffffff16146104cb576040517f08c379a00000000000000000000000000000000000000000000000000000000081526004018080602001828103825260228152602001806111e36022913960400191505060405180910390fd5b60015460025411610544576040517f08c379a00000000000000000000000000000000000000000000000000000000081526004018080602001828103825260188152602001807f4d53573a20546f6f20666577206f776e657273206c656674000000000000000081525060200191505060405180910390fd5b60011515600360008373ffffffffffffffffffffffffffffffffffffffff1673ffffffffffffffffffffffffffffffffffffffff16815260200190815260200160002060009054906101000a900460ff1615151461060a576040517f08c379a00000000000000000000000000000000000000000000000000000000081526004018080602001828103825260118152602001807f4d53573a204e6f7420616e206f776e657200000000000000000000000000000081525060200191505060405180910390fd5b6001600260008282540392505081905550600360008273ffffffffffffffffffffffffffffffffffffffff1673ffffffffffffffffffffffffffffffffffffffff16815260200190815260200160002060006101000a81549060ff02191690558073ffffffffffffffffffffffffffffffffffffffff167f58619076adf5bb0943d100ef88d52d7c3fd691b19d3a9071b555b651fbf418da60405160405180910390a250565b60036020528060005260406000206000915054906101000a900460ff1681565b60015481565b3073ffffffffffffffffffffffffffffffffffffffff163373ffffffffffffffffffffffffffffffffffffffff161461075a576040517f08c379a00000000000000000000000000000000000000000000000000000000081526004018080602001828103825260228152602001806111e36022913960400191505060405180910390fd5b60008111801561076c57506002548111155b6107de576040517f08c379a000000000000000000000000000000000000000000000000000000000815260040180806020018281038252601a8152602001807f4d53573a20496e76616c6964206e6577207468726573686f6c6400000000000081525060200191505060405180910390fd5b80600181905550807f6c4ce60fd690e1216286a10b875c5662555f10774484e58142cedd7a90781baa60405160405180910390a250565b3073ffffffffffffffffffffffffffffffffffffffff163373ffffffffffffffffffffffffffffffffffffffff1614610899576040517f08c379a00000000000000000000000000000000000000000000000000000000081526004018080602001828103825260228152602001806111e36022913960400191505060405180910390fd5b600a60025410610911576040517f08c379a000000000000000000000000000000000000000000000000000000000815260040180806020018281038252601c8152602001807f4d53573a204d41585f4f574e45525f434f554e5420726561636865640000000081525060200191505060405180910390fd5b60001515600360008373ffffffffffffffffffffffffffffffffffffffff1673ffffffffffffffffffffffffffffffffffffffff16815260200190815260200160002060009054906101000a900460ff161515146109d7576040517f08c379a00000000000000000000000000000000000000000000000000000000081526004018080602001828103825260128152602001807f4d53573a20416c7265616479206f776e6572000000000000000000000000000081525060200191505060405180910390fd5b60016002600082825401925050819055506001600360008373ffffffffffffffffffffffffffffffffffffffff1673ffffffffffffffffffffffffffffffffffffffff16815260200190815260200160002060006101000a81548160ff0219169083151502179055508073ffffffffffffffffffffffffffffffffffffffff167f994a936646fe87ffe4f1e469d3d6aa417d6b855598397f323de5b449f765f0c360405160405180910390a250565b60005481565b60025481565b600a81565b6000806000806041855181610aa857fe5b049050600154811015610b23576040517f08c379a000000000000000000000000000000000000000000000000000000000815260040180806020018281038252601a8152602001807f4d53573a204e6f7420656e6f756768207369676e61747572657300000000000081525060200191505060405180910390fd5b6000601960f81b600060f81b308b8b8b60005460405160200180887effffffffffffffffffffffffffffffffffffffffffffffffffffffffffffff19167effffffffffffffffffffffffffffffffffffffffffffffffffffffffffffff19168152600101877effffffffffffffffffffffffffffffffffffffffffffffffffffffffffffff19167effffffffffffffffffffffffffffffffffffffffffffffffffffffffffffff191681526001018673ffffffffffffffffffffffffffffffffffffffff1673ffffffffffffffffffffffffffffffffffffffff1660601b81526014018573ffffffffffffffffffffffffffffffffffffffff1673ffffffffffffffffffffffffffffffffffffffff1660601b815260140184815260200183805190602001908083835b60208310610c705780518252602082019150602081019050602083039250610c4d565b6001836020036101000a038019825116818451168082178552505050505050905001828152602001975050505050505050604051602081830303815290604052805190602001209050600160008082825401925050819055506000809050600080905060008090505b848110156110b357610ceb8982611128565b809850819950829a50505050600060018560405160200180807f19457468657265756d205369676e6564204d6573736167653a0a333200000000815250601c01828152602001915050604051602081830303815290604052805190602001208a8a8a60405160008152602001604052604051808581526020018460ff1660ff1681526020018381526020018281526020019450505050506020604051602081039080840390855afa158015610da4573d6000803e3d6000fd5b5050506020604051035190508273ffffffffffffffffffffffffffffffffffffffff168173ffffffffffffffffffffffffffffffffffffffff1611610e51576040517f08c379a000000000000000000000000000000000000000000000000000000000815260040180806020018281038252601d8152602001807f4d53573a204261646c79206f726465726564207369676e61747572657300000081525060200191505060405180910390fd5b809250600360008273ffffffffffffffffffffffffffffffffffffffff1673ffffffffffffffffffffffffffffffffffffffff16815260200190815260200160002060009054906101000a900460ff16156110a55760018401935060015484106110a45760008d73ffffffffffffffffffffffffffffffffffffffff168d8d6040518082805190602001908083835b60208310610f035780518252602082019150602081019050602083039250610ee0565b6001836020036101000a03801982511681845116808217855250505050505090500191505060006040518083038185875af1925050503d8060008114610f65576040519150601f19603f3d011682016040523d82523d6000602084013e610f6a565b606091505b5050905080610fe1576040517f08c379a00000000000000000000000000000000000000000000000000000000081526004018080602001828103825260198152602001807f4d53573a2045787465726e616c2063616c6c206661696c65640000000000000081525060200191505060405180910390fd5b8c8e73ffffffffffffffffffffffffffffffffffffffff167fcaf938de11c367272220bfd1d2baa99ca46665e7bc4d85f00adb51b90fe1fa9f8e6040518080602001828103825283818151815260200191508051906020019080838360005b8381101561105b578082015181840152602081019050611040565b50505050905090810190601f1680156110885780820380516001836020036101000a031916815260200191505b509250505060405180910390a350505050505050505050611122565b5b508080600101915050610cd9565b506040517f08c379a00000000000000000000000000000000000000000000000000000000081526004018080602001828103825260208152602001807f4d53573a204e6f7420656e6f7567682076616c6964207369676e61747572657381525060200191505060405180910390fd5b50505050565b600080600083604102602001850151915083604102604001850151905060ff84604102604101860151169250601b8360ff1614806111695750601c8360ff16145b6111db576040517f08c379a000000000000000000000000000000000000000000000000000000000815260040180806020018281038252600e8152602001807f4d53573a20496e76616c6964207600000000000000000000000000000000000081525060200191505060405180910390fd5b925092509256fe4d53573a2043616c6c696e67206163636f756e74206973206e6f742077616c6c6574a165627a7a72305820ee72a00bd0fdc70a52e340021a76272332154e17026565aba8c4cc462775dfd600294d53573a204e6f7420656e6f756768206f7220746f6f206d616e79206f776e657273",
  "linkReferences": {},
  "deployedLinkReferences": {}
}