{
  "_format": "hh-sol-artifact-1",
  "contractName": "InvestmentContractV1",
  "sourceName": "contracts/v_0_5_7/Investment/InvestmentContractV1.sol",
  "abi": [
    {
      "constant": true,
      "inputs": [
        {
          "name": "",
          "type": "uint256"
        }
      ],
      "name": "targets",
      "outputs": [
        {
          "name": "token",
          "type": "address"
        },
        {
          "name": "cToken",
          "type": "address"
        },
        {
          "name": "totalTokenInvested",
          "type": "uint256"
        }
      ],
      "payable": false,
      "stateMutability": "view",
      "type": "function"
    },
    {
      "constant": true,
      "inputs": [
        {
          "name": "",
          "type": "address"
        },
        {
          "name": "",
          "type": "address"
        }
      ],
      "name": "tokenInvested",
      "outputs": [
        {
          "name": "",
          "type": "uint256"
        }
      ],
      "payable": false,
      "stateMutability": "view",
      "type": "function"
    },
    {
      "constant": true,
      "inputs": [],
      "name": "zefiWallet",
      "outputs": [
        {
          "name": "",
          "type": "address"
        }
      ],
      "payable": false,
      "stateMutability": "view",
      "type": "function"
    },
    {
      "constant": true,
      "inputs": [
        {
          "name": "owner",
          "type": "address"
        }
      ],
      "name": "balanceOf",
      "outputs": [
        {
          "name": "",
          "type": "uint256[]"
        }
      ],
      "payable": false,
      "stateMutability": "view",
      "type": "function"
    },
    {
      "constant": false,
      "inputs": [],
      "name": "withdrawAll",
      "outputs": [],
      "payable": false,
      "stateMutability": "nonpayable",
      "type": "function"
    },
    {
      "constant": true,
      "inputs": [
        {
          "name": "token",
          "type": "address"
        },
        {
          "name": "amount",
          "type": "uint256"
        }
      ],
      "name": "calculateFee",
      "outputs": [
        {
          "name": "",
          "type": "uint256"
        }
      ],
      "payable": false,
      "stateMutability": "view",
      "type": "function"
    },
    {
      "constant": false,
      "inputs": [],
      "name": "depositAll",
      "outputs": [],
      "payable": false,
      "stateMutability": "nonpayable",
      "type": "function"
    },
    {
      "constant": true,
      "inputs": [],
      "name": "getTokenAddresses",
      "outputs": [
        {
          "name": "",
          "type": "address[]"
        }
      ],
      "payable": false,
      "stateMutability": "view",
      "type": "function"
    },
    {
      "inputs": [
        {
          "name": "_tokens",
          "type": "address[]"
        },
        {
          "name": "_cTokens",
          "type": "address[]"
        },
        {
          "name": "_zefiWallet",
          "type": "address"
        }
      ],
      "payable": false,
      "stateMutability": "nonpayable",
      "type": "constructor"
    },
    {
      "anonymous": false,
      "inputs": [
        {
          "indexed": true,
          "name": "sender",
          "type": "address"
        },
        {
          "indexed": true,
          "name": "success",
          "type": "bool"
        }
      ],
      "name": "TokenTransactionExecuted",
      "type": "event"
    },
    {
      "anonymous": false,
      "inputs": [
        {
          "indexed": true,
          "name": "sender",
          "type": "address"
        },
        {
          "indexed": true,
          "name": "success",
          "type": "bool"
        }
      ],
      "name": "TokenApprovalExecuted",
      "type": "event"
    }
  ],
  "bytecode": "0x60806040523480156200001157600080fd5b506040516200201b3803806200201b8339810180604052620000379190810190620003cf565b81518351146200007e576040517f08c379a0000000000000000000000000000000000000000000000000000000008152600401620000759062000523565b60405180910390fd5b60008090505b8351811015620002e257600073ffffffffffffffffffffffffffffffffffffffff16848281518110620000b357fe5b602002602001015173ffffffffffffffffffffffffffffffffffffffff16141562000115576040517f08c379a00000000000000000000000000000000000000000000000000000000081526004016200010c9062000501565b60405180910390fd5b600073ffffffffffffffffffffffffffffffffffffffff168382815181106200013a57fe5b602002602001015173ffffffffffffffffffffffffffffffffffffffff1614156200019c576040517f08c379a0000000000000000000000000000000000000000000000000000000008152600401620001939062000501565b60405180910390fd5b60026040518060600160405280868481518110620001b657fe5b602002602001015173ffffffffffffffffffffffffffffffffffffffff168152602001858481518110620001e657fe5b602002602001015173ffffffffffffffffffffffffffffffffffffffff16815260200160008152509080600181540180825580915050906001820390600052602060002090600302016000909192909190915060008201518160000160006101000a81548173ffffffffffffffffffffffffffffffffffffffff021916908373ffffffffffffffffffffffffffffffffffffffff16021790555060208201518160010160006101000a81548173ffffffffffffffffffffffffffffffffffffffff021916908373ffffffffffffffffffffffffffffffffffffffff16021790555060408201518160020155505050808060010191505062000084565b50806000806101000a81548173ffffffffffffffffffffffffffffffffffffffff021916908373ffffffffffffffffffffffffffffffffffffffff160217905550505050620005e1565b60006200033a8251620005ad565b905092915050565b600082601f8301126200035457600080fd5b81516200036b620003658262000573565b62000545565b915081818352602084019350602081019050838560208402820111156200039157600080fd5b60005b83811015620003c55781620003aa88826200032c565b84526020840193506020830192505060018101905062000394565b5050505092915050565b600080600060608486031215620003e557600080fd5b600084015167ffffffffffffffff8111156200040057600080fd5b6200040e8682870162000342565b935050602084015167ffffffffffffffff8111156200042c57600080fd5b6200043a8682870162000342565b92505060406200044d868287016200032c565b9150509250925092565b6000620004666017836200059c565b91507f457363726f773a20496e76616c696420416464726573730000000000000000006000830152602082019050919050565b6000620004a86028836200059c565b91507f746f6b656e7320616e642063546f6b656e73206d75737420686176652073616d60008301527f65206c656e6774680000000000000000000000000000000000000000000000006020830152604082019050919050565b600060208201905081810360008301526200051c8162000457565b9050919050565b600060208201905081810360008301526200053e8162000499565b9050919050565b6000604051905081810181811067ffffffffffffffff821117156200056957600080fd5b8060405250919050565b600067ffffffffffffffff8211156200058b57600080fd5b602082029050602081019050919050565b600082825260208201905092915050565b6000620005ba82620005c1565b9050919050565b600073ffffffffffffffffffffffffffffffffffffffff82169050919050565b611a2a80620005f16000396000f3fe608060405234801561001057600080fd5b50600436106100885760003560e01c8063853828b61161005b578063853828b61461013d5780638b28ab1e14610147578063de5f626814610177578063ee8c24b81461018157610088565b80630a39ce021461008d5780631740a3dd146100bf5780636214f0cc146100ef57806370a082311461010d575b600080fd5b6100a760048036036100a291908101906113d7565b61019f565b6040516100b69392919061179f565b60405180910390f35b6100d960048036036100d49190810190611336565b610216565b6040516100e69190611856565b60405180910390f35b6100f761023b565b604051610104919061169c565b60405180910390f35b6101276004803603610122919081019061130d565b610260565b604051610134919061177d565b60405180910390f35b610145610300565b005b610161600480360361015c9190810190611372565b610346565b60405161016e9190611856565b60405180910390f35b61017f61040c565b005b610189610452565b604051610196919061175b565b60405180910390f35b600281815481106101ac57fe5b90600052602060002090600302016000915090508060000160009054906101000a900473ffffffffffffffffffffffffffffffffffffffff16908060010160009054906101000a900473ffffffffffffffffffffffffffffffffffffffff16908060020154905083565b6001602052816000526040600020602052806000526040600020600091509150505481565b6000809054906101000a900473ffffffffffffffffffffffffffffffffffffffff1681565b6060806002805490506040519080825280602002602001820160405280156102975781602001602082028038833980820191505090505b50905060008090505b6002805490508110156102f6576102d1600282815481106102bd57fe5b906000526020600020906003020185610539565b8282815181106102dd57fe5b60200260200101818152505080806001019150506102a0565b5080915050919050565b60008090505b600280549050811015610343576103366002828154811061032357fe5b90600052602060002090600302016106ea565b8080600101915050610306565b50565b6000806103d8600160008673ffffffffffffffffffffffffffffffffffffffff1673ffffffffffffffffffffffffffffffffffffffff16815260200190815260200160002060003373ffffffffffffffffffffffffffffffffffffffff1673ffffffffffffffffffffffffffffffffffffffff1681526020019081526020016000205484610c5690919063ffffffff16565b90506104036127106103f56103e884610cac90919063ffffffff16565b610d1c90919063ffffffff16565b91505092915050565b60008090505b60028054905081101561044f576104426002828154811061042f57fe5b9060005260206000209060030201610d78565b8080600101915050610412565b50565b6060806002805490506040519080825280602002602001820160405280156104895781602001602082028038833980820191505090505b50905060008090505b60028054905081101561053157600281815481106104ac57fe5b906000526020600020906003020160000160009054906101000a900473ffffffffffffffffffffffffffffffffffffffff168282815181106104ea57fe5b602002602001019073ffffffffffffffffffffffffffffffffffffffff16908173ffffffffffffffffffffffffffffffffffffffff16815250508080600101915050610492565b508091505090565b6000808360010160009054906101000a900473ffffffffffffffffffffffffffffffffffffffff1673ffffffffffffffffffffffffffffffffffffffff16633af9e669306040518263ffffffff1660e01b8152600401610599919061169c565b60206040518083038186803b1580156105b157600080fd5b505afa1580156105c5573d6000803e3d6000fd5b505050506040513d601f19601f820116820180604052506105e99190810190611400565b905060008460000160009054906101000a900473ffffffffffffffffffffffffffffffffffffffff16905060006106bb86600201546106ad600160008673ffffffffffffffffffffffffffffffffffffffff1673ffffffffffffffffffffffffffffffffffffffff16815260200190815260200160002060008973ffffffffffffffffffffffffffffffffffffffff1673ffffffffffffffffffffffffffffffffffffffff1681526020019081526020016000205486610cac90919063ffffffff16565b610d1c90919063ffffffff16565b905060006106c98383610346565b90506106de8183610c5690919063ffffffff16565b94505050505092915050565b60008160000160009054906101000a900473ffffffffffffffffffffffffffffffffffffffff16905060008260010160009054906101000a900473ffffffffffffffffffffffffffffffffffffffff1673ffffffffffffffffffffffffffffffffffffffff16633af9e669306040518263ffffffff1660e01b8152600401610772919061169c565b60206040518083038186803b15801561078a57600080fd5b505afa15801561079e573d6000803e3d6000fd5b505050506040513d601f19601f820116820180604052506107c29190810190611400565b9050600061086b846002015461085d600160008773ffffffffffffffffffffffffffffffffffffffff1673ffffffffffffffffffffffffffffffffffffffff16815260200190815260200160002060003373ffffffffffffffffffffffffffffffffffffffff1673ffffffffffffffffffffffffffffffffffffffff1681526020019081526020016000205485610cac90919063ffffffff16565b610d1c90919063ffffffff16565b90508360010160009054906101000a900473ffffffffffffffffffffffffffffffffffffffff1673ffffffffffffffffffffffffffffffffffffffff1663852a12e3826040518263ffffffff1660e01b81526004016108ca9190611856565b600060405180830381600087803b1580156108e457600080fd5b505af11580156108f8573d6000803e3d6000fd5b5050505060006109088483610346565b905060008560000160009054906101000a900473ffffffffffffffffffffffffffffffffffffffff1673ffffffffffffffffffffffffffffffffffffffff1663a9059cbb6000809054906101000a900473ffffffffffffffffffffffffffffffffffffffff16846040518363ffffffff1660e01b815260040161098c929190611732565b602060405180830381600087803b1580156109a657600080fd5b505af11580156109ba573d6000803e3d6000fd5b505050506040513d601f19601f820116820180604052506109de91908101906113ae565b90508015153373ffffffffffffffffffffffffffffffffffffffff167f9227bd86dcc89e4ce31e154fcd8b97abd1d48bbb1cac56024b9850581aa40adf60405160405180910390a3610ab9600160008773ffffffffffffffffffffffffffffffffffffffff1673ffffffffffffffffffffffffffffffffffffffff16815260200190815260200160002060003373ffffffffffffffffffffffffffffffffffffffff1673ffffffffffffffffffffffffffffffffffffffff168152602001908152602001600020548760020154610c5690919063ffffffff16565b86600201819055506000600160008773ffffffffffffffffffffffffffffffffffffffff1673ffffffffffffffffffffffffffffffffffffffff16815260200190815260200160002060003373ffffffffffffffffffffffffffffffffffffffff1673ffffffffffffffffffffffffffffffffffffffff168152602001908152602001600020819055508560000160009054906101000a900473ffffffffffffffffffffffffffffffffffffffff1673ffffffffffffffffffffffffffffffffffffffff1663a9059cbb33610b978587610c5690919063ffffffff16565b6040518363ffffffff1660e01b8152600401610bb4929190611709565b602060405180830381600087803b158015610bce57600080fd5b505af1158015610be2573d6000803e3d6000fd5b505050506040513d601f19601f82011682018060405250610c0691908101906113ae565b90508015153373ffffffffffffffffffffffffffffffffffffffff167f9227bd86dcc89e4ce31e154fcd8b97abd1d48bbb1cac56024b9850581aa40adf60405160405180910390a3505050505050565b600082821115610c9b576040517f08c379a0000000000000000000000000000000000000000000000000000000008152600401610c92906117f6565b60405180910390fd5b600082840390508091505092915050565b600080831415610cbf5760009050610d16565b6000828402905082848281610cd057fe5b0414610d11576040517f08c379a0000000000000000000000000000000000000000000000000000000008152600401610d0890611836565b60405180910390fd5b809150505b92915050565b6000808211610d60576040517f08c379a0000000000000000000000000000000000000000000000000000000008152600401610d5790611816565b60405180910390fd5b6000828481610d6b57fe5b0490508091505092915050565b60008160000160009054906101000a900473ffffffffffffffffffffffffffffffffffffffff1673ffffffffffffffffffffffffffffffffffffffff166370a08231336040518263ffffffff1660e01b8152600401610dd791906116b7565b60206040518083038186803b158015610def57600080fd5b505afa158015610e03573d6000803e3d6000fd5b505050506040513d601f19601f82011682018060405250610e279190810190611400565b90506000811415610e385750611265565b60008260000160009054906101000a900473ffffffffffffffffffffffffffffffffffffffff169050610ef082600160008473ffffffffffffffffffffffffffffffffffffffff1673ffffffffffffffffffffffffffffffffffffffff16815260200190815260200160002060003373ffffffffffffffffffffffffffffffffffffffff1673ffffffffffffffffffffffffffffffffffffffff1681526020019081526020016000205461126890919063ffffffff16565b600160008373ffffffffffffffffffffffffffffffffffffffff1673ffffffffffffffffffffffffffffffffffffffff16815260200190815260200160002060003373ffffffffffffffffffffffffffffffffffffffff1673ffffffffffffffffffffffffffffffffffffffff16815260200190815260200160002081905550610f8782846002015461126890919063ffffffff16565b836002018190555060008360000160009054906101000a900473ffffffffffffffffffffffffffffffffffffffff1673ffffffffffffffffffffffffffffffffffffffff166323b872dd3330866040518463ffffffff1660e01b8152600401610ff2939291906116d2565b602060405180830381600087803b15801561100c57600080fd5b505af1158015611020573d6000803e3d6000fd5b505050506040513d601f19601f8201168201806040525061104491908101906113ae565b90508015153373ffffffffffffffffffffffffffffffffffffffff167f9227bd86dcc89e4ce31e154fcd8b97abd1d48bbb1cac56024b9850581aa40adf60405160405180910390a38360000160009054906101000a900473ffffffffffffffffffffffffffffffffffffffff1673ffffffffffffffffffffffffffffffffffffffff1663095ea7b38560010160009054906101000a900473ffffffffffffffffffffffffffffffffffffffff16856040518363ffffffff1660e01b815260040161110f929190611732565b602060405180830381600087803b15801561112957600080fd5b505af115801561113d573d6000803e3d6000fd5b505050506040513d601f19601f8201168201806040525061116191908101906113ae565b90508015153373ffffffffffffffffffffffffffffffffffffffff167f8c1eb0af37345b0386519ffee5d3ad761cc682c41517fb8aa915afc35c2916a260405160405180910390a360008460010160009054906101000a900473ffffffffffffffffffffffffffffffffffffffff1673ffffffffffffffffffffffffffffffffffffffff1663a0712d68856040518263ffffffff1660e01b81526004016112089190611856565b602060405180830381600087803b15801561122257600080fd5b505af1158015611236573d6000803e3d6000fd5b505050506040513d601f19601f8201168201806040525061125a9190810190611400565b1461126157fe5b5050505b50565b6000808284019050838110156112b3576040517f08c379a00000000000000000000000000000000000000000000000000000000081526004016112aa906117d6565b60405180910390fd5b8091505092915050565b60006112c9823561192a565b905092915050565b60006112dd825161193c565b905092915050565b60006112f18235611968565b905092915050565b60006113058251611968565b905092915050565b60006020828403121561131f57600080fd5b600061132d848285016112bd565b91505092915050565b6000806040838503121561134957600080fd5b6000611357858286016112bd565b9250506020611368858286016112bd565b9150509250929050565b6000806040838503121561138557600080fd5b6000611393858286016112bd565b92505060206113a4858286016112e5565b9150509250929050565b6000602082840312156113c057600080fd5b60006113ce848285016112d1565b91505092915050565b6000602082840312156113e957600080fd5b60006113f7848285016112e5565b91505092915050565b60006020828403121561141257600080fd5b6000611420848285016112f9565b91505092915050565b60006114358383611468565b60208301905092915050565b600061144d838361167e565b60208301905092915050565b61146281611972565b82525050565b611471816118ee565b82525050565b611480816118ee565b82525050565b60006114918261188b565b61149b81856118bb565b93506114a683611871565b60005b828110156114d4576114bc868351611429565b95506114c7826118a1565b91506001810190506114a9565b50849250505092915050565b60006114eb82611896565b6114f581856118cc565b93506115008361187e565b60005b8281101561152e57611516868351611441565b9550611521826118ae565b9150600181019050611503565b50849250505092915050565b61154381611984565b82525050565b611552816119a8565b82525050565b6000611565601b836118dd565b91507f536166654d6174683a206164646974696f6e206f766572666c6f7700000000006000830152602082019050919050565b60006115a5601e836118dd565b91507f536166654d6174683a207375627472616374696f6e206f766572666c6f7700006000830152602082019050919050565b60006115e5601a836118dd565b91507f536166654d6174683a206469766973696f6e206279207a65726f0000000000006000830152602082019050919050565b60006116256021836118dd565b91507f536166654d6174683a206d756c7469706c69636174696f6e206f766572666c6f60008301527f77000000000000000000000000000000000000000000000000000000000000006020830152604082019050919050565b61168781611920565b82525050565b61169681611920565b82525050565b60006020820190506116b16000830184611477565b92915050565b60006020820190506116cc6000830184611459565b92915050565b60006060820190506116e76000830186611459565b6116f46020830185611477565b611701604083018461168d565b949350505050565b600060408201905061171e6000830185611459565b61172b602083018461168d565b9392505050565b60006040820190506117476000830185611477565b611754602083018461168d565b9392505050565b600060208201905081810360008301526117758184611486565b905092915050565b6000602082019050818103600083015261179781846114e0565b905092915050565b60006060820190506117b46000830186611549565b6117c1602083018561153a565b6117ce604083018461168d565b949350505050565b600060208201905081810360008301526117ef81611558565b9050919050565b6000602082019050818103600083015261180f81611598565b9050919050565b6000602082019050818103600083015261182f816115d8565b9050919050565b6000602082019050818103600083015261184f81611618565b9050919050565b600060208201905061186b600083018461168d565b92915050565b6000602082019050919050565b6000602082019050919050565b600081519050919050565b600081519050919050565b6000602082019050919050565b6000602082019050919050565b600082825260208201905092915050565b600082825260208201905092915050565b600082825260208201905092915050565b60006118f982611900565b9050919050565b600073ffffffffffffffffffffffffffffffffffffffff82169050919050565b6000819050919050565b600061193582611948565b9050919050565b60008115159050919050565b600073ffffffffffffffffffffffffffffffffffffffff82169050919050565b6000819050919050565b600061197d826119cc565b9050919050565b600061198f82611996565b9050919050565b60006119a182611900565b9050919050565b60006119b3826119ba565b9050919050565b60006119c582611900565b9050919050565b60006119d7826119de565b9050919050565b60006119e982611900565b905091905056fea265627a7a72305820f95ac19c7437879e075b20c260f2492f4f0247aebcd0f92c4dea96d2a152eb9d6c6578706572696d656e74616cf50037",
  "linkReferences": {},
  "deployedLinkReferences": {}
}