{
  "_format": "hh-sol-artifact-1",
  "contractName": "ERC223Receiver",
  "sourceName": "contracts/v_0_5_7/ERC223/ERC223Receiver.sol",
  "abi": [
    {
      "constant": true,
      "inputs": [],
      "name": "ERC223_ID",
      "outputs": [
        {
          "name": "",
          "type": "bytes4"
        }
      ],
      "payable": false,
      "stateMutability": "view",
      "type": "function"
    },
    {
      "constant": true,
      "inputs": [
        {
          "name": "_from",
          "type": "address"
        },
        {
          "name": "_value",
          "type": "uint256"
        },
        {
          "name": "_data",
          "type": "bytes"
        }
      ],
      "name": "tokenFallback",
      "outputs": [],
      "payable": false,
      "stateMutability": "pure",
      "type": "function"
    }
  ],
  "bytecode": "0x608060405234801561001057600080fd5b506101b8806100206000396000f3fe608060405234801561001057600080fd5b50600436106100365760003560e01c8063084051661461003b578063c0ee0b8a14610097575b600080fd5b61004361017c565b60405180827bffffffffffffffffffffffffffffffffffffffffffffffffffffffff19167bffffffffffffffffffffffffffffffffffffffffffffffffffffffff1916815260200191505060405180910390f35b61017a600480360360608110156100ad57600080fd5b81019080803573ffffffffffffffffffffffffffffffffffffffff16906020019092919080359060200190929190803590602001906401000000008111156100f457600080fd5b82018360208201111561010657600080fd5b8035906020019184600183028401116401000000008311171561012857600080fd5b91908080601f016020809104026020016040519081016040528093929190818152602001838380828437600081840152601f19601f820116905080830192505050505050509192919290505050610187565b005b63c0ee0b8a60e01b81565b50505056fea165627a7a72305820280fe8ab9d79fc47130aad10a0bf2bce870bb21503a3c30b21a2d0953cc520170029",
  "linkReferences": {},
  "deployedLinkReferences": {}
}