{
  "_format": "hh-sol-artifact-1",
  "contractName": "AaveV2LendingPoolMock",
  "sourceName": "contracts/test/aaveV2/AaveV2LendingPoolMock.sol",
  "abi": [
    {
      "inputs": [
        {
          "internalType": "address[]",
          "name": "_assets",
          "type": "address[]"
        }
      ],
      "stateMutability": "nonpayable",
      "type": "constructor"
    },
    {
      "inputs": [
        {
          "internalType": "address",
          "name": "",
          "type": "address"
        }
      ],
      "name": "aTokens",
      "outputs": [
        {
          "internalType": "address",
          "name": "",
          "type": "address"
        }
      ],
      "stateMutability": "view",
      "type": "function"
    },
    {
      "inputs": [
        {
          "internalType": "address",
          "name": "asset",
          "type": "address"
        },
        {
          "internalType": "uint256",
          "name": "amount",
          "type": "uint256"
        },
        {
          "internalType": "uint256",
          "name": "interestRateMode",
          "type": "uint256"
        },
        {
          "internalType": "uint16",
          "name": "referralCode",
          "type": "uint16"
        },
        {
          "internalType": "address",
          "name": "onBehalfOf",
          "type": "address"
        }
      ],
      "name": "borrow",
      "outputs": [],
      "stateMutability": "nonpayable",
      "type": "function"
    },
    {
      "inputs": [
        {
          "internalType": "address",
          "name": "_asset",
          "type": "address"
        },
        {
          "internalType": "uint256",
          "name": "_amount",
          "type": "uint256"
        },
        {
          "internalType": "address",
          "name": "_onBehalfOf",
          "type": "address"
        },
        {
          "internalType": "uint16",
          "name": "",
          "type": "uint16"
        }
      ],
      "name": "deposit",
      "outputs": [],
      "stateMutability": "nonpayable",
      "type": "function"
    },
    {
      "inputs": [
        {
          "internalType": "address",
          "name": "_asset",
          "type": "address"
        }
      ],
      "name": "getAToken",
      "outputs": [
        {
          "internalType": "address",
          "name": "",
          "type": "address"
        }
      ],
      "stateMutability": "nonpayable",
      "type": "function"
    },
    {
      "inputs": [
        {
          "internalType": "address",
          "name": "asset",
          "type": "address"
        },
        {
          "internalType": "uint256",
          "name": "amount",
          "type": "uint256"
        },
        {
          "internalType": "uint256",
          "name": "rateMode",
          "type": "uint256"
        },
        {
          "internalType": "address",
          "name": "onBehalfOf",
          "type": "address"
        }
      ],
      "name": "repay",
      "outputs": [],
      "stateMutability": "nonpayable",
      "type": "function"
    },
    {
      "inputs": [
        {
          "internalType": "address",
          "name": "_asset",
          "type": "address"
        },
        {
          "internalType": "uint256",
          "name": "_amount",
          "type": "uint256"
        },
        {
          "internalType": "address",
          "name": "_to",
          "type": "address"
        }
      ],
      "name": "withdraw",
      "outputs": [
        {
          "internalType": "uint256",
          "name": "",
          "type": "uint256"
        }
      ],
      "stateMutability": "nonpayable",
      "type": "function"
    }
  ],
  "bytecode": "0x60806040523480156200001157600080fd5b5060405162002e2938038062002e29833981810160405281019062000037919062000260565b60005b815181101562000191578181815181106200007e577f4e487b7100000000000000000000000000000000000000000000000000000000600052603260045260246000fd5b6020026020010151604051620000949062000199565b620000a09190620002b6565b604051809103906000f080158015620000bd573d6000803e3d6000fd5b50600080848481518110620000fb577f4e487b7100000000000000000000000000000000000000000000000000000000600052603260045260246000fd5b602002602001015173ffffffffffffffffffffffffffffffffffffffff1673ffffffffffffffffffffffffffffffffffffffff16815260200190815260200160002060006101000a81548173ffffffffffffffffffffffffffffffffffffffff021916908373ffffffffffffffffffffffffffffffffffffffff160217905550808062000188906200039f565b9150506200003a565b505062000476565b611f948062000e9583390190565b6000620001be620001b884620002fc565b620002d3565b90508083825260208201905082856020860282011115620001de57600080fd5b60005b85811015620002125781620001f788826200021c565b845260208401935060208301925050600181019050620001e1565b5050509392505050565b6000815190506200022d816200045c565b92915050565b600082601f8301126200024557600080fd5b815162000257848260208601620001a7565b91505092915050565b6000602082840312156200027357600080fd5b600082015167ffffffffffffffff8111156200028e57600080fd5b6200029c8482850162000233565b91505092915050565b620002b0816200032b565b82525050565b6000602082019050620002cd6000830184620002a5565b92915050565b6000620002df620002f2565b9050620002ed828262000369565b919050565b6000604051905090565b600067ffffffffffffffff8211156200031a57620003196200041c565b5b602082029050602081019050919050565b600062000338826200033f565b9050919050565b600073ffffffffffffffffffffffffffffffffffffffff82169050919050565b6000819050919050565b62000374826200044b565b810181811067ffffffffffffffff821117156200039657620003956200041c565b5b80604052505050565b6000620003ac826200035f565b91507fffffffffffffffffffffffffffffffffffffffffffffffffffffffffffffffff821415620003e257620003e1620003ed565b5b600182019050919050565b7f4e487b7100000000000000000000000000000000000000000000000000000000600052601160045260246000fd5b7f4e487b7100000000000000000000000000000000000000000000000000000000600052604160045260246000fd5b6000601f19601f8301169050919050565b62000467816200032b565b81146200047357600080fd5b50565b610a0f80620004866000396000f3fe608060405234801561001057600080fd5b50600436106100625760003560e01c80633e108ad914610067578063573ade811461009757806369328dec146100b3578063732a52ee146100e3578063a415bcad14610113578063e8eda9df1461012f575b600080fd5b610081600480360381019061007c91906105ac565b61014b565b60405161008e91906107ee565b60405180910390f35b6100b160048036038101906100ac9190610687565b61017e565b005b6100cd60048036038101906100c891906105d5565b610184565b6040516100da91906108a9565b60405180910390f35b6100fd60048036038101906100f891906105ac565b6102cf565b60405161010a91906107ee565b60405180910390f35b61012d600480360381019061012891906106ea565b61033c565b005b61014960048036038101906101449190610624565b610343565b005b60006020528060005260406000206000915054906101000a900473ffffffffffffffffffffffffffffffffffffffff1681565b50505050565b6000806000808673ffffffffffffffffffffffffffffffffffffffff1673ffffffffffffffffffffffffffffffffffffffff16815260200190815260200160002060009054906101000a900473ffffffffffffffffffffffffffffffffffffffff169050600073ffffffffffffffffffffffffffffffffffffffff168173ffffffffffffffffffffffffffffffffffffffff161415610258576040517f08c379a000000000000000000000000000000000000000000000000000000000815260040161024f90610889565b60405180910390fd5b8073ffffffffffffffffffffffffffffffffffffffff1663f6b911bc3385876040518463ffffffff1660e01b815260040161029593929190610809565b600060405180830381600087803b1580156102af57600080fd5b505af11580156102c3573d6000803e3d6000fd5b50505050509392505050565b6000806000808473ffffffffffffffffffffffffffffffffffffffff1673ffffffffffffffffffffffffffffffffffffffff16815260200190815260200160002060009054906101000a900473ffffffffffffffffffffffffffffffffffffffff16905080915050919050565b5050505050565b60008060008673ffffffffffffffffffffffffffffffffffffffff1673ffffffffffffffffffffffffffffffffffffffff16815260200190815260200160002060009054906101000a900473ffffffffffffffffffffffffffffffffffffffff169050600073ffffffffffffffffffffffffffffffffffffffff168173ffffffffffffffffffffffffffffffffffffffff161415610416576040517f08c379a000000000000000000000000000000000000000000000000000000000815260040161040d90610889565b60405180910390fd5b8473ffffffffffffffffffffffffffffffffffffffff166323b872dd3383876040518463ffffffff1660e01b815260040161045393929190610809565b602060405180830381600087803b15801561046d57600080fd5b505af1158015610481573d6000803e3d6000fd5b505050506040513d601f19601f820116820180604052508101906104a59190610761565b6104e4576040517f08c379a00000000000000000000000000000000000000000000000000000000081526004016104db90610869565b60405180910390fd5b8073ffffffffffffffffffffffffffffffffffffffff166340c10f1984866040518363ffffffff1660e01b815260040161051f929190610840565b600060405180830381600087803b15801561053957600080fd5b505af115801561054d573d6000803e3d6000fd5b505050505050505050565b6000813590506105678161097d565b92915050565b60008151905061057c81610994565b92915050565b600081359050610591816109ab565b92915050565b6000813590506105a6816109c2565b92915050565b6000602082840312156105be57600080fd5b60006105cc84828501610558565b91505092915050565b6000806000606084860312156105ea57600080fd5b60006105f886828701610558565b935050602061060986828701610597565b925050604061061a86828701610558565b9150509250925092565b6000806000806080858703121561063a57600080fd5b600061064887828801610558565b945050602061065987828801610597565b935050604061066a87828801610558565b925050606061067b87828801610582565b91505092959194509250565b6000806000806080858703121561069d57600080fd5b60006106ab87828801610558565b94505060206106bc87828801610597565b93505060406106cd87828801610597565b92505060606106de87828801610558565b91505092959194509250565b600080600080600060a0868803121561070257600080fd5b600061071088828901610558565b955050602061072188828901610597565b945050604061073288828901610597565b935050606061074388828901610582565b925050608061075488828901610558565b9150509295509295909350565b60006020828403121561077357600080fd5b60006107818482850161056d565b91505092915050565b610793816108d5565b82525050565b60006107a66015836108c4565b91506107b18261092b565b602082019050919050565b60006107c9600d836108c4565b91506107d482610954565b602082019050919050565b6107e881610921565b82525050565b6000602082019050610803600083018461078a565b92915050565b600060608201905061081e600083018661078a565b61082b602083018561078a565b61083860408301846107df565b949350505050565b6000604082019050610855600083018561078a565b61086260208301846107df565b9392505050565b6000602082019050818103600083015261088281610799565b9050919050565b600060208201905081810360008301526108a2816107bc565b9050919050565b60006020820190506108be60008301846107df565b92915050565b600082825260208201905092915050565b60006108e082610901565b9050919050565b60008115159050919050565b600061ffff82169050919050565b600073ffffffffffffffffffffffffffffffffffffffff82169050919050565b6000819050919050565b7f6173736574207472616e73666572206661696c65640000000000000000000000600082015250565b7f756e6b6e6f776e20617373657400000000000000000000000000000000000000600082015250565b610986816108d5565b811461099157600080fd5b50565b61099d816108e7565b81146109a857600080fd5b50565b6109b4816108f3565b81146109bf57600080fd5b50565b6109cb81610921565b81146109d657600080fd5b5056fea26469706673582212209b8ccbfe7eb8b8d5246292b9e87343bffbc1527d3ad7c7b69ad169d07fb43abe64736f6c6343000803003360806040523480156200001157600080fd5b5060405162001f9438038062001f94833981810160405281019062000037919062000227565b6040518060400160405280600681526020017f61546f6b656e00000000000000000000000000000000000000000000000000008152506040518060400160405280600681526020017f41455243323000000000000000000000000000000000000000000000000000008152508160039080519060200190620000bb92919062000160565b508060049080519060200190620000d492919062000160565b50505080600560006101000a81548173ffffffffffffffffffffffffffffffffffffffff021916908373ffffffffffffffffffffffffffffffffffffffff16021790555033600660006101000a81548173ffffffffffffffffffffffffffffffffffffffff021916908373ffffffffffffffffffffffffffffffffffffffff1602179055505062000306565b8280546200016e9062000287565b90600052602060002090601f016020900481019282620001925760008555620001de565b82601f10620001ad57805160ff1916838001178555620001de565b82800160010185558215620001de579182015b82811115620001dd578251825591602001919060010190620001c0565b5b509050620001ed9190620001f1565b5090565b5b808211156200020c576000816000905550600101620001f2565b5090565b6000815190506200022181620002ec565b92915050565b6000602082840312156200023a57600080fd5b60006200024a8482850162000210565b91505092915050565b6000620002608262000267565b9050919050565b600073ffffffffffffffffffffffffffffffffffffffff82169050919050565b60006002820490506001821680620002a057607f821691505b60208210811415620002b757620002b6620002bd565b5b50919050565b7f4e487b7100000000000000000000000000000000000000000000000000000000600052602260045260246000fd5b620002f78162000253565b81146200030357600080fd5b50565b611c7e80620003166000396000f3fe608060405234801561001057600080fd5b50600436106100cf5760003560e01c806340c10f191161008c578063a457c2d711610066578063a457c2d714610228578063a9059cbb14610258578063dd62ed3e14610288578063f6b911bc146102b8576100cf565b806340c10f19146101be57806370a08231146101da57806395d89b411461020a576100cf565b806306fdde03146100d4578063095ea7b3146100f257806318160ddd1461012257806323b872dd14610140578063313ce56714610170578063395093511461018e575b600080fd5b6100dc6102d4565b6040516100e9919061151a565b60405180910390f35b61010c60048036038101906101079190611258565b610366565b60405161011991906114ff565b60405180910390f35b61012a610384565b60405161013791906116bc565b60405180910390f35b61015a60048036038101906101559190611209565b61038e565b60405161016791906114ff565b60405180910390f35b610178610486565b60405161018591906116d7565b60405180910390f35b6101a860048036038101906101a39190611258565b61048f565b6040516101b591906114ff565b60405180910390f35b6101d860048036038101906101d39190611258565b61053b565b005b6101f460048036038101906101ef91906111a4565b6105d9565b60405161020191906116bc565b60405180910390f35b610212610621565b60405161021f919061151a565b60405180910390f35b610242600480360381019061023d9190611258565b6106b3565b60405161024f91906114ff565b60405180910390f35b610272600480360381019061026d9190611258565b61079e565b60405161027f91906114ff565b60405180910390f35b6102a2600480360381019061029d91906111cd565b6107bc565b6040516102af91906116bc565b60405180910390f35b6102d260048036038101906102cd9190611209565b610843565b005b6060600380546102e390611820565b80601f016020809104026020016040519081016040528092919081815260200182805461030f90611820565b801561035c5780601f106103315761010080835404028352916020019161035c565b820191906000526020600020905b81548152906001019060200180831161033f57829003601f168201915b5050505050905090565b600061037a6103736109d0565b84846109d8565b6001905092915050565b6000600254905090565b600061039b848484610ba3565b6000600160008673ffffffffffffffffffffffffffffffffffffffff1673ffffffffffffffffffffffffffffffffffffffff16815260200190815260200160002060006103e66109d0565b73ffffffffffffffffffffffffffffffffffffffff1673ffffffffffffffffffffffffffffffffffffffff16815260200190815260200160002054905082811015610466576040517f08c379a000000000000000000000000000000000000000000000000000000000815260040161045d906115fc565b60405180910390fd5b61047a856104726109d0565b8584036109d8565b60019150509392505050565b60006012905090565b600061053161049c6109d0565b8484600160006104aa6109d0565b73ffffffffffffffffffffffffffffffffffffffff1673ffffffffffffffffffffffffffffffffffffffff16815260200190815260200160002060008873ffffffffffffffffffffffffffffffffffffffff1673ffffffffffffffffffffffffffffffffffffffff1681526020019081526020016000205461052c919061170e565b6109d8565b6001905092915050565b600660009054906101000a900473ffffffffffffffffffffffffffffffffffffffff1673ffffffffffffffffffffffffffffffffffffffff163373ffffffffffffffffffffffffffffffffffffffff16146105cb576040517f08c379a00000000000000000000000000000000000000000000000000000000081526004016105c29061159c565b60405180910390fd5b6105d58282610e24565b5050565b60008060008373ffffffffffffffffffffffffffffffffffffffff1673ffffffffffffffffffffffffffffffffffffffff168152602001908152602001600020549050919050565b60606004805461063090611820565b80601f016020809104026020016040519081016040528092919081815260200182805461065c90611820565b80156106a95780601f1061067e576101008083540402835291602001916106a9565b820191906000526020600020905b81548152906001019060200180831161068c57829003601f168201915b5050505050905090565b600080600160006106c26109d0565b73ffffffffffffffffffffffffffffffffffffffff1673ffffffffffffffffffffffffffffffffffffffff16815260200190815260200160002060008573ffffffffffffffffffffffffffffffffffffffff1673ffffffffffffffffffffffffffffffffffffffff1681526020019081526020016000205490508281101561077f576040517f08c379a00000000000000000000000000000000000000000000000000000000081526004016107769061167c565b60405180910390fd5b61079361078a6109d0565b858584036109d8565b600191505092915050565b60006107b26107ab6109d0565b8484610ba3565b6001905092915050565b6000600160008473ffffffffffffffffffffffffffffffffffffffff1673ffffffffffffffffffffffffffffffffffffffff16815260200190815260200160002060008373ffffffffffffffffffffffffffffffffffffffff1673ffffffffffffffffffffffffffffffffffffffff16815260200190815260200160002054905092915050565b600660009054906101000a900473ffffffffffffffffffffffffffffffffffffffff1673ffffffffffffffffffffffffffffffffffffffff163373ffffffffffffffffffffffffffffffffffffffff16146108d3576040517f08c379a00000000000000000000000000000000000000000000000000000000081526004016108ca9061159c565b60405180910390fd5b6108dd8382610f84565b600560009054906101000a900473ffffffffffffffffffffffffffffffffffffffff1673ffffffffffffffffffffffffffffffffffffffff1663a9059cbb83836040518363ffffffff1660e01b815260040161093a9291906114d6565b602060405180830381600087803b15801561095457600080fd5b505af1158015610968573d6000803e3d6000fd5b505050506040513d601f19601f8201168201806040525081019061098c9190611294565b6109cb576040517f08c379a00000000000000000000000000000000000000000000000000000000081526004016109c2906115dc565b60405180910390fd5b505050565b600033905090565b600073ffffffffffffffffffffffffffffffffffffffff168373ffffffffffffffffffffffffffffffffffffffff161415610a48576040517f08c379a0000000000000000000000000000000000000000000000000000000008152600401610a3f9061165c565b60405180910390fd5b600073ffffffffffffffffffffffffffffffffffffffff168273ffffffffffffffffffffffffffffffffffffffff161415610ab8576040517f08c379a0000000000000000000000000000000000000000000000000000000008152600401610aaf9061157c565b60405180910390fd5b80600160008573ffffffffffffffffffffffffffffffffffffffff1673ffffffffffffffffffffffffffffffffffffffff16815260200190815260200160002060008473ffffffffffffffffffffffffffffffffffffffff1673ffffffffffffffffffffffffffffffffffffffff168152602001908152602001600020819055508173ffffffffffffffffffffffffffffffffffffffff168373ffffffffffffffffffffffffffffffffffffffff167f8c5be1e5ebec7d5bd14f71427d1e84f3dd0314c0f7b2291e5b200ac8c7c3b92583604051610b9691906116bc565b60405180910390a3505050565b600073ffffffffffffffffffffffffffffffffffffffff168373ffffffffffffffffffffffffffffffffffffffff161415610c13576040517f08c379a0000000000000000000000000000000000000000000000000000000008152600401610c0a9061163c565b60405180910390fd5b600073ffffffffffffffffffffffffffffffffffffffff168273ffffffffffffffffffffffffffffffffffffffff161415610c83576040517f08c379a0000000000000000000000000000000000000000000000000000000008152600401610c7a9061153c565b60405180910390fd5b610c8e83838361115b565b60008060008573ffffffffffffffffffffffffffffffffffffffff1673ffffffffffffffffffffffffffffffffffffffff16815260200190815260200160002054905081811015610d14576040517f08c379a0000000000000000000000000000000000000000000000000000000008152600401610d0b906115bc565b60405180910390fd5b8181036000808673ffffffffffffffffffffffffffffffffffffffff1673ffffffffffffffffffffffffffffffffffffffff16815260200190815260200160002081905550816000808573ffffffffffffffffffffffffffffffffffffffff1673ffffffffffffffffffffffffffffffffffffffff1681526020019081526020016000206000828254610da7919061170e565b925050819055508273ffffffffffffffffffffffffffffffffffffffff168473ffffffffffffffffffffffffffffffffffffffff167fddf252ad1be2c89b69c2b068fc378daa952ba7f163c4a11628f55a4df523b3ef84604051610e0b91906116bc565b60405180910390a3610e1e848484611160565b50505050565b600073ffffffffffffffffffffffffffffffffffffffff168273ffffffffffffffffffffffffffffffffffffffff161415610e94576040517f08c379a0000000000000000000000000000000000000000000000000000000008152600401610e8b9061169c565b60405180910390fd5b610ea06000838361115b565b8060026000828254610eb2919061170e565b92505081905550806000808473ffffffffffffffffffffffffffffffffffffffff1673ffffffffffffffffffffffffffffffffffffffff1681526020019081526020016000206000828254610f07919061170e565b925050819055508173ffffffffffffffffffffffffffffffffffffffff16600073ffffffffffffffffffffffffffffffffffffffff167fddf252ad1be2c89b69c2b068fc378daa952ba7f163c4a11628f55a4df523b3ef83604051610f6c91906116bc565b60405180910390a3610f8060008383611160565b5050565b600073ffffffffffffffffffffffffffffffffffffffff168273ffffffffffffffffffffffffffffffffffffffff161415610ff4576040517f08c379a0000000000000000000000000000000000000000000000000000000008152600401610feb9061161c565b60405180910390fd5b6110008260008361115b565b60008060008473ffffffffffffffffffffffffffffffffffffffff1673ffffffffffffffffffffffffffffffffffffffff16815260200190815260200160002054905081811015611086576040517f08c379a000000000000000000000000000000000000000000000000000000000815260040161107d9061155c565b60405180910390fd5b8181036000808573ffffffffffffffffffffffffffffffffffffffff1673ffffffffffffffffffffffffffffffffffffffff1681526020019081526020016000208190555081600260008282546110dd9190611764565b92505081905550600073ffffffffffffffffffffffffffffffffffffffff168373ffffffffffffffffffffffffffffffffffffffff167fddf252ad1be2c89b69c2b068fc378daa952ba7f163c4a11628f55a4df523b3ef8460405161114291906116bc565b60405180910390a361115683600084611160565b505050565b505050565b505050565b60008135905061117481611c03565b92915050565b60008151905061118981611c1a565b92915050565b60008135905061119e81611c31565b92915050565b6000602082840312156111b657600080fd5b60006111c484828501611165565b91505092915050565b600080604083850312156111e057600080fd5b60006111ee85828601611165565b92505060206111ff85828601611165565b9150509250929050565b60008060006060848603121561121e57600080fd5b600061122c86828701611165565b935050602061123d86828701611165565b925050604061124e8682870161118f565b9150509250925092565b6000806040838503121561126b57600080fd5b600061127985828601611165565b925050602061128a8582860161118f565b9150509250929050565b6000602082840312156112a657600080fd5b60006112b48482850161117a565b91505092915050565b6112c681611798565b82525050565b6112d5816117aa565b82525050565b60006112e6826116f2565b6112f081856116fd565b93506113008185602086016117ed565b611309816118b0565b840191505092915050565b60006113216023836116fd565b915061132c826118c1565b604082019050919050565b60006113446022836116fd565b915061134f82611910565b604082019050919050565b60006113676022836116fd565b91506113728261195f565b604082019050919050565b600061138a6010836116fd565b9150611395826119ae565b602082019050919050565b60006113ad6026836116fd565b91506113b8826119d7565b604082019050919050565b60006113d06015836116fd565b91506113db82611a26565b602082019050919050565b60006113f36028836116fd565b91506113fe82611a4f565b604082019050919050565b60006114166021836116fd565b915061142182611a9e565b604082019050919050565b60006114396025836116fd565b915061144482611aed565b604082019050919050565b600061145c6024836116fd565b915061146782611b3c565b604082019050919050565b600061147f6025836116fd565b915061148a82611b8b565b604082019050919050565b60006114a2601f836116fd565b91506114ad82611bda565b602082019050919050565b6114c1816117d6565b82525050565b6114d0816117e0565b82525050565b60006040820190506114eb60008301856112bd565b6114f860208301846114b8565b9392505050565b600060208201905061151460008301846112cc565b92915050565b6000602082019050818103600083015261153481846112db565b905092915050565b6000602082019050818103600083015261155581611314565b9050919050565b6000602082019050818103600083015261157581611337565b9050919050565b600060208201905081810360008301526115958161135a565b9050919050565b600060208201905081810360008301526115b58161137d565b9050919050565b600060208201905081810360008301526115d5816113a0565b9050919050565b600060208201905081810360008301526115f5816113c3565b9050919050565b60006020820190508181036000830152611615816113e6565b9050919050565b6000602082019050818103600083015261163581611409565b9050919050565b600060208201905081810360008301526116558161142c565b9050919050565b600060208201905081810360008301526116758161144f565b9050919050565b6000602082019050818103600083015261169581611472565b9050919050565b600060208201905081810360008301526116b581611495565b9050919050565b60006020820190506116d160008301846114b8565b92915050565b60006020820190506116ec60008301846114c7565b92915050565b600081519050919050565b600082825260208201905092915050565b6000611719826117d6565b9150611724836117d6565b9250827fffffffffffffffffffffffffffffffffffffffffffffffffffffffffffffffff0382111561175957611758611852565b5b828201905092915050565b600061176f826117d6565b915061177a836117d6565b92508282101561178d5761178c611852565b5b828203905092915050565b60006117a3826117b6565b9050919050565b60008115159050919050565b600073ffffffffffffffffffffffffffffffffffffffff82169050919050565b6000819050919050565b600060ff82169050919050565b60005b8381101561180b5780820151818401526020810190506117f0565b8381111561181a576000848401525b50505050565b6000600282049050600182168061183857607f821691505b6020821081141561184c5761184b611881565b5b50919050565b7f4e487b7100000000000000000000000000000000000000000000000000000000600052601160045260246000fd5b7f4e487b7100000000000000000000000000000000000000000000000000000000600052602260045260246000fd5b6000601f19601f8301169050919050565b7f45524332303a207472616e7366657220746f20746865207a65726f206164647260008201527f6573730000000000000000000000000000000000000000000000000000000000602082015250565b7f45524332303a206275726e20616d6f756e7420657863656564732062616c616e60008201527f6365000000000000000000000000000000000000000000000000000000000000602082015250565b7f45524332303a20617070726f766520746f20746865207a65726f20616464726560008201527f7373000000000000000000000000000000000000000000000000000000000000602082015250565b7f6e6f74206c656e64696e6720706f6f6c00000000000000000000000000000000600082015250565b7f45524332303a207472616e7366657220616d6f756e742065786365656473206260008201527f616c616e63650000000000000000000000000000000000000000000000000000602082015250565b7f6173736574207472616e73666572206661696c65640000000000000000000000600082015250565b7f45524332303a207472616e7366657220616d6f756e742065786365656473206160008201527f6c6c6f77616e6365000000000000000000000000000000000000000000000000602082015250565b7f45524332303a206275726e2066726f6d20746865207a65726f2061646472657360008201527f7300000000000000000000000000000000000000000000000000000000000000602082015250565b7f45524332303a207472616e736665722066726f6d20746865207a65726f20616460008201527f6472657373000000000000000000000000000000000000000000000000000000602082015250565b7f45524332303a20617070726f76652066726f6d20746865207a65726f2061646460008201527f7265737300000000000000000000000000000000000000000000000000000000602082015250565b7f45524332303a2064656372656173656420616c6c6f77616e63652062656c6f7760008201527f207a65726f000000000000000000000000000000000000000000000000000000602082015250565b7f45524332303a206d696e7420746f20746865207a65726f206164647265737300600082015250565b611c0c81611798565b8114611c1757600080fd5b50565b611c23816117aa565b8114611c2e57600080fd5b50565b611c3a816117d6565b8114611c4557600080fd5b5056fea2646970667358221220ed5e0831194638e151f3f6e0cb8371ef8b7d2761c3d8ef52577ab88b0562509e64736f6c63430008030033",
  "linkReferences": {},
  "deployedLinkReferences": {}
}