{
  "_format": "hh-sol-artifact-1",
  "contractName": "YDaiMock",
  "sourceName": "contracts/v_0_5_7/Test/YDaiMock.sol",
  "abi": [
    {
      "constant": true,
      "inputs": [],
      "name": "aaveToken",
      "outputs": [
        {
          "name": "",
          "type": "address"
        }
      ],
      "payable": false,
      "stateMutability": "view",
      "type": "function"
    },
    {
      "constant": true,
      "inputs": [],
      "name": "name",
      "outputs": [
        {
          "name": "",
          "type": "string"
        }
      ],
      "payable": false,
      "stateMutability": "view",
      "type": "function"
    },
    {
      "constant": true,
      "inputs": [],
      "name": "provider",
      "outputs": [
        {
          "name": "",
          "type": "uint8"
        }
      ],
      "payable": false,
      "stateMutability": "view",
      "type": "function"
    },
    {
      "constant": false,
      "inputs": [
        {
          "name": "spender",
          "type": "address"
        },
        {
          "name": "amount",
          "type": "uint256"
        }
      ],
      "name": "approve",
      "outputs": [
        {
          "name": "",
          "type": "bool"
        }
      ],
      "payable": false,
      "stateMutability": "nonpayable",
      "type": "function"
    },
    {
      "constant": true,
      "inputs": [],
      "name": "balanceFulcrum",
      "outputs": [
        {
          "name": "",
          "type": "uint256"
        }
      ],
      "payable": false,
      "stateMutability": "view",
      "type": "function"
    },
    {
      "constant": true,
      "inputs": [],
      "name": "pool",
      "outputs": [
        {
          "name": "",
          "type": "uint256"
        }
      ],
      "payable": false,
      "stateMutability": "view",
      "type": "function"
    },
    {
      "constant": true,
      "inputs": [],
      "name": "totalSupply",
      "outputs": [
        {
          "name": "",
          "type": "uint256"
        }
      ],
      "payable": false,
      "stateMutability": "view",
      "type": "function"
    },
    {
      "constant": false,
      "inputs": [
        {
          "name": "sender",
          "type": "address"
        },
        {
          "name": "recipient",
          "type": "address"
        },
        {
          "name": "amount",
          "type": "uint256"
        }
      ],
      "name": "transferFrom",
      "outputs": [
        {
          "name": "",
          "type": "bool"
        }
      ],
      "payable": false,
      "stateMutability": "nonpayable",
      "type": "function"
    },
    {
      "constant": false,
      "inputs": [
        {
          "name": "_shares",
          "type": "uint256"
        }
      ],
      "name": "withdraw",
      "outputs": [],
      "payable": false,
      "stateMutability": "nonpayable",
      "type": "function"
    },
    {
      "constant": true,
      "inputs": [],
      "name": "decimals",
      "outputs": [
        {
          "name": "",
          "type": "uint8"
        }
      ],
      "payable": false,
      "stateMutability": "view",
      "type": "function"
    },
    {
      "constant": false,
      "inputs": [
        {
          "name": "spender",
          "type": "address"
        },
        {
          "name": "addedValue",
          "type": "uint256"
        }
      ],
      "name": "increaseAllowance",
      "outputs": [
        {
          "name": "",
          "type": "bool"
        }
      ],
      "payable": false,
      "stateMutability": "nonpayable",
      "type": "function"
    },
    {
      "constant": true,
      "inputs": [],
      "name": "balanceDydx",
      "outputs": [
        {
          "name": "",
          "type": "uint256"
        }
      ],
      "payable": false,
      "stateMutability": "view",
      "type": "function"
    },
    {
      "constant": true,
      "inputs": [],
      "name": "apr",
      "outputs": [
        {
          "name": "",
          "type": "address"
        }
      ],
      "payable": false,
      "stateMutability": "view",
      "type": "function"
    },
    {
      "constant": true,
      "inputs": [],
      "name": "fulcrum",
      "outputs": [
        {
          "name": "",
          "type": "address"
        }
      ],
      "payable": false,
      "stateMutability": "view",
      "type": "function"
    },
    {
      "constant": true,
      "inputs": [],
      "name": "balanceCompound",
      "outputs": [
        {
          "name": "",
          "type": "uint256"
        }
      ],
      "payable": false,
      "stateMutability": "view",
      "type": "function"
    },
    {
      "constant": true,
      "inputs": [
        {
          "name": "account",
          "type": "address"
        }
      ],
      "name": "balanceOf",
      "outputs": [
        {
          "name": "",
          "type": "uint256"
        }
      ],
      "payable": false,
      "stateMutability": "view",
      "type": "function"
    },
    {
      "constant": true,
      "inputs": [],
      "name": "calcPoolValueInToken",
      "outputs": [
        {
          "name": "",
          "type": "uint256"
        }
      ],
      "payable": false,
      "stateMutability": "view",
      "type": "function"
    },
    {
      "constant": false,
      "inputs": [],
      "name": "renounceOwnership",
      "outputs": [],
      "payable": false,
      "stateMutability": "nonpayable",
      "type": "function"
    },
    {
      "constant": true,
      "inputs": [],
      "name": "getPricePerFullShare",
      "outputs": [
        {
          "name": "",
          "type": "uint256"
        }
      ],
      "payable": false,
      "stateMutability": "view",
      "type": "function"
    },
    {
      "constant": false,
      "inputs": [],
      "name": "rebalance",
      "outputs": [],
      "payable": false,
      "stateMutability": "nonpayable",
      "type": "function"
    },
    {
      "constant": true,
      "inputs": [],
      "name": "aave",
      "outputs": [
        {
          "name": "",
          "type": "address"
        }
      ],
      "payable": false,
      "stateMutability": "view",
      "type": "function"
    },
    {
      "constant": true,
      "inputs": [],
      "name": "owner",
      "outputs": [
        {
          "name": "",
          "type": "address"
        }
      ],
      "payable": false,
      "stateMutability": "view",
      "type": "function"
    },
    {
      "constant": true,
      "inputs": [],
      "name": "dydx",
      "outputs": [
        {
          "name": "",
          "type": "address"
        }
      ],
      "payable": false,
      "stateMutability": "view",
      "type": "function"
    },
    {
      "constant": true,
      "inputs": [],
      "name": "isOwner",
      "outputs": [
        {
          "name": "",
          "type": "bool"
        }
      ],
      "payable": false,
      "stateMutability": "view",
      "type": "function"
    },
    {
      "constant": true,
      "inputs": [],
      "name": "balanceFulcrumAvailable",
      "outputs": [
        {
          "name": "",
          "type": "uint256"
        }
      ],
      "payable": false,
      "stateMutability": "view",
      "type": "function"
    },
    {
      "constant": true,
      "inputs": [],
      "name": "symbol",
      "outputs": [
        {
          "name": "",
          "type": "string"
        }
      ],
      "payable": false,
      "stateMutability": "view",
      "type": "function"
    },
    {
      "constant": false,
      "inputs": [],
      "name": "approveToken",
      "outputs": [],
      "payable": false,
      "stateMutability": "nonpayable",
      "type": "function"
    },
    {
      "constant": true,
      "inputs": [],
      "name": "aavePool",
      "outputs": [
        {
          "name": "",
          "type": "address"
        }
      ],
      "payable": false,
      "stateMutability": "view",
      "type": "function"
    },
    {
      "constant": true,
      "inputs": [],
      "name": "recommend",
      "outputs": [
        {
          "name": "",
          "type": "uint8"
        }
      ],
      "payable": false,
      "stateMutability": "view",
      "type": "function"
    },
    {
      "constant": false,
      "inputs": [
        {
          "name": "spender",
          "type": "address"
        },
        {
          "name": "subtractedValue",
          "type": "uint256"
        }
      ],
      "name": "decreaseAllowance",
      "outputs": [
        {
          "name": "",
          "type": "bool"
        }
      ],
      "payable": false,
      "stateMutability": "nonpayable",
      "type": "function"
    },
    {
      "constant": true,
      "inputs": [],
      "name": "balanceCompoundInToken",
      "outputs": [
        {
          "name": "",
          "type": "uint256"
        }
      ],
      "payable": false,
      "stateMutability": "view",
      "type": "function"
    },
    {
      "constant": false,
      "inputs": [
        {
          "name": "recipient",
          "type": "address"
        },
        {
          "name": "amount",
          "type": "uint256"
        }
      ],
      "name": "transfer",
      "outputs": [
        {
          "name": "",
          "type": "bool"
        }
      ],
      "payable": false,
      "stateMutability": "nonpayable",
      "type": "function"
    },
    {
      "constant": true,
      "inputs": [],
      "name": "balanceAaveAvailable",
      "outputs": [
        {
          "name": "",
          "type": "uint256"
        }
      ],
      "payable": false,
      "stateMutability": "view",
      "type": "function"
    },
    {
      "constant": true,
      "inputs": [],
      "name": "chai",
      "outputs": [
        {
          "name": "",
          "type": "address"
        }
      ],
      "payable": false,
      "stateMutability": "view",
      "type": "function"
    },
    {
      "constant": true,
      "inputs": [],
      "name": "balance",
      "outputs": [
        {
          "name": "",
          "type": "uint256"
        }
      ],
      "payable": false,
      "stateMutability": "view",
      "type": "function"
    },
    {
      "constant": false,
      "inputs": [
        {
          "name": "_amount",
          "type": "uint256"
        }
      ],
      "name": "deposit",
      "outputs": [],
      "payable": false,
      "stateMutability": "nonpayable",
      "type": "function"
    },
    {
      "constant": true,
      "inputs": [],
      "name": "balanceAave",
      "outputs": [
        {
          "name": "",
          "type": "uint256"
        }
      ],
      "payable": false,
      "stateMutability": "view",
      "type": "function"
    },
    {
      "constant": true,
      "inputs": [],
      "name": "balanceDydxAvailable",
      "outputs": [
        {
          "name": "",
          "type": "uint256"
        }
      ],
      "payable": false,
      "stateMutability": "view",
      "type": "function"
    },
    {
      "constant": true,
      "inputs": [],
      "name": "dToken",
      "outputs": [
        {
          "name": "",
          "type": "uint256"
        }
      ],
      "payable": false,
      "stateMutability": "view",
      "type": "function"
    },
    {
      "constant": true,
      "inputs": [
        {
          "name": "owner",
          "type": "address"
        },
        {
          "name": "spender",
          "type": "address"
        }
      ],
      "name": "allowance",
      "outputs": [
        {
          "name": "",
          "type": "uint256"
        }
      ],
      "payable": false,
      "stateMutability": "view",
      "type": "function"
    },
    {
      "constant": true,
      "inputs": [],
      "name": "calcPoolValueInToken2",
      "outputs": [
        {
          "name": "",
          "type": "uint256"
        }
      ],
      "payable": false,
      "stateMutability": "view",
      "type": "function"
    },
    {
      "constant": false,
      "inputs": [
        {
          "name": "newOwner",
          "type": "address"
        }
      ],
      "name": "transferOwnership",
      "outputs": [],
      "payable": false,
      "stateMutability": "nonpayable",
      "type": "function"
    },
    {
      "constant": true,
      "inputs": [],
      "name": "balanceFulcrumInToken",
      "outputs": [
        {
          "name": "",
          "type": "uint256"
        }
      ],
      "payable": false,
      "stateMutability": "view",
      "type": "function"
    },
    {
      "constant": true,
      "inputs": [],
      "name": "compound",
      "outputs": [
        {
          "name": "",
          "type": "address"
        }
      ],
      "payable": false,
      "stateMutability": "view",
      "type": "function"
    },
    {
      "constant": true,
      "inputs": [],
      "name": "getAave",
      "outputs": [
        {
          "name": "",
          "type": "address"
        }
      ],
      "payable": false,
      "stateMutability": "view",
      "type": "function"
    },
    {
      "constant": true,
      "inputs": [],
      "name": "getAaveCore",
      "outputs": [
        {
          "name": "",
          "type": "address"
        }
      ],
      "payable": false,
      "stateMutability": "view",
      "type": "function"
    },
    {
      "constant": true,
      "inputs": [],
      "name": "token",
      "outputs": [
        {
          "name": "",
          "type": "address"
        }
      ],
      "payable": false,
      "stateMutability": "view",
      "type": "function"
    },
    {
      "inputs": [
        {
          "name": "tokenAddress",
          "type": "address"
        }
      ],
      "payable": false,
      "stateMutability": "nonpayable",
      "type": "constructor"
    },
    {
      "anonymous": false,
      "inputs": [
        {
          "indexed": true,
          "name": "previousOwner",
          "type": "address"
        },
        {
          "indexed": true,
          "name": "newOwner",
          "type": "address"
        }
      ],
      "name": "OwnershipTransferred",
      "type": "event"
    },
    {
      "anonymous": false,
      "inputs": [
        {
          "indexed": true,
          "name": "from",
          "type": "address"
        },
        {
          "indexed": true,
          "name": "to",
          "type": "address"
        },
        {
          "indexed": false,
          "name": "value",
          "type": "uint256"
        }
      ],
      "name": "Transfer",
      "type": "event"
    },
    {
      "anonymous": false,
      "inputs": [
        {
          "indexed": true,
          "name": "owner",
          "type": "address"
        },
        {
          "indexed": true,
          "name": "spender",
          "type": "address"
        },
        {
          "indexed": false,
          "name": "value",
          "type": "uint256"
        }
      ],
      "name": "Approval",
      "type": "event"
    }
  ],
  "bytecode": "0x60806040526000601260146101000a81548160ff021916908360048111156200002457fe5b02179055503480156200003657600080fd5b5060405160208062005b968339810180604052620000589190810190620005b0565b6040518060400160405280600981526020017f696561726e2044414900000000000000000000000000000000000000000000008152506040518060400160405280600481526020017f794441490000000000000000000000000000000000000000000000000000000081525060128260039080519060200190620000de929190620004eb565b508160049080519060200190620000f7929190620004eb565b5080600560006101000a81548160ff021916908360ff16021790555050505060016006819055506200012e620004e360201b60201c565b600760006101000a81548173ffffffffffffffffffffffffffffffffffffffff021916908373ffffffffffffffffffffffffffffffffffffffff160217905550600760009054906101000a900473ffffffffffffffffffffffffffffffffffffffff1673ffffffffffffffffffffffffffffffffffffffff16600073ffffffffffffffffffffffffffffffffffffffff167f8be0079c531659141344cd1fd0a4f28419497f9722a3daafe3b4186f6b6457e060405160405180910390a380600960006101000a81548173ffffffffffffffffffffffffffffffffffffffff021916908373ffffffffffffffffffffffffffffffffffffffff16021790555073dd6d648c991f7d47454354f4ef326b04025a48a8601160006101000a81548173ffffffffffffffffffffffffffffffffffffffff021916908373ffffffffffffffffffffffffffffffffffffffff160217905550731e0447b19bb6ecfdae1e4ae1694b0c3659614e4e600f60006101000a81548173ffffffffffffffffffffffffffffffffffffffff021916908373ffffffffffffffffffffffffffffffffffffffff1602179055507324a42fd28c976a61df5d00d0599c34c4f90748c8600c60006101000a81548173ffffffffffffffffffffffffffffffffffffffff021916908373ffffffffffffffffffffffffffffffffffffffff160217905550733dfd23a6c5e8bbcfc9581d2e864a68feb6a076d3600d60006101000a81548173ffffffffffffffffffffffffffffffffffffffff021916908373ffffffffffffffffffffffffffffffffffffffff16021790555073493c57c4763932315a328269e1adad09653b9081600b60006101000a81548173ffffffffffffffffffffffffffffffffffffffff021916908373ffffffffffffffffffffffffffffffffffffffff16021790555073fc1e690f61efd961294b3e1ce3313fbd8aa4f85d600e60006101000a81548173ffffffffffffffffffffffffffffffffffffffff021916908373ffffffffffffffffffffffffffffffffffffffff160217905550735d3a536e4d6dbd6114cc1ead35777bab948e3643600a60006101000a81548173ffffffffffffffffffffffffffffffffffffffff021916908373ffffffffffffffffffffffffffffffffffffffff1602179055507306af07097c9eeb7fd685c692751d5c66db49c215601260006101000a81548173ffffffffffffffffffffffffffffffffffffffff021916908373ffffffffffffffffffffffffffffffffffffffff16021790555060036010819055505062000610565b600033905090565b828054600181600116156101000203166002900490600052602060002090601f016020900481019282601f106200052e57805160ff19168380011785556200055f565b828001600101855582156200055f579182015b828111156200055e57825182559160200191906001019062000541565b5b5090506200056e919062000572565b5090565b6200059791905b808211156200059357600081600090555060010162000579565b5090565b90565b6000620005a88251620005dc565b905092915050565b600060208284031215620005c357600080fd5b6000620005d3848285016200059a565b91505092915050565b6000620005e982620005f0565b9050919050565b600073ffffffffffffffffffffffffffffffffffffffff82169050919050565b61557680620006206000396000f3fe608060405234801561001057600080fd5b50600436106102955760003560e01c80638f32d59b11610167578063b6b55f25116100ce578063f2fde38b11610087578063f2fde38b146107a6578063f5a41dea146107c2578063f69e2046146107e0578063f7c1ec77146107fe578063f82ce27d1461081c578063fc0c546a1461083a57610295565b8063b6b55f25146106e2578063cf8ca426146106fe578063d54e32441461071c578063d9d7858a1461073a578063dd62ed3e14610758578063e2e2d2791461078857610295565b8063a457c2d711610120578063a457c2d71461060a578063a72879711461063a578063a9059cbb14610658578063b098fc8014610688578063b69d0456146106a6578063b69ef8a8146106c457610295565b80638f32d59b1461056a5780638f9225ca1461058857806395d89b41146105a657806399b71d5c146105c4578063a03e4bc3146105ce578063a160176d146105ec57610295565b806339c0a7e11161020b578063715018a6116101c4578063715018a6146104de57806377c7b8fc146104e85780637d7c2a1c14610506578063819faf7b146105105780638da5cb5b1461052e5780638e4ec6ef1461054c57610295565b806339c0a7e11461041857806357ded9c91461043657806358782c211461045457806361c1ec551461047257806370a08231146104905780637137ef99146104c057610295565b806316f0115b1161025d57806316f0115b1461034257806318160ddd1461036057806323b872dd1461037e5780632e1a7d4d146103ae578063313ce567146103ca57806339509351146103e857610295565b806306a3fe591461029a57806306fdde03146102b8578063085d4883146102d6578063095ea7b3146102f45780630eb2a26714610324575b600080fd5b6102a2610858565b6040516102af9190614d94565b60405180910390f35b6102c061087e565b6040516102cd9190614edc565b60405180910390f35b6102de610920565b6040516102eb9190614ec1565b60405180910390f35b61030e600480360361030991908101906141aa565b610933565b60405161031b9190614ea6565b60405180910390f35b61032c610951565b60405161033991906151e7565b60405180910390f35b61034a610a03565b60405161035791906151e7565b60405180910390f35b610368610a09565b60405161037591906151e7565b60405180910390f35b6103986004803603610393919081019061415b565b610a13565b6040516103a59190614ea6565b60405180910390f35b6103c860048036036103c391908101906142c7565b610aec565b005b6103d2610e97565b6040516103df9190615202565b60405180910390f35b61040260048036036103fd91908101906141aa565b610eae565b60405161040f9190614ea6565b60405180910390f35b610420610f61565b60405161042d91906151e7565b60405180910390f35b61043e611051565b60405161044b9190614d94565b60405180910390f35b61045c611077565b6040516104699190614d94565b60405180910390f35b61047a61109d565b60405161048791906151e7565b60405180910390f35b6104aa60048036036104a591908101906140cd565b61114f565b6040516104b791906151e7565b60405180910390f35b6104c8611197565b6040516104d591906151e7565b60405180910390f35b6104e66111a6565b005b6104f06112ae565b6040516104fd91906151e7565b60405180910390f35b61050e6112f0565b005b610518611436565b6040516105259190614d94565b60405180910390f35b61053661145c565b6040516105439190614d94565b60405180910390f35b610554611486565b6040516105619190614d94565b60405180910390f35b6105726114ac565b60405161057f9190614ea6565b60405180910390f35b61059061150b565b60405161059d91906151e7565b60405180910390f35b6105ae6115df565b6040516105bb9190614edc565b60405180910390f35b6105cc611681565b005b6105d66118a4565b6040516105e39190614d94565b60405180910390f35b6105f46118ca565b6040516106019190614ec1565b60405180910390f35b610624600480360361061f91908101906141aa565b611a36565b6040516106319190614ea6565b60405180910390f35b610642611b03565b60405161064f91906151e7565b60405180910390f35b610672600480360361066d91908101906141aa565b611bef565b60405161067f9190614ea6565b60405180910390f35b610690611c0d565b60405161069d91906151e7565b60405180910390f35b6106ae611ce1565b6040516106bb9190614d94565b60405180910390f35b6106cc611d07565b6040516106d991906151e7565b60405180910390f35b6106fc60048036036106f791908101906142c7565b611db9565b005b610706611f1d565b60405161071391906151e7565b60405180910390f35b610724611fcf565b60405161073191906151e7565b60405180910390f35b6107426120a3565b60405161074f91906151e7565b60405180910390f35b610772600480360361076d919081019061411f565b6120a9565b60405161077f91906151e7565b60405180910390f35b610790612130565b60405161079d91906151e7565b60405180910390f35b6107c060048036036107bb91908101906140cd565b61213f565b005b6107ca612192565b6040516107d791906151e7565b60405180910390f35b6107e861225d565b6040516107f59190614d94565b60405180910390f35b610806612283565b6040516108139190614d94565b60405180910390f35b61082461232a565b6040516108319190614d94565b60405180910390f35b6108426123d1565b60405161084f9190614d94565b60405180910390f35b600e60009054906101000a900473ffffffffffffffffffffffffffffffffffffffff1681565b606060038054600181600116156101000203166002900480601f0160208091040260200160405190810160405280929190818152602001828054600181600116156101000203166002900480156109165780601f106108eb57610100808354040283529160200191610916565b820191906000526020600020905b8154815290600101906020018083116108f957829003601f168201915b5050505050905090565b601260149054906101000a900460ff1681565b60006109476109406123f7565b84846123ff565b6001905092915050565b6000600b60009054906101000a900473ffffffffffffffffffffffffffffffffffffffff1673ffffffffffffffffffffffffffffffffffffffff166370a08231306040518263ffffffff1660e01b81526004016109ae9190614d94565b60206040518083038186803b1580156109c657600080fd5b505afa1580156109da573d6000803e3d6000fd5b505050506040513d601f19601f820116820180604052506109fe91908101906142f0565b905090565b60085481565b6000600254905090565b6000610a208484846125ca565b610ae184610a2c6123f7565b610adc856040518060600160405280602881526020016154f060289139600160008b73ffffffffffffffffffffffffffffffffffffffff1673ffffffffffffffffffffffffffffffffffffffff1681526020019081526020016000206000610a926123f7565b73ffffffffffffffffffffffffffffffffffffffff1673ffffffffffffffffffffffffffffffffffffffff168152602001908152602001600020546128549092919063ffffffff16565b6123ff565b600190509392505050565b60016006600082825401925050819055506000600654905060008211610b47576040517f08c379a0000000000000000000000000000000000000000000000000000000008152600401610b3e9061505e565b60405180910390fd5b6000610b523361114f565b905080831115610b97576040517f08c379a0000000000000000000000000000000000000000000000000000000008152600401610b8e9061503e565b60405180910390fd5b610b9f611197565b6008819055506000610bd0600254610bc2866008546128af90919063ffffffff16565b61291f90919063ffffffff16565b9050610c5a846040518060400160405280601d81526020017f72656465656d20616d6f756e7420657863656564732062616c616e63650000008152506000803373ffffffffffffffffffffffffffffffffffffffff1673ffffffffffffffffffffffffffffffffffffffff168152602001908152602001600020546128549092919063ffffffff16565b6000803373ffffffffffffffffffffffffffffffffffffffff1673ffffffffffffffffffffffffffffffffffffffff16815260200190815260200160002081905550610cb18460025461296990919063ffffffff16565b600281905550600073ffffffffffffffffffffffffffffffffffffffff163373ffffffffffffffffffffffffffffffffffffffff167fddf252ad1be2c89b69c2b068fc378daa952ba7f163c4a11628f55a4df523b3ef86604051610d1591906151e7565b60405180910390a36000600960009054906101000a900473ffffffffffffffffffffffffffffffffffffffff1673ffffffffffffffffffffffffffffffffffffffff166370a08231306040518263ffffffff1660e01b8152600401610d7a9190614d94565b60206040518083038186803b158015610d9257600080fd5b505afa158015610da6573d6000803e3d6000fd5b505050506040513d601f19601f82011682018060405250610dca91908101906142f0565b905081811015610df157610def610dea828461296990919063ffffffff16565b6129b3565b505b610e3e3383600960009054906101000a900473ffffffffffffffffffffffffffffffffffffffff1673ffffffffffffffffffffffffffffffffffffffff16612a879092919063ffffffff16565b610e46611197565b6008819055505050506006548114610e93576040517f08c379a0000000000000000000000000000000000000000000000000000000008152600401610e8a9061513e565b60405180910390fd5b5050565b6000600560009054906101000a900460ff16905090565b6000610f57610ebb6123f7565b84610f528560016000610ecc6123f7565b73ffffffffffffffffffffffffffffffffffffffff1673ffffffffffffffffffffffffffffffffffffffff16815260200190815260200160002060008973ffffffffffffffffffffffffffffffffffffffff1673ffffffffffffffffffffffffffffffffffffffff16815260200190815260200160002054612b2690919063ffffffff16565b6123ff565b6001905092915050565b6000610f6b613e29565b600f60009054906101000a900473ffffffffffffffffffffffffffffffffffffffff1673ffffffffffffffffffffffffffffffffffffffff1663c190c2ec60405180604001604052803073ffffffffffffffffffffffffffffffffffffffff16815260200160008152506010546040518363ffffffff1660e01b8152600401610ff59291906151be565b604080518083038186803b15801561100c57600080fd5b505afa158015611020573d6000803e3d6000fd5b505050506040513d601f19601f82011682018060405250611044919081019061429e565b9050806020015191505090565b601160009054906101000a900473ffffffffffffffffffffffffffffffffffffffff1681565b600b60009054906101000a900473ffffffffffffffffffffffffffffffffffffffff1681565b6000600a60009054906101000a900473ffffffffffffffffffffffffffffffffffffffff1673ffffffffffffffffffffffffffffffffffffffff166370a08231306040518263ffffffff1660e01b81526004016110fa9190614d94565b60206040518083038186803b15801561111257600080fd5b505afa158015611126573d6000803e3d6000fd5b505050506040513d601f19601f8201168201806040525061114a91908101906142f0565b905090565b60008060008373ffffffffffffffffffffffffffffffffffffffff1673ffffffffffffffffffffffffffffffffffffffff168152602001908152602001600020549050919050565b60006111a1611d07565b905090565b6111ae6114ac565b6111ed576040517f08c379a00000000000000000000000000000000000000000000000000000000081526004016111e49061501e565b60405180910390fd5b600073ffffffffffffffffffffffffffffffffffffffff16600760009054906101000a900473ffffffffffffffffffffffffffffffffffffffff1673ffffffffffffffffffffffffffffffffffffffff167f8be0079c531659141344cd1fd0a4f28419497f9722a3daafe3b4186f6b6457e060405160405180910390a36000600760006101000a81548173ffffffffffffffffffffffffffffffffffffffff021916908373ffffffffffffffffffffffffffffffffffffffff160217905550565b6000806112b9611197565b90506112ea6002546112dc670de0b6b3a7640000846128af90919063ffffffff16565b61291f90919063ffffffff16565b91505090565b60006112fa6118ca565b9050601260149054906101000a900460ff16600481111561131757fe5b81600481111561132357fe5b1461133157611330612b7b565b5b600061133b611d07565b1115611410576001600481111561134e57fe5b81600481111561135a57fe5b14156113755761137061136b611d07565b612c82565b61140f565b60048081111561138157fe5b81600481111561138d57fe5b14156113a8576113a361139e611d07565b612ebc565b61140e565b600260048111156113b557fe5b8160048111156113c157fe5b14156113dc576113d76113d2611d07565b612fb0565b61140d565b600360048111156113e957fe5b8160048111156113f557fe5b141561140c5761140b611406611d07565b6130a2565b5b5b5b5b5b80601260146101000a81548160ff0219169083600481111561142e57fe5b021790555050565b600c60009054906101000a900473ffffffffffffffffffffffffffffffffffffffff1681565b6000600760009054906101000a900473ffffffffffffffffffffffffffffffffffffffff16905090565b600f60009054906101000a900473ffffffffffffffffffffffffffffffffffffffff1681565b6000600760009054906101000a900473ffffffffffffffffffffffffffffffffffffffff1673ffffffffffffffffffffffffffffffffffffffff166114ef6123f7565b73ffffffffffffffffffffffffffffffffffffffff1614905090565b6000601260009054906101000a900473ffffffffffffffffffffffffffffffffffffffff1673ffffffffffffffffffffffffffffffffffffffff166370a08231600b60009054906101000a900473ffffffffffffffffffffffffffffffffffffffff166040518263ffffffff1660e01b815260040161158a9190614d94565b60206040518083038186803b1580156115a257600080fd5b505afa1580156115b6573d6000803e3d6000fd5b505050506040513d601f19601f820116820180604052506115da91908101906142f0565b905090565b606060048054600181600116156101000203166002900480601f0160208091040260200160405190810160405280929190818152602001828054600181600116156101000203166002900480156116775780601f1061164c57610100808354040283529160200191611677565b820191906000526020600020905b81548152906001019060200180831161165a57829003601f168201915b5050505050905090565b611710600a60009054906101000a900473ffffffffffffffffffffffffffffffffffffffff167fffffffffffffffffffffffffffffffffffffffffffffffffffffffffffffffff600960009054906101000a900473ffffffffffffffffffffffffffffffffffffffff1673ffffffffffffffffffffffffffffffffffffffff1661313e9092919063ffffffff16565b61179f600f60009054906101000a900473ffffffffffffffffffffffffffffffffffffffff167fffffffffffffffffffffffffffffffffffffffffffffffffffffffffffffffff600960009054906101000a900473ffffffffffffffffffffffffffffffffffffffff1673ffffffffffffffffffffffffffffffffffffffff1661313e9092919063ffffffff16565b6118136117aa61232a565b7fffffffffffffffffffffffffffffffffffffffffffffffffffffffffffffffff600960009054906101000a900473ffffffffffffffffffffffffffffffffffffffff1673ffffffffffffffffffffffffffffffffffffffff1661313e9092919063ffffffff16565b6118a2600b60009054906101000a900473ffffffffffffffffffffffffffffffffffffffff167fffffffffffffffffffffffffffffffffffffffffffffffffffffffffffffffff600960009054906101000a900473ffffffffffffffffffffffffffffffffffffffff1673ffffffffffffffffffffffffffffffffffffffff1661313e9092919063ffffffff16565b565b600d60009054906101000a900473ffffffffffffffffffffffffffffffffffffffff1681565b6000806000806000601160009054906101000a900473ffffffffffffffffffffffffffffffffffffffff1673ffffffffffffffffffffffffffffffffffffffff1663d88be3c0600960009054906101000a900473ffffffffffffffffffffffffffffffffffffffff166040518263ffffffff1660e01b815260040161194f9190614d94565b60006040518083038186803b15801561196757600080fd5b505afa15801561197b573d6000803e3d6000fd5b505050506040513d6000823e3d601f19601f820116820180604052506119a4919081019061420f565b9450945094509450506000809050808511156119be578490505b808411156119ca578390505b808311156119d6578290505b808211156119e2578190505b6000809050858214156119f85760029050611a2a565b84821415611a095760049050611a29565b83821415611a1a5760039050611a28565b82821415611a2757600190505b5b5b5b80965050505050505090565b6000611af9611a436123f7565b84611af4856040518060600160405280602581526020016155186025913960016000611a6d6123f7565b73ffffffffffffffffffffffffffffffffffffffff1673ffffffffffffffffffffffffffffffffffffffff16815260200190815260200160002060008a73ffffffffffffffffffffffffffffffffffffffff1673ffffffffffffffffffffffffffffffffffffffff168152602001908152602001600020546128549092919063ffffffff16565b6123ff565b6001905092915050565b600080611b0e61109d565b90506000811115611be857611be5670de0b6b3a7640000611bd7600a60009054906101000a900473ffffffffffffffffffffffffffffffffffffffff1673ffffffffffffffffffffffffffffffffffffffff1663182df0f56040518163ffffffff1660e01b815260040160206040518083038186803b158015611b9057600080fd5b505afa158015611ba4573d6000803e3d6000fd5b505050506040513d601f19601f82011682018060405250611bc891908101906142f0565b846128af90919063ffffffff16565b61291f90919063ffffffff16565b90505b8091505090565b6000611c03611bfc6123f7565b84846125ca565b6001905092915050565b6000600960009054906101000a900473ffffffffffffffffffffffffffffffffffffffff1673ffffffffffffffffffffffffffffffffffffffff166370a08231600d60009054906101000a900473ffffffffffffffffffffffffffffffffffffffff166040518263ffffffff1660e01b8152600401611c8c9190614d94565b60206040518083038186803b158015611ca457600080fd5b505afa158015611cb8573d6000803e3d6000fd5b505050506040513d601f19601f82011682018060405250611cdc91908101906142f0565b905090565b601260009054906101000a900473ffffffffffffffffffffffffffffffffffffffff1681565b6000600960009054906101000a900473ffffffffffffffffffffffffffffffffffffffff1673ffffffffffffffffffffffffffffffffffffffff166370a08231306040518263ffffffff1660e01b8152600401611d649190614d94565b60206040518083038186803b158015611d7c57600080fd5b505afa158015611d90573d6000803e3d6000fd5b505050506040513d601f19601f82011682018060405250611db491908101906142f0565b905090565b60016006600082825401925050819055506000600654905060008211611e14576040517f08c379a0000000000000000000000000000000000000000000000000000000008152600401611e0b906150de565b60405180910390fd5b611e1c611197565b600881905550611e71333084600960009054906101000a900473ffffffffffffffffffffffffffffffffffffffff1673ffffffffffffffffffffffffffffffffffffffff166132b5909392919063ffffffff16565b600080905060006008541415611e905782905082600881905550611ebc565b611eb9600854611eab600254866128af90919063ffffffff16565b61291f90919063ffffffff16565b90505b611ec4611197565b600881905550611ed43382613357565b506006548114611f19576040517f08c379a0000000000000000000000000000000000000000000000000000000008152600401611f109061513e565b60405180910390fd5b5050565b6000600e60009054906101000a900473ffffffffffffffffffffffffffffffffffffffff1673ffffffffffffffffffffffffffffffffffffffff166370a08231306040518263ffffffff1660e01b8152600401611f7a9190614d94565b60206040518083038186803b158015611f9257600080fd5b505afa158015611fa6573d6000803e3d6000fd5b505050506040513d601f19601f82011682018060405250611fca91908101906142f0565b905090565b6000600960009054906101000a900473ffffffffffffffffffffffffffffffffffffffff1673ffffffffffffffffffffffffffffffffffffffff166370a08231600f60009054906101000a900473ffffffffffffffffffffffffffffffffffffffff166040518263ffffffff1660e01b815260040161204e9190614d94565b60206040518083038186803b15801561206657600080fd5b505afa15801561207a573d6000803e3d6000fd5b505050506040513d601f19601f8201168201806040525061209e91908101906142f0565b905090565b60105481565b6000600160008473ffffffffffffffffffffffffffffffffffffffff1673ffffffffffffffffffffffffffffffffffffffff16815260200190815260200160002060008373ffffffffffffffffffffffffffffffffffffffff1673ffffffffffffffffffffffffffffffffffffffff16815260200190815260200160002054905092915050565b600061213a610a09565b905090565b6121476114ac565b612186576040517f08c379a000000000000000000000000000000000000000000000000000000000815260040161217d9061501e565b60405180910390fd5b61218f816134df565b50565b60008061219d610951565b9050600081111561225657600b60009054906101000a900473ffffffffffffffffffffffffffffffffffffffff1673ffffffffffffffffffffffffffffffffffffffff166306b3efd6306040518263ffffffff1660e01b81526004016122039190614d94565b60206040518083038186803b15801561221b57600080fd5b505afa15801561222f573d6000803e3d6000fd5b505050506040513d601f19601f8201168201806040525061225391908101906142f0565b90505b8091505090565b600a60009054906101000a900473ffffffffffffffffffffffffffffffffffffffff1681565b6000600c60009054906101000a900473ffffffffffffffffffffffffffffffffffffffff1673ffffffffffffffffffffffffffffffffffffffff16630261bf8b6040518163ffffffff1660e01b815260040160206040518083038186803b1580156122ed57600080fd5b505afa158015612301573d6000803e3d6000fd5b505050506040513d601f19601f8201168201806040525061232591908101906140f6565b905090565b6000600c60009054906101000a900473ffffffffffffffffffffffffffffffffffffffff1673ffffffffffffffffffffffffffffffffffffffff1663ed6ff7606040518163ffffffff1660e01b815260040160206040518083038186803b15801561239457600080fd5b505afa1580156123a8573d6000803e3d6000fd5b505050506040513d601f19601f820116820180604052506123cc91908101906140f6565b905090565b600960009054906101000a900473ffffffffffffffffffffffffffffffffffffffff1681565b600033905090565b600073ffffffffffffffffffffffffffffffffffffffff168373ffffffffffffffffffffffffffffffffffffffff16141561246f576040517f08c379a0000000000000000000000000000000000000000000000000000000008152600401612466906150be565b60405180910390fd5b600073ffffffffffffffffffffffffffffffffffffffff168273ffffffffffffffffffffffffffffffffffffffff1614156124df576040517f08c379a00000000000000000000000000000000000000000000000000000000081526004016124d690614f5e565b60405180910390fd5b80600160008573ffffffffffffffffffffffffffffffffffffffff1673ffffffffffffffffffffffffffffffffffffffff16815260200190815260200160002060008473ffffffffffffffffffffffffffffffffffffffff1673ffffffffffffffffffffffffffffffffffffffff168152602001908152602001600020819055508173ffffffffffffffffffffffffffffffffffffffff168373ffffffffffffffffffffffffffffffffffffffff167f8c5be1e5ebec7d5bd14f71427d1e84f3dd0314c0f7b2291e5b200ac8c7c3b925836040516125bd91906151e7565b60405180910390a3505050565b600073ffffffffffffffffffffffffffffffffffffffff168373ffffffffffffffffffffffffffffffffffffffff16141561263a576040517f08c379a00000000000000000000000000000000000000000000000000000000081526004016126319061507e565b60405180910390fd5b600073ffffffffffffffffffffffffffffffffffffffff168273ffffffffffffffffffffffffffffffffffffffff1614156126aa576040517f08c379a00000000000000000000000000000000000000000000000000000000081526004016126a190614efe565b60405180910390fd5b612715816040518060600160405280602681526020016154ca602691396000808773ffffffffffffffffffffffffffffffffffffffff1673ffffffffffffffffffffffffffffffffffffffff168152602001908152602001600020546128549092919063ffffffff16565b6000808573ffffffffffffffffffffffffffffffffffffffff1673ffffffffffffffffffffffffffffffffffffffff168152602001908152602001600020819055506127a8816000808573ffffffffffffffffffffffffffffffffffffffff1673ffffffffffffffffffffffffffffffffffffffff16815260200190815260200160002054612b2690919063ffffffff16565b6000808473ffffffffffffffffffffffffffffffffffffffff1673ffffffffffffffffffffffffffffffffffffffff168152602001908152602001600020819055508173ffffffffffffffffffffffffffffffffffffffff168373ffffffffffffffffffffffffffffffffffffffff167fddf252ad1be2c89b69c2b068fc378daa952ba7f163c4a11628f55a4df523b3ef8360405161284791906151e7565b60405180910390a3505050565b600083831115829061289c576040517f08c379a00000000000000000000000000000000000000000000000000000000081526004016128939190614edc565b60405180910390fd5b5060008385039050809150509392505050565b6000808314156128c25760009050612919565b60008284029050828482816128d357fe5b0414612914576040517f08c379a000000000000000000000000000000000000000000000000000000000815260040161290b90614fde565b60405180910390fd5b809150505b92915050565b600061296183836040518060400160405280601a81526020017f536166654d6174683a206469766973696f6e206279207a65726f00000000000081525061360f565b905092915050565b60006129ab83836040518060400160405280601e81526020017f536166654d6174683a207375627472616374696f6e206f766572666c6f770000815250612854565b905092915050565b6000806129be61109d565b90506000811115612a27576129e460016129d6611b03565b61296990919063ffffffff16565b831115612a1357612a0e612a0960016129fb611b03565b61296990919063ffffffff16565b613670565b612a26565b612a1c83613670565b6001915050612a82565b5b612a2f610f61565b90506000811115612a7257612a42611fcf565b831115612a5e57612a59612a54611fcf565b613716565b612a71565b612a6783613716565b6001915050612a82565b5b612a7a610951565b905060019150505b919050565b612b21838473ffffffffffffffffffffffffffffffffffffffff1663a9059cbb905060e01b8484604051602401612abf929190614e0f565b604051602081830303815290604052907bffffffffffffffffffffffffffffffffffffffffffffffffffffffff19166020820180517bffffffffffffffffffffffffffffffffffffffffffffffffffffffff8381831617835250505050613950565b505050565b600080828401905083811015612b71576040517f08c379a0000000000000000000000000000000000000000000000000000000008152600401612b6890614f9e565b60405180910390fd5b8091505092915050565b6000612b8561109d565b90506000811115612bb457612bb3612bae6001612ba0611b03565b61296990919063ffffffff16565b613670565b5b612bbc610f61565b90506000811115612beb57612bcf611fcf565b811115612be157612bde611fcf565b90505b612bea81613716565b5b612bf3610951565b90506000811115612c4857612c196001612c0b61150b565b61296990919063ffffffff16565b811115612c3e57612c3b6001612c2d61150b565b61296990919063ffffffff16565b90505b612c4781613ac2565b5b612c50611f1d565b90506000811115612c7f57612c63611c0d565b811115612c7557612c72611c0d565b90505b612c7e81613b68565b5b50565b60606001604051908082528060200260200182016040528015612cbf57816020015b612cac613e45565b815260200190600190039081612ca45790505b50905060405180604001604052803073ffffffffffffffffffffffffffffffffffffffff168152602001600081525081600081518110612cfb57fe5b6020026020010181905250612d0e613e75565b6040518060800160405280600115158152602001600080811115612d2e57fe5b8152602001600080811115612d3f57fe5b8152602001848152509050612d52613eb3565b600081600001906001811115612d6457fe5b90816001811115612d7157fe5b815250506000816020018181525050818160400181905250601054816060018181525050308160a0019073ffffffffffffffffffffffffffffffffffffffff16908173ffffffffffffffffffffffffffffffffffffffff168152505060606001604051908082528060200260200182016040528015612e0a57816020015b612df7613f1f565b815260200190600190039081612def5790505b5090508181600081518110612e1b57fe5b6020026020010181905250600f60009054906101000a900473ffffffffffffffffffffffffffffffffffffffff1673ffffffffffffffffffffffffffffffffffffffff1663a67a6a4585836040518363ffffffff1660e01b8152600401612e83929190614e6f565b600060405180830381600087803b158015612e9d57600080fd5b505af1158015612eb1573d6000803e3d6000fd5b505050505050505050565b6000600b60009054906101000a900473ffffffffffffffffffffffffffffffffffffffff1673ffffffffffffffffffffffffffffffffffffffff166340c10f1930846040518363ffffffff1660e01b8152600401612f1b929190614e0f565b602060405180830381600087803b158015612f3557600080fd5b505af1158015612f49573d6000803e3d6000fd5b505050506040513d601f19601f82011682018060405250612f6d91908101906142f0565b11612fad576040517f08c379a0000000000000000000000000000000000000000000000000000000008152600401612fa4906150fe565b60405180910390fd5b50565b6000600a60009054906101000a900473ffffffffffffffffffffffffffffffffffffffff1673ffffffffffffffffffffffffffffffffffffffff1663a0712d68836040518263ffffffff1660e01b815260040161300d91906151e7565b602060405180830381600087803b15801561302757600080fd5b505af115801561303b573d6000803e3d6000fd5b505050506040513d601f19601f8201168201806040525061305f91908101906142f0565b1461309f576040517f08c379a000000000000000000000000000000000000000000000000000000000815260040161309690614f7e565b60405180910390fd5b50565b6130aa612283565b73ffffffffffffffffffffffffffffffffffffffff1663d2d0e066600960009054906101000a900473ffffffffffffffffffffffffffffffffffffffff168360006040518463ffffffff1660e01b815260040161310993929190614e38565b600060405180830381600087803b15801561312357600080fd5b505af1158015613137573d6000803e3d6000fd5b5050505050565b60008114806131d7575060008373ffffffffffffffffffffffffffffffffffffffff1663dd62ed3e30856040518363ffffffff1660e01b8152600401613185929190614daf565b60206040518083038186803b15801561319d57600080fd5b505afa1580156131b1573d6000803e3d6000fd5b505050506040513d601f19601f820116820180604052506131d591908101906142f0565b145b613216576040517f08c379a000000000000000000000000000000000000000000000000000000000815260040161320d9061515e565b60405180910390fd5b6132b0838473ffffffffffffffffffffffffffffffffffffffff1663095ea7b3905060e01b848460405160240161324e929190614e0f565b604051602081830303815290604052907bffffffffffffffffffffffffffffffffffffffffffffffffffffffff19166020820180517bffffffffffffffffffffffffffffffffffffffffffffffffffffffff8381831617835250505050613950565b505050565b613351848573ffffffffffffffffffffffffffffffffffffffff166323b872dd905060e01b8585856040516024016132ef93929190614dd8565b604051602081830303815290604052907bffffffffffffffffffffffffffffffffffffffffffffffffffffffff19166020820180517bffffffffffffffffffffffffffffffffffffffffffffffffffffffff8381831617835250505050613950565b50505050565b600073ffffffffffffffffffffffffffffffffffffffff168273ffffffffffffffffffffffffffffffffffffffff1614156133c7576040517f08c379a00000000000000000000000000000000000000000000000000000000081526004016133be9061519e565b60405180910390fd5b6133dc81600254612b2690919063ffffffff16565b600281905550613433816000808573ffffffffffffffffffffffffffffffffffffffff1673ffffffffffffffffffffffffffffffffffffffff16815260200190815260200160002054612b2690919063ffffffff16565b6000808473ffffffffffffffffffffffffffffffffffffffff1673ffffffffffffffffffffffffffffffffffffffff168152602001908152602001600020819055508173ffffffffffffffffffffffffffffffffffffffff16600073ffffffffffffffffffffffffffffffffffffffff167fddf252ad1be2c89b69c2b068fc378daa952ba7f163c4a11628f55a4df523b3ef836040516134d391906151e7565b60405180910390a35050565b600073ffffffffffffffffffffffffffffffffffffffff168173ffffffffffffffffffffffffffffffffffffffff16141561354f576040517f08c379a000000000000000000000000000000000000000000000000000000000815260040161354690614f3e565b60405180910390fd5b8073ffffffffffffffffffffffffffffffffffffffff16600760009054906101000a900473ffffffffffffffffffffffffffffffffffffffff1673ffffffffffffffffffffffffffffffffffffffff167f8be0079c531659141344cd1fd0a4f28419497f9722a3daafe3b4186f6b6457e060405160405180910390a380600760006101000a81548173ffffffffffffffffffffffffffffffffffffffff021916908373ffffffffffffffffffffffffffffffffffffffff16021790555050565b60008083118290613656576040517f08c379a000000000000000000000000000000000000000000000000000000000815260040161364d9190614edc565b60405180910390fd5b50600083858161366257fe5b049050809150509392505050565b600061367a61109d565b90506000613686611b03565b9050828110156136cb576040517f08c379a00000000000000000000000000000000000000000000000000000000081526004016136c29061509e565b60405180910390fd5b600061370560016136f7846136e988886128af90919063ffffffff16565b61291f90919063ffffffff16565b612b2690919063ffffffff16565b905061371081613bf8565b50505050565b6060600160405190808252806020026020018201604052801561375357816020015b613740613e45565b8152602001906001900390816137385790505b50905060405180604001604052803073ffffffffffffffffffffffffffffffffffffffff16815260200160008152508160008151811061378f57fe5b60200260200101819052506137a2613e75565b60405180608001604052806000151581526020016000808111156137c257fe5b81526020016000808111156137d357fe5b81526020018481525090506137e6613eb3565b6001816000019060018111156137f857fe5b9081600181111561380557fe5b815250506000816020018181525050818160400181905250601054816060018181525050308160a0019073ffffffffffffffffffffffffffffffffffffffff16908173ffffffffffffffffffffffffffffffffffffffff16815250506060600160405190808252806020026020018201604052801561389e57816020015b61388b613f1f565b8152602001906001900390816138835790505b50905081816000815181106138af57fe5b6020026020010181905250600f60009054906101000a900473ffffffffffffffffffffffffffffffffffffffff1673ffffffffffffffffffffffffffffffffffffffff1663a67a6a4585836040518363ffffffff1660e01b8152600401613917929190614e6f565b600060405180830381600087803b15801561393157600080fd5b505af1158015613945573d6000803e3d6000fd5b505050505050505050565b61396f8273ffffffffffffffffffffffffffffffffffffffff16613cea565b6139ae576040517f08c379a00000000000000000000000000000000000000000000000000000000081526004016139a59061517e565b60405180910390fd5b600060608373ffffffffffffffffffffffffffffffffffffffff16836040516139d79190614d7d565b6000604051808303816000865af19150503d8060008114613a14576040519150601f19603f3d011682016040523d82523d6000602084013e613a19565b606091505b509150915081613a5e576040517f08c379a0000000000000000000000000000000000000000000000000000000008152600401613a5590614fbe565b60405180910390fd5b600081511115613abc5780806020019051613a7c91908101906141e6565b613abb576040517f08c379a0000000000000000000000000000000000000000000000000000000008152600401613ab29061511e565b60405180910390fd5b5b50505050565b6000613acc610951565b90506000613ad8612192565b905082811015613b1d576040517f08c379a0000000000000000000000000000000000000000000000000000000008152600401613b149061509e565b60405180910390fd5b6000613b576001613b4984613b3b88886128af90919063ffffffff16565b61291f90919063ffffffff16565b612b2690919063ffffffff16565b9050613b6281613d35565b50505050565b600e60009054906101000a900473ffffffffffffffffffffffffffffffffffffffff1673ffffffffffffffffffffffffffffffffffffffff1663db006a75826040518263ffffffff1660e01b8152600401613bc391906151e7565b600060405180830381600087803b158015613bdd57600080fd5b505af1158015613bf1573d6000803e3d6000fd5b5050505050565b6000600a60009054906101000a900473ffffffffffffffffffffffffffffffffffffffff1673ffffffffffffffffffffffffffffffffffffffff1663db006a75836040518263ffffffff1660e01b8152600401613c5591906151e7565b602060405180830381600087803b158015613c6f57600080fd5b505af1158015613c83573d6000803e3d6000fd5b505050506040513d601f19601f82011682018060405250613ca791908101906142f0565b14613ce7576040517f08c379a0000000000000000000000000000000000000000000000000000000008152600401613cde90614f1e565b60405180910390fd5b50565b60008060007fc5d2460186f7233c927e7db2dcc703c0e500b653ca82273b7bfad8045d85a47060001b9050833f91506000801b8214158015613d2c5750808214155b92505050919050565b6000600b60009054906101000a900473ffffffffffffffffffffffffffffffffffffffff1673ffffffffffffffffffffffffffffffffffffffff16639dc29fac30846040518363ffffffff1660e01b8152600401613d94929190614e0f565b602060405180830381600087803b158015613dae57600080fd5b505af1158015613dc2573d6000803e3d6000fd5b505050506040513d601f19601f82011682018060405250613de691908101906142f0565b11613e26576040517f08c379a0000000000000000000000000000000000000000000000000000000008152600401613e1d90614ffe565b60405180910390fd5b50565b6040518060400160405280600015158152602001600081525090565b6040518060400160405280600073ffffffffffffffffffffffffffffffffffffffff168152602001600081525090565b6040518060800160405280600015158152602001600080811115613e9557fe5b8152602001600080811115613ea657fe5b8152602001600081525090565b60405180610160016040528060006001811115613ecc57fe5b815260200160008152602001613ee0613f8b565b81526020016000815260200160008152602001600073ffffffffffffffffffffffffffffffffffffffff16815260200160008152602001606081525090565b60405180610160016040528060006001811115613f3857fe5b815260200160008152602001613f4c613f8b565b81526020016000815260200160008152602001600073ffffffffffffffffffffffffffffffffffffffff16815260200160008152602001606081525090565b6040518060800160405280600015158152602001600080811115613fab57fe5b8152602001600080811115613fbc57fe5b8152602001600081525090565b6000613fd582356153e3565b905092915050565b6000613fe982516153e3565b905092915050565b6000613ffd82516153f5565b905092915050565b600082601f83011261401657600080fd5b81516140296140248261524a565b61521d565b9150808252602083016020830185838301111561404557600080fd5b614050838284615485565b50505092915050565b60006040828403121561406b57600080fd5b614075604061521d565b9050600061408584828501613ff1565b6000830152506020614099848285016140b9565b60208301525092915050565b60006140b18235615421565b905092915050565b60006140c58251615421565b905092915050565b6000602082840312156140df57600080fd5b60006140ed84828501613fc9565b91505092915050565b60006020828403121561410857600080fd5b600061411684828501613fdd565b91505092915050565b6000806040838503121561413257600080fd5b600061414085828601613fc9565b925050602061415185828601613fc9565b9150509250929050565b60008060006060848603121561417057600080fd5b600061417e86828701613fc9565b935050602061418f86828701613fc9565b92505060406141a0868287016140a5565b9150509250925092565b600080604083850312156141bd57600080fd5b60006141cb85828601613fc9565b92505060206141dc858286016140a5565b9150509250929050565b6000602082840312156141f857600080fd5b600061420684828501613ff1565b91505092915050565b600080600080600060a0868803121561422757600080fd5b600086015167ffffffffffffffff81111561424157600080fd5b61424d88828901614005565b955050602061425e888289016140b9565b945050604061426f888289016140b9565b9350506060614280888289016140b9565b9250506080614291888289016140b9565b9150509295509295909350565b6000604082840312156142b057600080fd5b60006142be84828501614059565b91505092915050565b6000602082840312156142d957600080fd5b60006142e7848285016140a5565b91505092915050565b60006020828403121561430257600080fd5b6000614310848285016140b9565b91505092915050565b60006143258383614bea565b905092915050565b60006143398383614cf2565b60408301905092915050565b61434e81615330565b82525050565b61435d81615330565b82525050565b600061436e82615290565b61437881856152e1565b93508360208202850161438a85615276565b60005b848110156143c35783830388526143a5838351614319565b92506143b0826152c7565b915060208801975060018101905061438d565b508196508694505050505092915050565b60006143df8261529b565b6143e981856152f2565b93506143f483615283565b60005b828110156144225761440a86835161432d565b9550614415826152d4565b91506001810190506143f7565b50849250505092915050565b61443781615342565b82525050565b61444681615342565b82525050565b6000614457826152b1565b6144618185615314565b9350614471818560208601615485565b80840191505092915050565b6000614488826152a6565b6144928185615303565b93506144a2818560208601615485565b6144ab816154b8565b840191505092915050565b6144bf8161542b565b82525050565b6144ce8161543d565b82525050565b6144dd8161544f565b82525050565b6144ec81615461565b82525050565b6144fb81615473565b82525050565b600061450c826152bc565b614516818561531f565b9350614526818560208601615485565b61452f816154b8565b840191505092915050565b600061454760238361531f565b91507f45524332303a207472616e7366657220746f20746865207a65726f206164647260008301527f65737300000000000000000000000000000000000000000000000000000000006020830152604082019050919050565b60006145ad60198361531f565b91507f434f4d504f554e443a207769746864726177206661696c6564000000000000006000830152602082019050919050565b60006145ed60268361531f565b91507f4f776e61626c653a206e6577206f776e657220697320746865207a65726f206160008301527f64647265737300000000000000000000000000000000000000000000000000006020830152604082019050919050565b600061465360228361531f565b91507f45524332303a20617070726f766520746f20746865207a65726f20616464726560008301527f73730000000000000000000000000000000000000000000000000000000000006020830152604082019050919050565b60006146b960178361531f565b91507f434f4d504f554e443a20737570706c79206661696c65640000000000000000006000830152602082019050919050565b60006146f9601b8361531f565b91507f536166654d6174683a206164646974696f6e206f766572666c6f7700000000006000830152602082019050919050565b600061473960208361531f565b91507f5361666545524332303a206c6f772d6c6576656c2063616c6c206661696c65646000830152602082019050919050565b600061477960218361531f565b91507f536166654d6174683a206d756c7469706c69636174696f6e206f766572666c6f60008301527f77000000000000000000000000000000000000000000000000000000000000006020830152604082019050919050565b60006147df60188361531f565b91507f46554c4352554d3a207769746864726177206661696c656400000000000000006000830152602082019050919050565b600061481f60208361531f565b91507f4f776e61626c653a2063616c6c6572206973206e6f7420746865206f776e65726000830152602082019050919050565b600061485f60148361531f565b91507f696e73756666696369656e742062616c616e63650000000000000000000000006000830152602082019050919050565b600061489f601f8361531f565b91507f7769746864726177206d7573742062652067726561746572207468616e2030006000830152602082019050919050565b60006148df60258361531f565b91507f45524332303a207472616e736665722066726f6d20746865207a65726f20616460008301527f64726573730000000000000000000000000000000000000000000000000000006020830152604082019050919050565b600061494560128361531f565b91507f696e73756666696369656e742066756e647300000000000000000000000000006000830152602082019050919050565b600061498560248361531f565b91507f45524332303a20617070726f76652066726f6d20746865207a65726f2061646460008301527f72657373000000000000000000000000000000000000000000000000000000006020830152604082019050919050565b60006149eb601e8361531f565b91507f6465706f736974206d7573742062652067726561746572207468616e203000006000830152602082019050919050565b6000614a2b60168361531f565b91507f46554c4352554d3a20737570706c79206661696c6564000000000000000000006000830152602082019050919050565b6000614a6b602a8361531f565b91507f5361666545524332303a204552433230206f7065726174696f6e20646964206e60008301527f6f742073756363656564000000000000000000000000000000000000000000006020830152604082019050919050565b6000614ad1601f8361531f565b91507f5265656e7472616e637947756172643a207265656e7472616e742063616c6c006000830152602082019050919050565b6000614b1160368361531f565b91507f5361666545524332303a20617070726f76652066726f6d206e6f6e2d7a65726f60008301527f20746f206e6f6e2d7a65726f20616c6c6f77616e6365000000000000000000006020830152604082019050919050565b6000614b77601f8361531f565b91507f5361666545524332303a2063616c6c20746f206e6f6e2d636f6e7472616374006000830152602082019050919050565b6000614bb7601f8361531f565b91507f45524332303a206d696e7420746f20746865207a65726f2061646472657373006000830152602082019050919050565b600061016083016000830151614c0360008601826144b6565b506020830151614c166020860182614d50565b506040830151614c296040860182614c9d565b506060830151614c3c60c0860182614d50565b506080830151614c4f60e0860182614d50565b5060a0830151614c63610100860182614345565b5060c0830151614c77610120860182614d50565b5060e0830151848203610140860152614c90828261447d565b9150508091505092915050565b608082016000820151614cb3600085018261442e565b506020820151614cc660208501826144c5565b506040820151614cd960408501826144d4565b506060820151614cec6060850182614d50565b50505050565b604082016000820151614d086000850182614345565b506020820151614d1b6020850182614d50565b50505050565b604082016000820151614d376000850182614345565b506020820151614d4a6020850182614d50565b50505050565b614d59816153cc565b82525050565b614d68816153cc565b82525050565b614d77816153d6565b82525050565b6000614d89828461444c565b915081905092915050565b6000602082019050614da96000830184614354565b92915050565b6000604082019050614dc46000830185614354565b614dd16020830184614354565b9392505050565b6000606082019050614ded6000830186614354565b614dfa6020830185614354565b614e076040830184614d5f565b949350505050565b6000604082019050614e246000830185614354565b614e316020830184614d5f565b9392505050565b6000606082019050614e4d6000830186614354565b614e5a6020830185614d5f565b614e6760408301846144f2565b949350505050565b60006040820190508181036000830152614e8981856143d4565b90508181036020830152614e9d8184614363565b90509392505050565b6000602082019050614ebb600083018461443d565b92915050565b6000602082019050614ed660008301846144e3565b92915050565b60006020820190508181036000830152614ef68184614501565b905092915050565b60006020820190508181036000830152614f178161453a565b9050919050565b60006020820190508181036000830152614f37816145a0565b9050919050565b60006020820190508181036000830152614f57816145e0565b9050919050565b60006020820190508181036000830152614f7781614646565b9050919050565b60006020820190508181036000830152614f97816146ac565b9050919050565b60006020820190508181036000830152614fb7816146ec565b9050919050565b60006020820190508181036000830152614fd78161472c565b9050919050565b60006020820190508181036000830152614ff78161476c565b9050919050565b60006020820190508181036000830152615017816147d2565b9050919050565b6000602082019050818103600083015261503781614812565b9050919050565b6000602082019050818103600083015261505781614852565b9050919050565b6000602082019050818103600083015261507781614892565b9050919050565b60006020820190508181036000830152615097816148d2565b9050919050565b600060208201905081810360008301526150b781614938565b9050919050565b600060208201905081810360008301526150d781614978565b9050919050565b600060208201905081810360008301526150f7816149de565b9050919050565b6000602082019050818103600083015261511781614a1e565b9050919050565b6000602082019050818103600083015261513781614a5e565b9050919050565b6000602082019050818103600083015261515781614ac4565b9050919050565b6000602082019050818103600083015261517781614b04565b9050919050565b6000602082019050818103600083015261519781614b6a565b9050919050565b600060208201905081810360008301526151b781614baa565b9050919050565b60006060820190506151d36000830185614d21565b6151e06040830184614d5f565b9392505050565b60006020820190506151fc6000830184614d5f565b92915050565b60006020820190506152176000830184614d6e565b92915050565b6000604051905081810181811067ffffffffffffffff8211171561524057600080fd5b8060405250919050565b600067ffffffffffffffff82111561526157600080fd5b601f19601f8301169050602081019050919050565b6000602082019050919050565b6000602082019050919050565b600081519050919050565b600081519050919050565b600081519050919050565b600081519050919050565b600081519050919050565b6000602082019050919050565b6000602082019050919050565b600082825260208201905092915050565b600082825260208201905092915050565b600082825260208201905092915050565b600081905092915050565b600082825260208201905092915050565b600061533b826153ac565b9050919050565b60008115159050919050565b60006002821061535a57fe5b819050919050565b60006001821061536e57fe5b819050919050565b60006001821061538257fe5b819050919050565b60006005821061539657fe5b819050919050565b600061ffff82169050919050565b600073ffffffffffffffffffffffffffffffffffffffff82169050919050565b6000819050919050565b600060ff82169050919050565b60006153ee82615401565b9050919050565b60008115159050919050565b600073ffffffffffffffffffffffffffffffffffffffff82169050919050565b6000819050919050565b60006154368261534e565b9050919050565b600061544882615362565b9050919050565b600061545a82615376565b9050919050565b600061546c8261538a565b9050919050565b600061547e8261539e565b9050919050565b60005b838110156154a3578082015181840152602081019050615488565b838111156154b2576000848401525b50505050565b6000601f19601f830116905091905056fe45524332303a207472616e7366657220616d6f756e7420657863656564732062616c616e636545524332303a207472616e7366657220616d6f756e74206578636565647320616c6c6f77616e636545524332303a2064656372656173656420616c6c6f77616e63652062656c6f77207a65726fa265627a7a72305820a46bb45051c02eba76e1f3a292cf40e0317936aaa0db7c2f0e79e9a7fdbf893d6c6578706572696d656e74616cf50037",
  "linkReferences": {},
  "deployedLinkReferences": {}
}