{
  "_format": "hh-sol-artifact-1",
  "contractName": "UniZap",
  "sourceName": "contracts/test/uniswapV2/UniZap.sol",
  "abi": [
    {
      "inputs": [
        {
          "internalType": "contract IUniswapV2Factory",
          "name": "factory_",
          "type": "address"
        },
        {
          "internalType": "contract IUniswapV2Router01",
          "name": "router_",
          "type": "address"
        },
        {
          "internalType": "contract IWETH",
          "name": "weth_",
          "type": "address"
        }
      ],
      "stateMutability": "nonpayable",
      "type": "constructor"
    },
    {
      "inputs": [
        {
          "internalType": "uint256",
          "name": "reserveIn",
          "type": "uint256"
        },
        {
          "internalType": "uint256",
          "name": "userIn",
          "type": "uint256"
        }
      ],
      "name": "calculateSwapInAmount",
      "outputs": [
        {
          "internalType": "uint256",
          "name": "",
          "type": "uint256"
        }
      ],
      "stateMutability": "pure",
      "type": "function"
    },
    {
      "inputs": [],
      "name": "factory",
      "outputs": [
        {
          "internalType": "contract IUniswapV2Factory",
          "name": "",
          "type": "address"
        }
      ],
      "stateMutability": "view",
      "type": "function"
    },
    {
      "inputs": [
        {
          "internalType": "address",
          "name": "token",
          "type": "address"
        },
        {
          "internalType": "uint256",
          "name": "liquidity",
          "type": "uint256"
        },
        {
          "internalType": "uint256",
          "name": "minDesiredETH",
          "type": "uint256"
        },
        {
          "internalType": "address",
          "name": "to",
          "type": "address"
        },
        {
          "internalType": "uint256",
          "name": "deadline",
          "type": "uint256"
        }
      ],
      "name": "removeLiquidityAndSwapToETH",
      "outputs": [
        {
          "internalType": "uint256",
          "name": "amountETHOut",
          "type": "uint256"
        }
      ],
      "stateMutability": "nonpayable",
      "type": "function"
    },
    {
      "inputs": [
        {
          "internalType": "address",
          "name": "undesiredToken",
          "type": "address"
        },
        {
          "internalType": "address",
          "name": "desiredToken",
          "type": "address"
        },
        {
          "internalType": "uint256",
          "name": "liquidity",
          "type": "uint256"
        },
        {
          "internalType": "uint256",
          "name": "minDesiredTokenOut",
          "type": "uint256"
        },
        {
          "internalType": "address",
          "name": "to",
          "type": "address"
        },
        {
          "internalType": "uint256",
          "name": "deadline",
          "type": "uint256"
        }
      ],
      "name": "removeLiquidityAndSwapToToken",
      "outputs": [
        {
          "internalType": "uint256",
          "name": "amountDesiredTokenOut",
          "type": "uint256"
        }
      ],
      "stateMutability": "nonpayable",
      "type": "function"
    },
    {
      "inputs": [],
      "name": "router",
      "outputs": [
        {
          "internalType": "contract IUniswapV2Router01",
          "name": "",
          "type": "address"
        }
      ],
      "stateMutability": "view",
      "type": "function"
    },
    {
      "inputs": [
        {
          "internalType": "address",
          "name": "token",
          "type": "address"
        },
        {
          "internalType": "uint256",
          "name": "minTokenIn",
          "type": "uint256"
        },
        {
          "internalType": "address",
          "name": "to",
          "type": "address"
        },
        {
          "internalType": "uint256",
          "name": "deadline",
          "type": "uint256"
        }
      ],
      "name": "swapExactETHAndAddLiquidity",
      "outputs": [
        {
          "internalType": "uint256",
          "name": "amountETHIn",
          "type": "uint256"
        },
        {
          "internalType": "uint256",
          "name": "amountTokenIn",
          "type": "uint256"
        },
        {
          "internalType": "uint256",
          "name": "liquidity",
          "type": "uint256"
        }
      ],
      "stateMutability": "payable",
      "type": "function"
    },
    {
      "inputs": [
        {
          "internalType": "address",
          "name": "tokenIn",
          "type": "address"
        },
        {
          "internalType": "address",
          "name": "otherToken",
          "type": "address"
        },
        {
          "internalType": "uint256",
          "name": "amountIn",
          "type": "uint256"
        },
        {
          "internalType": "uint256",
          "name": "minOtherTokenIn",
          "type": "uint256"
        },
        {
          "internalType": "address",
          "name": "to",
          "type": "address"
        },
        {
          "internalType": "uint256",
          "name": "deadline",
          "type": "uint256"
        }
      ],
      "name": "swapExactTokensAndAddLiquidity",
      "outputs": [
        {
          "internalType": "uint256",
          "name": "amountTokenIn",
          "type": "uint256"
        },
        {
          "internalType": "uint256",
          "name": "amountTokenOther",
          "type": "uint256"
        },
        {
          "internalType": "uint256",
          "name": "liquidity",
          "type": "uint256"
        }
      ],
      "stateMutability": "nonpayable",
      "type": "function"
    },
    {
      "inputs": [],
      "name": "weth",
      "outputs": [
        {
          "internalType": "contract IWETH",
          "name": "",
          "type": "address"
        }
      ],
      "stateMutability": "view",
      "type": "function"
    },
    {
      "stateMutability": "payable",
      "type": "receive"
    }
  ],
  "bytecode": "0x60806040523480156200001157600080fd5b5060405162002ccb38038062002ccb833981810160405281019062000037919062000147565b826000806101000a81548173ffffffffffffffffffffffffffffffffffffffff021916908373ffffffffffffffffffffffffffffffffffffffff16021790555081600160006101000a81548173ffffffffffffffffffffffffffffffffffffffff021916908373ffffffffffffffffffffffffffffffffffffffff16021790555080600260006101000a81548173ffffffffffffffffffffffffffffffffffffffff021916908373ffffffffffffffffffffffffffffffffffffffff1602179055505050506200025b565b60008151905062000113816200020d565b92915050565b6000815190506200012a8162000227565b92915050565b600081519050620001418162000241565b92915050565b6000806000606084860312156200015d57600080fd5b60006200016d8682870162000102565b9350506020620001808682870162000119565b9250506040620001938682870162000130565b9150509250925092565b6000620001aa82620001ed565b9050919050565b6000620001be826200019d565b9050919050565b6000620001d2826200019d565b9050919050565b6000620001e6826200019d565b9050919050565b600073ffffffffffffffffffffffffffffffffffffffff82169050919050565b6200021881620001b1565b81146200022457600080fd5b50565b6200023281620001c5565b81146200023e57600080fd5b50565b6200024c81620001d9565b81146200025857600080fd5b50565b612a60806200026b6000396000f3fe60806040526004361061007f5760003560e01c806399d6dca21161004e57806399d6dca2146101ff578063c45a01551461023c578063f887ea4014610267578063fcddbf921461029257610116565b806304a367221461011b578063156521da1461015a5780633fc8cef3146101975780638d7e41a8146101c257610116565b3661011657600260009054906101000a900473ffffffffffffffffffffffffffffffffffffffff1673ffffffffffffffffffffffffffffffffffffffff163373ffffffffffffffffffffffffffffffffffffffff1614610114576040517f08c379a000000000000000000000000000000000000000000000000000000000815260040161010b906121e0565b60405180910390fd5b005b600080fd5b34801561012757600080fd5b50610142600480360381019061013d9190611a03565b6102c4565b60405161015193929190612335565b60405180910390f35b34801561016657600080fd5b50610181600480360381019061017c9190611a03565b6102ea565b60405161018e91906122c0565b60405180910390f35b3480156101a357600080fd5b506101ac610307565b6040516101b991906121c5565b60405180910390f35b3480156101ce57600080fd5b506101e960048036038101906101e49190611c71565b61032d565b6040516101f691906122c0565b60405180910390f35b34801561020b57600080fd5b5061022660048036038101906102219190611aef565b610397565b60405161023391906122c0565b60405180910390f35b34801561024857600080fd5b5061025161046c565b60405161025e919061218f565b60405180910390f35b34801561027357600080fd5b5061027c610490565b60405161028991906121aa565b60405180910390f35b6102ac60048036038101906102a79190611a8c565b6104b6565b6040516102bb93929190612335565b60405180910390f35b60008060006102d8338a8a8a8a8a8a61057f565b92509250925096509650969350505050565b60006102fb33888888888888610953565b90509695505050505050565b600260009054906101000a900473ffffffffffffffffffffffffffffffffffffffff1681565b60006107ca6103856107cd8561034391906124af565b623cda298661035291906124af565b623cda20868861036291906124af565b61036c91906124af565b6103769190612428565b6103809190612509565b610d37565b61038f919061247e565b905092915050565b60006103ca3387600260009054906101000a900473ffffffffffffffffffffffffffffffffffffffff1688883088610953565b9050600260009054906101000a900473ffffffffffffffffffffffffffffffffffffffff1673ffffffffffffffffffffffffffffffffffffffff16632e1a7d4d826040518263ffffffff1660e01b815260040161042791906122c0565b600060405180830381600087803b15801561044157600080fd5b505af1158015610455573d6000803e3d6000fd5b505050506104638382610f03565b95945050505050565b60008054906101000a900473ffffffffffffffffffffffffffffffffffffffff1681565b600160009054906101000a900473ffffffffffffffffffffffffffffffffffffffff1681565b6000806000600260009054906101000a900473ffffffffffffffffffffffffffffffffffffffff1673ffffffffffffffffffffffffffffffffffffffff1663d0e30db0346040518263ffffffff1660e01b81526004016000604051808303818588803b15801561052557600080fd5b505af1158015610539573d6000803e3d6000fd5b505050505061056f30600260009054906101000a900473ffffffffffffffffffffffffffffffffffffffff1689348a8a8a61057f565b9250925092509450945094915050565b60008060008060006105b260008054906101000a900473ffffffffffffffffffffffffffffffffffffffff168c8c611029565b5090506105bf818a61032d565b9150503073ffffffffffffffffffffffffffffffffffffffff168b73ffffffffffffffffffffffffffffffffffffffff1614610602576106018a8c308b61113b565b5b61060c8a89611274565b6000600267ffffffffffffffff81111561064f577f4e487b7100000000000000000000000000000000000000000000000000000000600052604160045260246000fd5b60405190808252806020026020018201604052801561067d5781602001602082028036833780820191505090505b5090508a816000815181106106bb577f4e487b7100000000000000000000000000000000000000000000000000000000600052603260045260246000fd5b602002602001019073ffffffffffffffffffffffffffffffffffffffff16908173ffffffffffffffffffffffffffffffffffffffff16815250508981600181518110610730577f4e487b7100000000000000000000000000000000000000000000000000000000600052603260045260246000fd5b602002602001019073ffffffffffffffffffffffffffffffffffffffff16908173ffffffffffffffffffffffffffffffffffffffff1681525050600160009054906101000a900473ffffffffffffffffffffffffffffffffffffffff1673ffffffffffffffffffffffffffffffffffffffff166338ed1739838a84308b6040518663ffffffff1660e01b81526004016107cd9594939291906122db565b600060405180830381600087803b1580156107e757600080fd5b505af11580156107fb573d6000803e3d6000fd5b505050506040513d6000823e3d601f19601f820116820180604052508101906108249190611b66565b60018151811061085d577f4e487b7100000000000000000000000000000000000000000000000000000000600052603260045260246000fd5b60200260200101519350506108728984611274565b808861087e9190612509565b9350600160009054906101000a900473ffffffffffffffffffffffffffffffffffffffff1673ffffffffffffffffffffffffffffffffffffffff1663e8e337008b8b87876000808d8d6040518963ffffffff1660e01b81526004016108ea9897969594939291906120e8565b606060405180830381600087803b15801561090457600080fd5b505af1158015610918573d6000803e3d6000fd5b505050506040513d601f19601f8201168201806040525081019061093c9190611ce9565b909150905080925050509750975097945050505050565b60008061098160008054906101000a900473ffffffffffffffffffffffffffffffffffffffff1689896113bb565b905061098f818a308961113b565b6109998187611274565b600080600160009054906101000a900473ffffffffffffffffffffffffffffffffffffffff1673ffffffffffffffffffffffffffffffffffffffff1663baa2abde8b8b8b600080308c6040518863ffffffff1660e01b8152600401610a049796959493929190612079565b6040805180830381600087803b158015610a1d57600080fd5b505af1158015610a31573d6000803e3d6000fd5b505050506040513d601f19601f82011682018060405250810190610a559190611cad565b91509150610a638a83611274565b6000600267ffffffffffffffff811115610aa6577f4e487b7100000000000000000000000000000000000000000000000000000000600052604160045260246000fd5b604051908082528060200260200182016040528015610ad45781602001602082028036833780820191505090505b5090508a81600081518110610b12577f4e487b7100000000000000000000000000000000000000000000000000000000600052603260045260246000fd5b602002602001019073ffffffffffffffffffffffffffffffffffffffff16908173ffffffffffffffffffffffffffffffffffffffff16815250508981600181518110610b87577f4e487b7100000000000000000000000000000000000000000000000000000000600052603260045260246000fd5b602002602001019073ffffffffffffffffffffffffffffffffffffffff16908173ffffffffffffffffffffffffffffffffffffffff16815250506000600160009054906101000a900473ffffffffffffffffffffffffffffffffffffffff1673ffffffffffffffffffffffffffffffffffffffff166338ed173985858c11610c10576000610c1d565b858c610c1c9190612509565b5b858c8c6040518663ffffffff1660e01b8152600401610c409594939291906122db565b600060405180830381600087803b158015610c5a57600080fd5b505af1158015610c6e573d6000803e3d6000fd5b505050506040513d6000823e3d601f19601f82011682018060405250810190610c979190611b66565b600181518110610cd0577f4e487b7100000000000000000000000000000000000000000000000000000000600052603260045260246000fd5b602002602001015190503073ffffffffffffffffffffffffffffffffffffffff168873ffffffffffffffffffffffffffffffffffffffff1614610d1957610d188b8985611540565b5b8083610d259190612428565b95505050505050979650505050505050565b600080821415610d4a5760009050610efe565b60008290506000600190507001000000000000000000000000000000008210610d7c57608082901c9150604081901b90505b680100000000000000008210610d9b57604082901c9150602081901b90505b6401000000008210610db657602082901c9150601081901b90505b620100008210610dcf57601082901c9150600881901b90505b6101008210610de757600882901c9150600481901b90505b60108210610dfe57600482901c9150600281901b90505b60088210610e0e57600181901b90505b60018185610e1c919061247e565b82610e279190612428565b901c905060018185610e39919061247e565b82610e449190612428565b901c905060018185610e56919061247e565b82610e619190612428565b901c905060018185610e73919061247e565b82610e7e9190612428565b901c905060018185610e90919061247e565b82610e9b9190612428565b901c905060018185610ead919061247e565b82610eb89190612428565b901c905060018185610eca919061247e565b82610ed59190612428565b901c905060008185610ee7919061247e565b9050808210610ef65780610ef8565b815b93505050505b919050565b60008273ffffffffffffffffffffffffffffffffffffffff1682600067ffffffffffffffff811115610f5e577f4e487b7100000000000000000000000000000000000000000000000000000000600052604160045260246000fd5b6040519080825280601f01601f191660200182016040528015610f905781602001600182028036833780820191505090505b50604051610f9e9190611fba565b60006040518083038185875af1925050503d8060008114610fdb576040519150601f19603f3d011682016040523d82523d6000602084013e610fe0565b606091505b5050905080611024576040517f08c379a000000000000000000000000000000000000000000000000000000000815260040161101b90612220565b60405180910390fd5b505050565b60008060006110388585611676565b5090506000806110498888886113bb565b73ffffffffffffffffffffffffffffffffffffffff16630902f1ac6040518163ffffffff1660e01b815260040160606040518083038186803b15801561108e57600080fd5b505afa1580156110a2573d6000803e3d6000fd5b505050506040513d601f19601f820116820180604052508101906110c69190611bf9565b506dffffffffffffffffffffffffffff1691506dffffffffffffffffffffffffffff1691508273ffffffffffffffffffffffffffffffffffffffff168773ffffffffffffffffffffffffffffffffffffffff1614611125578082611128565b81815b8095508196505050505050935093915050565b6000808573ffffffffffffffffffffffffffffffffffffffff166323b872dd86868660405160240161116f93929190612042565b6040516020818303038152906040529060e01b6020820180517bffffffffffffffffffffffffffffffffffffffffffffffffffffffff83818316178352505050506040516111bd9190611fba565b6000604051808303816000865af19150503d80600081146111fa576040519150601f19603f3d011682016040523d82523d6000602084013e6111ff565b606091505b509150915081801561122d575060008151148061122c57508080602001905181019061122b9190611ba7565b5b5b61126c576040517f08c379a000000000000000000000000000000000000000000000000000000000815260040161126390612200565b60405180910390fd5b505050505050565b60008273ffffffffffffffffffffffffffffffffffffffff1663dd62ed3e30600160009054906101000a900473ffffffffffffffffffffffffffffffffffffffff166040518363ffffffff1660e01b81526004016112d3929190612019565b60206040518083038186803b1580156112eb57600080fd5b505afa1580156112ff573d6000803e3d6000fd5b505050506040513d601f19601f820116820180604052508101906113239190611c48565b9050818110156113b65760008111156113655761136483600160009054906101000a900473ffffffffffffffffffffffffffffffffffffffff1660006117a4565b5b6113b583600160009054906101000a900473ffffffffffffffffffffffffffffffffffffffff167fffffffffffffffffffffffffffffffffffffffffffffffffffffffffffffffff60000b6117a4565b5b505050565b60008060006113ca8585611676565b915091506000808773ffffffffffffffffffffffffffffffffffffffff166040516024016040516020818303038152906040527f5088e7fe000000000000000000000000000000000000000000000000000000007bffffffffffffffffffffffffffffffffffffffffffffffffffffffff19166020820180517bffffffffffffffffffffffffffffffffffffffffffffffffffffffff83818316178352505050506040516114789190611fba565b600060405180830381855afa9150503d80600081146114b3576040519150601f19603f3d011682016040523d82523d6000602084013e6114b8565b606091505b50915091508115611535576000818060200190518101906114d99190611bd0565b90508885856040516020016114ef929190611f8e565b604051602081830303815290604052805190602001208260405160200161151893929190611fd1565b6040516020818303038152906040528051906020012060001c9550505b505050509392505050565b6000808473ffffffffffffffffffffffffffffffffffffffff1663a9059cbb8585604051602401611572929190612166565b6040516020818303038152906040529060e01b6020820180517bffffffffffffffffffffffffffffffffffffffffffffffffffffffff83818316178352505050506040516115c09190611fba565b6000604051808303816000865af19150503d80600081146115fd576040519150601f19603f3d011682016040523d82523d6000602084013e611602565b606091505b5091509150818015611630575060008151148061162f57508080602001905181019061162e9190611ba7565b5b5b61166f576040517f08c379a000000000000000000000000000000000000000000000000000000000815260040161166690612280565b60405180910390fd5b5050505050565b6000808273ffffffffffffffffffffffffffffffffffffffff168473ffffffffffffffffffffffffffffffffffffffff1614156116e8576040517f08c379a00000000000000000000000000000000000000000000000000000000081526004016116df90612240565b60405180910390fd5b8273ffffffffffffffffffffffffffffffffffffffff168473ffffffffffffffffffffffffffffffffffffffff1610611722578284611725565b83835b8092508193505050600073ffffffffffffffffffffffffffffffffffffffff168273ffffffffffffffffffffffffffffffffffffffff16141561179d576040517f08c379a0000000000000000000000000000000000000000000000000000000008152600401611794906122a0565b60405180910390fd5b9250929050565b6000808473ffffffffffffffffffffffffffffffffffffffff1663095ea7b385856040516024016117d6929190612166565b6040516020818303038152906040529060e01b6020820180517bffffffffffffffffffffffffffffffffffffffffffffffffffffffff83818316178352505050506040516118249190611fba565b6000604051808303816000865af19150503d8060008114611861576040519150601f19603f3d011682016040523d82523d6000602084013e611866565b606091505b509150915081801561189457506000815114806118935750808060200190518101906118929190611ba7565b5b5b6118d3576040517f08c379a00000000000000000000000000000000000000000000000000000000081526004016118ca90612260565b60405180910390fd5b5050505050565b60006118ed6118e884612391565b61236c565b9050808382526020820190508285602086028201111561190c57600080fd5b60005b8581101561193c578161192288826119d9565b84526020840193506020830192505060018101905061190f565b5050509392505050565b600081359050611955816129a0565b92915050565b600082601f83011261196c57600080fd5b815161197c8482602086016118da565b91505092915050565b600081519050611994816129b7565b92915050565b6000815190506119a9816129ce565b92915050565b6000815190506119be816129e5565b92915050565b6000813590506119d3816129fc565b92915050565b6000815190506119e8816129fc565b92915050565b6000815190506119fd81612a13565b92915050565b60008060008060008060c08789031215611a1c57600080fd5b6000611a2a89828a01611946565b9650506020611a3b89828a01611946565b9550506040611a4c89828a016119c4565b9450506060611a5d89828a016119c4565b9350506080611a6e89828a01611946565b92505060a0611a7f89828a016119c4565b9150509295509295509295565b60008060008060808587031215611aa257600080fd5b6000611ab087828801611946565b9450506020611ac1878288016119c4565b9350506040611ad287828801611946565b9250506060611ae3878288016119c4565b91505092959194509250565b600080600080600060a08688031215611b0757600080fd5b6000611b1588828901611946565b9550506020611b26888289016119c4565b9450506040611b37888289016119c4565b9350506060611b4888828901611946565b9250506080611b59888289016119c4565b9150509295509295909350565b600060208284031215611b7857600080fd5b600082015167ffffffffffffffff811115611b9257600080fd5b611b9e8482850161195b565b91505092915050565b600060208284031215611bb957600080fd5b6000611bc784828501611985565b91505092915050565b600060208284031215611be257600080fd5b6000611bf08482850161199a565b91505092915050565b600080600060608486031215611c0e57600080fd5b6000611c1c868287016119af565b9350506020611c2d868287016119af565b9250506040611c3e868287016119ee565b9150509250925092565b600060208284031215611c5a57600080fd5b6000611c68848285016119d9565b91505092915050565b60008060408385031215611c8457600080fd5b6000611c92858286016119c4565b9250506020611ca3858286016119c4565b9150509250929050565b60008060408385031215611cc057600080fd5b6000611cce858286016119d9565b9250506020611cdf858286016119d9565b9150509250929050565b600080600060608486031215611cfe57600080fd5b6000611d0c868287016119d9565b9350506020611d1d868287016119d9565b9250506040611d2e868287016119d9565b9150509250925092565b6000611d448383611d50565b60208301905092915050565b611d598161253d565b82525050565b611d688161253d565b82525050565b611d7f611d7a8261253d565b61269b565b82525050565b6000611d90826123cd565b611d9a81856123f0565b9350611da5836123bd565b8060005b83811015611dd6578151611dbd8882611d38565b9750611dc8836123e3565b925050600181019050611da9565b5085935050505092915050565b611df4611def8261255b565b6126ad565b82525050565b6000611e05826123d8565b611e0f8185612401565b9350611e1f818560208601612637565b80840191505092915050565b611e34816125b9565b82525050565b611e43816125dd565b82525050565b611e5281612601565b82525050565b611e6181612625565b82525050565b6000611e7460358361240c565b9150611e7f82612774565b604082019050919050565b6000611e9760318361240c565b9150611ea2826127c3565b604082019050919050565b6000611eba60348361240c565b9150611ec582612812565b604082019050919050565b6000611edd60258361240c565b9150611ee882612861565b604082019050919050565b6000611f0060018361241d565b9150611f0b826128b0565b600182019050919050565b6000611f23602b8361240c565b9150611f2e826128d9565b604082019050919050565b6000611f46602d8361240c565b9150611f5182612928565b604082019050919050565b6000611f69601e8361240c565b9150611f7482612977565b602082019050919050565b611f888161259f565b82525050565b6000611f9a8285611d6e565b601482019150611faa8284611d6e565b6014820191508190509392505050565b6000611fc68284611dfa565b915081905092915050565b6000611fdc82611ef3565b9150611fe88286611d6e565b601482019150611ff88285611de3565b6020820191506120088284611de3565b602082019150819050949350505050565b600060408201905061202e6000830185611d5f565b61203b6020830184611d5f565b9392505050565b60006060820190506120576000830186611d5f565b6120646020830185611d5f565b6120716040830184611f7f565b949350505050565b600060e08201905061208e600083018a611d5f565b61209b6020830189611d5f565b6120a86040830188611f7f565b6120b56060830187611e58565b6120c26080830186611e58565b6120cf60a0830185611d5f565b6120dc60c0830184611f7f565b98975050505050505050565b6000610100820190506120fe600083018b611d5f565b61210b602083018a611d5f565b6121186040830189611f7f565b6121256060830188611f7f565b6121326080830187611e58565b61213f60a0830186611e58565b61214c60c0830185611d5f565b61215960e0830184611f7f565b9998505050505050505050565b600060408201905061217b6000830185611d5f565b6121886020830184611f7f565b9392505050565b60006020820190506121a46000830184611e2b565b92915050565b60006020820190506121bf6000830184611e3a565b92915050565b60006020820190506121da6000830184611e49565b92915050565b600060208201905081810360008301526121f981611e67565b9050919050565b6000602082019050818103600083015261221981611e8a565b9050919050565b6000602082019050818103600083015261223981611ead565b9050919050565b6000602082019050818103600083015261225981611ed0565b9050919050565b6000602082019050818103600083015261227981611f16565b9050919050565b6000602082019050818103600083015261229981611f39565b9050919050565b600060208201905081810360008301526122b981611f5c565b9050919050565b60006020820190506122d56000830184611f7f565b92915050565b600060a0820190506122f06000830188611f7f565b6122fd6020830187611f7f565b818103604083015261230f8186611d85565b905061231e6060830185611d5f565b61232b6080830184611f7f565b9695505050505050565b600060608201905061234a6000830186611f7f565b6123576020830185611f7f565b6123646040830184611f7f565b949350505050565b6000612376612387565b9050612382828261266a565b919050565b6000604051905090565b600067ffffffffffffffff8211156123ac576123ab612727565b5b602082029050602081019050919050565b6000819050602082019050919050565b600081519050919050565b600081519050919050565b6000602082019050919050565b600082825260208201905092915050565b600081905092915050565b600082825260208201905092915050565b600081905092915050565b60006124338261259f565b915061243e8361259f565b9250827fffffffffffffffffffffffffffffffffffffffffffffffffffffffffffffffff03821115612473576124726126c9565b5b828201905092915050565b60006124898261259f565b91506124948361259f565b9250826124a4576124a36126f8565b5b828204905092915050565b60006124ba8261259f565b91506124c58361259f565b9250817fffffffffffffffffffffffffffffffffffffffffffffffffffffffffffffffff04831182151516156124fe576124fd6126c9565b5b828202905092915050565b60006125148261259f565b915061251f8361259f565b925082821015612532576125316126c9565b5b828203905092915050565b60006125488261257f565b9050919050565b60008115159050919050565b6000819050919050565b60006dffffffffffffffffffffffffffff82169050919050565b600073ffffffffffffffffffffffffffffffffffffffff82169050919050565b6000819050919050565b600063ffffffff82169050919050565b60006125c4826125cb565b9050919050565b60006125d68261257f565b9050919050565b60006125e8826125ef565b9050919050565b60006125fa8261257f565b9050919050565b600061260c82612613565b9050919050565b600061261e8261257f565b9050919050565b60006126308261259f565b9050919050565b60005b8381101561265557808201518184015260208101905061263a565b83811115612664576000848401525b50505050565b61267382612756565b810181811067ffffffffffffffff8211171561269257612691612727565b5b80604052505050565b60006126a6826126b7565b9050919050565b6000819050919050565b60006126c282612767565b9050919050565b7f4e487b7100000000000000000000000000000000000000000000000000000000600052601160045260246000fd5b7f4e487b7100000000000000000000000000000000000000000000000000000000600052601260045260246000fd5b7f4e487b7100000000000000000000000000000000000000000000000000000000600052604160045260246000fd5b6000601f19601f8301169050919050565b60008160601b9050919050565b7f436f6d62696e65645377617041646452656d6f76654c69717569646974793a2060008201527f524543454956455f4e4f545f46524f4d5f574554480000000000000000000000602082015250565b7f5472616e7366657248656c7065723a3a7472616e7366657246726f6d3a20747260008201527f616e7366657246726f6d206661696c6564000000000000000000000000000000602082015250565b7f5472616e7366657248656c7065723a3a736166655472616e736665724554483a60008201527f20455448207472616e73666572206661696c6564000000000000000000000000602082015250565b7f556e697377617056324c6962726172793a204944454e544943414c5f4144445260008201527f4553534553000000000000000000000000000000000000000000000000000000602082015250565b7fff00000000000000000000000000000000000000000000000000000000000000600082015250565b7f5472616e7366657248656c7065723a3a73616665417070726f76653a2061707060008201527f726f7665206661696c6564000000000000000000000000000000000000000000602082015250565b7f5472616e7366657248656c7065723a3a736166655472616e736665723a20747260008201527f616e73666572206661696c656400000000000000000000000000000000000000602082015250565b7f556e697377617056324c6962726172793a205a45524f5f414444524553530000600082015250565b6129a98161253d565b81146129b457600080fd5b50565b6129c08161254f565b81146129cb57600080fd5b50565b6129d78161255b565b81146129e257600080fd5b50565b6129ee81612565565b81146129f957600080fd5b50565b612a058161259f565b8114612a1057600080fd5b50565b612a1c816125a9565b8114612a2757600080fd5b5056fea26469706673582212205db76f45d7c13cccb5855524937890c4ae0fbfb9546783d84e5055c0e4c6580064736f6c63430008030033",
  "linkReferences": {},
  "deployedLinkReferences": {}
}