{
  "_format": "hh-sol-artifact-1",
  "contractName": "UniswapV2FactoryMock",
  "sourceName": "contracts/test/uniswapV2/UniswapV2FactoryMock.sol",
  "abi": [
    {
      "inputs": [
        {
          "internalType": "address",
          "name": "_feeToSetter",
          "type": "address"
        }
      ],
      "stateMutability": "nonpayable",
      "type": "constructor"
    },
    {
      "anonymous": false,
      "inputs": [
        {
          "indexed": true,
          "internalType": "address",
          "name": "token0",
          "type": "address"
        },
        {
          "indexed": true,
          "internalType": "address",
          "name": "token1",
          "type": "address"
        },
        {
          "indexed": false,
          "internalType": "address",
          "name": "pair",
          "type": "address"
        },
        {
          "indexed": false,
          "internalType": "uint256",
          "name": "",
          "type": "uint256"
        }
      ],
      "name": "PairCreated",
      "type": "event"
    },
    {
      "inputs": [
        {
          "internalType": "uint256",
          "name": "",
          "type": "uint256"
        }
      ],
      "name": "allPairs",
      "outputs": [
        {
          "internalType": "address",
          "name": "",
          "type": "address"
        }
      ],
      "stateMutability": "view",
      "type": "function"
    },
    {
      "inputs": [],
      "name": "allPairsLength",
      "outputs": [
        {
          "internalType": "uint256",
          "name": "",
          "type": "uint256"
        }
      ],
      "stateMutability": "view",
      "type": "function"
    },
    {
      "inputs": [
        {
          "internalType": "address",
          "name": "tokenA",
          "type": "address"
        },
        {
          "internalType": "address",
          "name": "tokenB",
          "type": "address"
        }
      ],
      "name": "createPair",
      "outputs": [
        {
          "internalType": "address",
          "name": "pair",
          "type": "address"
        }
      ],
      "stateMutability": "nonpayable",
      "type": "function"
    },
    {
      "inputs": [],
      "name": "feeTo",
      "outputs": [
        {
          "internalType": "address",
          "name": "",
          "type": "address"
        }
      ],
      "stateMutability": "view",
      "type": "function"
    },
    {
      "inputs": [],
      "name": "feeToSetter",
      "outputs": [
        {
          "internalType": "address",
          "name": "",
          "type": "address"
        }
      ],
      "stateMutability": "view",
      "type": "function"
    },
    {
      "inputs": [],
      "name": "getKeccakOfPairCreationCode",
      "outputs": [
        {
          "internalType": "bytes32",
          "name": "",
          "type": "bytes32"
        }
      ],
      "stateMutability": "pure",
      "type": "function"
    },
    {
      "inputs": [
        {
          "internalType": "address",
          "name": "",
          "type": "address"
        },
        {
          "internalType": "address",
          "name": "",
          "type": "address"
        }
      ],
      "name": "getPair",
      "outputs": [
        {
          "internalType": "address",
          "name": "",
          "type": "address"
        }
      ],
      "stateMutability": "view",
      "type": "function"
    },
    {
      "inputs": [
        {
          "internalType": "address",
          "name": "_feeTo",
          "type": "address"
        }
      ],
      "name": "setFeeTo",
      "outputs": [],
      "stateMutability": "nonpayable",
      "type": "function"
    },
    {
      "inputs": [
        {
          "internalType": "address",
          "name": "_feeToSetter",
          "type": "address"
        }
      ],
      "name": "setFeeToSetter",
      "outputs": [],
      "stateMutability": "nonpayable",
      "type": "function"
    }
  ],
  "bytecode": "0x608060405234801561001057600080fd5b5060405162004db738038062004db783398181016040528101906100349190610090565b80600160006101000a81548173ffffffffffffffffffffffffffffffffffffffff021916908373ffffffffffffffffffffffffffffffffffffffff16021790555050610102565b60008151905061008a816100eb565b92915050565b6000602082840312156100a257600080fd5b60006100b08482850161007b565b91505092915050565b60006100c4826100cb565b9050919050565b600073ffffffffffffffffffffffffffffffffffffffff82169050919050565b6100f4816100b9565b81146100ff57600080fd5b50565b614ca580620001126000396000f3fe608060405234801561001057600080fd5b50600436106100935760003560e01c8063574f2ba311610066578063574f2ba314610122578063a2e74af614610140578063c9c653961461015c578063e6a439051461018c578063f46901ed146101bc57610093565b8063017e7e5814610098578063094b7415146100b65780631e3dd18b146100d45780635088e7fe14610104575b600080fd5b6100a06101d8565b6040516100ad9190610b97565b60405180910390f35b6100be6101fc565b6040516100cb9190610b97565b60405180910390f35b6100ee60048036038101906100e99190610a72565b610222565b6040516100fb9190610b97565b60405180910390f35b61010c610261565b6040516101199190610c04565b60405180910390f35b61012a610293565b6040516101379190610c9f565b60405180910390f35b61015a60048036038101906101559190610a0d565b6102a0565b005b61017660048036038101906101719190610a36565b610374565b6040516101839190610b97565b60405180910390f35b6101a660048036038101906101a19190610a36565b6108c1565b6040516101b39190610b97565b60405180910390f35b6101d660048036038101906101d19190610a0d565b610903565b005b60008054906101000a900473ffffffffffffffffffffffffffffffffffffffff1681565b600160009054906101000a900473ffffffffffffffffffffffffffffffffffffffff1681565b6003818154811061023257600080fd5b906000526020600020016000915054906101000a900473ffffffffffffffffffffffffffffffffffffffff1681565b600060405180602001610273906109d6565b6020820181038252601f19601f8201166040525080519060200120905090565b6000600380549050905090565b600160009054906101000a900473ffffffffffffffffffffffffffffffffffffffff1673ffffffffffffffffffffffffffffffffffffffff163373ffffffffffffffffffffffffffffffffffffffff1614610330576040517f08c379a000000000000000000000000000000000000000000000000000000000815260040161032790610c3f565b60405180910390fd5b80600160006101000a81548173ffffffffffffffffffffffffffffffffffffffff021916908373ffffffffffffffffffffffffffffffffffffffff16021790555050565b60008173ffffffffffffffffffffffffffffffffffffffff168373ffffffffffffffffffffffffffffffffffffffff1614156103e5576040517f08c379a00000000000000000000000000000000000000000000000000000000081526004016103dc90610c1f565b60405180910390fd5b6000808373ffffffffffffffffffffffffffffffffffffffff168573ffffffffffffffffffffffffffffffffffffffff1610610422578385610425565b84845b91509150600073ffffffffffffffffffffffffffffffffffffffff168273ffffffffffffffffffffffffffffffffffffffff161415610499576040517f08c379a000000000000000000000000000000000000000000000000000000000815260040161049090610c7f565b60405180910390fd5b600073ffffffffffffffffffffffffffffffffffffffff16600260008473ffffffffffffffffffffffffffffffffffffffff1673ffffffffffffffffffffffffffffffffffffffff16815260200190815260200160002060008373ffffffffffffffffffffffffffffffffffffffff1673ffffffffffffffffffffffffffffffffffffffff16815260200190815260200160002060009054906101000a900473ffffffffffffffffffffffffffffffffffffffff1673ffffffffffffffffffffffffffffffffffffffff16146105a4576040517f08c379a000000000000000000000000000000000000000000000000000000000815260040161059b90610c5f565b60405180910390fd5b6000604051806020016105b6906109d6565b6020820181038252601f19601f820116604052509050600083836040516020016105e1929190610b6b565b604051602081830303815290604052805190602001209050808251602084016000f594508473ffffffffffffffffffffffffffffffffffffffff1663485cc95585856040518363ffffffff1660e01b8152600401610640929190610bb2565b600060405180830381600087803b15801561065a57600080fd5b505af115801561066e573d6000803e3d6000fd5b5050505084600260008673ffffffffffffffffffffffffffffffffffffffff1673ffffffffffffffffffffffffffffffffffffffff16815260200190815260200160002060008573ffffffffffffffffffffffffffffffffffffffff1673ffffffffffffffffffffffffffffffffffffffff16815260200190815260200160002060006101000a81548173ffffffffffffffffffffffffffffffffffffffff021916908373ffffffffffffffffffffffffffffffffffffffff16021790555084600260008573ffffffffffffffffffffffffffffffffffffffff1673ffffffffffffffffffffffffffffffffffffffff16815260200190815260200160002060008673ffffffffffffffffffffffffffffffffffffffff1673ffffffffffffffffffffffffffffffffffffffff16815260200190815260200160002060006101000a81548173ffffffffffffffffffffffffffffffffffffffff021916908373ffffffffffffffffffffffffffffffffffffffff1602179055506003859080600181540180825580915050600190039060005260206000200160009091909190916101000a81548173ffffffffffffffffffffffffffffffffffffffff021916908373ffffffffffffffffffffffffffffffffffffffff1602179055508273ffffffffffffffffffffffffffffffffffffffff168473ffffffffffffffffffffffffffffffffffffffff167f0d3648bd0f6ba80134a33ba9275ac585d9d315f0ad8355cddefde31afa28d0e9876003805490506040516108af929190610bdb565b60405180910390a35050505092915050565b60026020528160005260406000206020528060005260406000206000915091509054906101000a900473ffffffffffffffffffffffffffffffffffffffff1681565b600160009054906101000a900473ffffffffffffffffffffffffffffffffffffffff1673ffffffffffffffffffffffffffffffffffffffff163373ffffffffffffffffffffffffffffffffffffffff1614610993576040517f08c379a000000000000000000000000000000000000000000000000000000000815260040161098a90610c3f565b60405180910390fd5b806000806101000a81548173ffffffffffffffffffffffffffffffffffffffff021916908373ffffffffffffffffffffffffffffffffffffffff16021790555050565b613e5b80610e1583390190565b6000813590506109f281610de6565b92915050565b600081359050610a0781610dfd565b92915050565b600060208284031215610a1f57600080fd5b6000610a2d848285016109e3565b91505092915050565b60008060408385031215610a4957600080fd5b6000610a57858286016109e3565b9250506020610a68858286016109e3565b9150509250929050565b600060208284031215610a8457600080fd5b6000610a92848285016109f8565b91505092915050565b610aa481610ccb565b82525050565b610abb610ab682610ccb565b610d11565b82525050565b610aca81610cdd565b82525050565b6000610add601e83610cba565b9150610ae882610d42565b602082019050919050565b6000610b00601483610cba565b9150610b0b82610d6b565b602082019050919050565b6000610b23601683610cba565b9150610b2e82610d94565b602082019050919050565b6000610b46601783610cba565b9150610b5182610dbd565b602082019050919050565b610b6581610d07565b82525050565b6000610b778285610aaa565b601482019150610b878284610aaa565b6014820191508190509392505050565b6000602082019050610bac6000830184610a9b565b92915050565b6000604082019050610bc76000830185610a9b565b610bd46020830184610a9b565b9392505050565b6000604082019050610bf06000830185610a9b565b610bfd6020830184610b5c565b9392505050565b6000602082019050610c196000830184610ac1565b92915050565b60006020820190508181036000830152610c3881610ad0565b9050919050565b60006020820190508181036000830152610c5881610af3565b9050919050565b60006020820190508181036000830152610c7881610b16565b9050919050565b60006020820190508181036000830152610c9881610b39565b9050919050565b6000602082019050610cb46000830184610b5c565b92915050565b600082825260208201905092915050565b6000610cd682610ce7565b9050919050565b6000819050919050565b600073ffffffffffffffffffffffffffffffffffffffff82169050919050565b6000819050919050565b6000610d1c82610d23565b9050919050565b6000610d2e82610d35565b9050919050565b60008160601b9050919050565b7f556e697377617056323a204944454e544943414c5f4144445245535345530000600082015250565b7f556e697377617056323a20464f5242494444454e000000000000000000000000600082015250565b7f556e697377617056323a20504149525f45584953545300000000000000000000600082015250565b7f556e697377617056323a205a45524f5f41444452455353000000000000000000600082015250565b610def81610ccb565b8114610dfa57600080fd5b50565b610e0681610d07565b8114610e1157600080fd5b5056fe60806040526001600c5534801561001557600080fd5b5033600560006101000a81548173ffffffffffffffffffffffffffffffffffffffff021916908373ffffffffffffffffffffffffffffffffffffffff160217905550613df5806100666000396000f3fe608060405234801561001057600080fd5b50600436106101a95760003560e01c80636a627842116100f9578063ba9a7a5611610097578063d21220a711610071578063d21220a7146104db578063d505accf146104f9578063dd62ed3e14610515578063fff6cae914610545576101a9565b8063ba9a7a5614610483578063bc25cf77146104a1578063c45a0155146104bd576101a9565b80637ecebe00116100d35780637ecebe00146103d457806389afcb441461040457806395d89b4114610435578063a9059cbb14610453576101a9565b80636a6278421461035657806370a08231146103865780637464fc3d146103b6576101a9565b806323b872dd116101665780633644e515116101405780633644e515146102e0578063485cc955146102fe5780635909c0d51461031a5780635a3d549314610338576101a9565b806323b872dd1461027457806330adf81f146102a4578063313ce567146102c2576101a9565b8063022c0d9f146101ae57806306fdde03146101ca5780630902f1ac146101e8578063095ea7b3146102085780630dfe16811461023857806318160ddd14610256575b600080fd5b6101c860048036038101906101c39190612e49565b61054f565b005b6101d2610b80565b6040516101df9190613386565b60405180910390f35b6101f0610bb9565b6040516101ff93929190613571565b60405180910390f35b610222600480360381019061021d9190612dbb565b610c16565b60405161022f91906132aa565b60405180910390f35b610240610c2d565b60405161024d9190613218565b60405180910390f35b61025e610c53565b60405161026b91906135a8565b60405180910390f35b61028e60048036038101906102899190612cce565b610c59565b60405161029b91906132aa565b60405180910390f35b6102ac610e20565b6040516102b991906132c5565b60405180910390f35b6102ca610e47565b6040516102d79190613631565b60405180910390f35b6102e8610e4c565b6040516102f591906132c5565b60405180910390f35b61031860048036038101906103139190612c92565b610e52565b005b610322610f68565b60405161032f91906135a8565b60405180910390f35b610340610f6e565b60405161034d91906135a8565b60405180910390f35b610370600480360381019061036b9190612c40565b610f74565b60405161037d91906135a8565b60405180910390f35b6103a0600480360381019061039b9190612c40565b61134b565b6040516103ad91906135a8565b60405180910390f35b6103be611363565b6040516103cb91906135a8565b60405180910390f35b6103ee60048036038101906103e99190612c40565b611369565b6040516103fb91906135a8565b60405180910390f35b61041e60048036038101906104199190612c40565b611381565b60405161042c9291906135c3565b60405180910390f35b61043d611852565b60405161044a9190613386565b60405180910390f35b61046d60048036038101906104689190612dbb565b61188b565b60405161047a91906132aa565b60405180910390f35b61048b6118a2565b60405161049891906135a8565b60405180910390f35b6104bb60048036038101906104b69190612c40565b6118a8565b005b6104c5611ae4565b6040516104d29190613218565b60405180910390f35b6104e3611b0a565b6040516104f09190613218565b60405180910390f35b610513600480360381019061050e9190612d1d565b611b30565b005b61052f600480360381019061052a9190612c92565b611d58565b60405161053c91906135a8565b60405180910390f35b61054d611d7d565b005b6001600c5414610594576040517f08c379a000000000000000000000000000000000000000000000000000000000815260040161058b90613468565b60405180910390fd5b6000600c8190555060008511806105ab5750600084115b6105ea576040517f08c379a00000000000000000000000000000000000000000000000000000000081526004016105e1906133a8565b60405180910390fd5b6000806105f5610bb9565b5091509150816dffffffffffffffffffffffffffff16871080156106285750806dffffffffffffffffffffffffffff1686105b610667576040517f08c379a000000000000000000000000000000000000000000000000000000000815260040161065e90613428565b60405180910390fd5b6000806000600660009054906101000a900473ffffffffffffffffffffffffffffffffffffffff1690506000600760009054906101000a900473ffffffffffffffffffffffffffffffffffffffff1690508173ffffffffffffffffffffffffffffffffffffffff168973ffffffffffffffffffffffffffffffffffffffff161415801561072057508073ffffffffffffffffffffffffffffffffffffffff168973ffffffffffffffffffffffffffffffffffffffff1614155b61075f576040517f08c379a0000000000000000000000000000000000000000000000000000000008152600401610756906133e8565b60405180910390fd5b60008b111561077457610773828a8d611f6c565b5b60008a111561078957610788818a8c611f6c565b5b6000888890501115610809578873ffffffffffffffffffffffffffffffffffffffff166310d1e85c338d8d8c8c6040518663ffffffff1660e01b81526004016107d695949392919061325c565b600060405180830381600087803b1580156107f057600080fd5b505af1158015610804573d6000803e3d6000fd5b505050505b8173ffffffffffffffffffffffffffffffffffffffff166370a08231306040518263ffffffff1660e01b81526004016108429190613218565b60206040518083038186803b15801561085a57600080fd5b505afa15801561086e573d6000803e3d6000fd5b505050506040513d601f19601f820116820180604052508101906108929190612e20565b93508073ffffffffffffffffffffffffffffffffffffffff166370a08231306040518263ffffffff1660e01b81526004016108cd9190613218565b60206040518083038186803b1580156108e557600080fd5b505afa1580156108f9573d6000803e3d6000fd5b505050506040513d601f19601f8201168201806040525081019061091d9190612e20565b92505050600089856dffffffffffffffffffffffffffff1661093f9190613802565b831161094c576000610974565b89856dffffffffffffffffffffffffffff166109689190613802565b836109739190613802565b5b9050600089856dffffffffffffffffffffffffffff166109949190613802565b83116109a15760006109c9565b89856dffffffffffffffffffffffffffff166109bd9190613802565b836109c89190613802565b5b905060008211806109da5750600081115b610a19576040517f08c379a0000000000000000000000000000000000000000000000000000000008152600401610a10906133c8565b60405180910390fd5b6000600383610a2891906137a8565b6103e886610a3691906137a8565b610a409190613802565b90506000600383610a5191906137a8565b6103e886610a5f91906137a8565b610a699190613802565b9050620f4240876dffffffffffffffffffffffffffff16896dffffffffffffffffffffffffffff16610a9b91906137a8565b610aa591906137a8565b8183610ab191906137a8565b1015610af2576040517f08c379a0000000000000000000000000000000000000000000000000000000008152600401610ae990613488565b60405180910390fd5b5050610b00848488886120f6565b8873ffffffffffffffffffffffffffffffffffffffff163373ffffffffffffffffffffffffffffffffffffffff167fd78ad95fa46c994b6551d0da85fc275fe613ce37657fb8d5e3d130840159d82284848f8f604051610b6394939291906135ec565b60405180910390a35050505050506001600c819055505050505050565b6040518060400160405280600a81526020017f556e69737761702056320000000000000000000000000000000000000000000081525081565b6000806000600860009054906101000a90046dffffffffffffffffffffffffffff1692506008600e9054906101000a90046dffffffffffffffffffffffffffff1691506008601c9054906101000a900463ffffffff169050909192565b6000610c23338484612430565b6001905092915050565b600660009054906101000a900473ffffffffffffffffffffffffffffffffffffffff1681565b60005481565b60007fffffffffffffffffffffffffffffffffffffffffffffffffffffffffffffffff60000b600260008673ffffffffffffffffffffffffffffffffffffffff1673ffffffffffffffffffffffffffffffffffffffff16815260200190815260200160002060003373ffffffffffffffffffffffffffffffffffffffff1673ffffffffffffffffffffffffffffffffffffffff1681526020019081526020016000205414610e0a5781600260008673ffffffffffffffffffffffffffffffffffffffff1673ffffffffffffffffffffffffffffffffffffffff16815260200190815260200160002060003373ffffffffffffffffffffffffffffffffffffffff1673ffffffffffffffffffffffffffffffffffffffff16815260200190815260200160002054610d899190613802565b600260008673ffffffffffffffffffffffffffffffffffffffff1673ffffffffffffffffffffffffffffffffffffffff16815260200190815260200160002060003373ffffffffffffffffffffffffffffffffffffffff1673ffffffffffffffffffffffffffffffffffffffff168152602001908152602001600020819055505b610e1584848461251b565b600190509392505050565b7f6e71edae12b1b97f4d1f60370fef10105fa2faae0126114a169c64845d6126c960001b81565b601281565b60035481565b600560009054906101000a900473ffffffffffffffffffffffffffffffffffffffff1673ffffffffffffffffffffffffffffffffffffffff163373ffffffffffffffffffffffffffffffffffffffff1614610ee2576040517f08c379a0000000000000000000000000000000000000000000000000000000008152600401610ed9906134e8565b60405180910390fd5b81600660006101000a81548173ffffffffffffffffffffffffffffffffffffffff021916908373ffffffffffffffffffffffffffffffffffffffff16021790555080600760006101000a81548173ffffffffffffffffffffffffffffffffffffffff021916908373ffffffffffffffffffffffffffffffffffffffff1602179055505050565b60095481565b600a5481565b60006001600c5414610fbb576040517f08c379a0000000000000000000000000000000000000000000000000000000008152600401610fb290613468565b60405180910390fd5b6000600c81905550600080610fce610bb9565b50915091506000600660009054906101000a900473ffffffffffffffffffffffffffffffffffffffff1673ffffffffffffffffffffffffffffffffffffffff166370a08231306040518263ffffffff1660e01b81526004016110309190613218565b60206040518083038186803b15801561104857600080fd5b505afa15801561105c573d6000803e3d6000fd5b505050506040513d601f19601f820116820180604052508101906110809190612e20565b90506000600760009054906101000a900473ffffffffffffffffffffffffffffffffffffffff1673ffffffffffffffffffffffffffffffffffffffff166370a08231306040518263ffffffff1660e01b81526004016110df9190613218565b60206040518083038186803b1580156110f757600080fd5b505afa15801561110b573d6000803e3d6000fd5b505050506040513d601f19601f8201168201806040525081019061112f9190612e20565b90506000846dffffffffffffffffffffffffffff168361114f9190613802565b90506000846dffffffffffffffffffffffffffff168361116f9190613802565b9050600061117d87876126a1565b905060008054905060008114156111c3576103e86111a584866111a091906137a8565b61285e565b6111af9190613802565b98506111be60006103e86128d8565b61121c565b611219886dffffffffffffffffffffffffffff1682866111e391906137a8565b6111ed9190613721565b886dffffffffffffffffffffffffffff16838661120a91906137a8565b6112149190613721565b6129e4565b98505b6000891161125f576040517f08c379a0000000000000000000000000000000000000000000000000000000008152600401611256906134c8565b60405180910390fd5b6112698a8a6128d8565b61127586868a8a6120f6565b81156112e6576008600e9054906101000a90046dffffffffffffffffffffffffffff166dffffffffffffffffffffffffffff16600860009054906101000a90046dffffffffffffffffffffffffffff166dffffffffffffffffffffffffffff166112df91906137a8565b600b819055505b3373ffffffffffffffffffffffffffffffffffffffff167f4c209b5fc8ad50758f13e2e1088ba56a560dff690a1c6fef26394f4c03821c4f858560405161132e9291906135c3565b60405180910390a250505050505050506001600c81905550919050565b60016020528060005260406000206000915090505481565b600b5481565b60046020528060005260406000206000915090505481565b6000806001600c54146113c9576040517f08c379a00000000000000000000000000000000000000000000000000000000081526004016113c090613468565b60405180910390fd5b6000600c819055506000806113dc610bb9565b50915091506000600660009054906101000a900473ffffffffffffffffffffffffffffffffffffffff1690506000600760009054906101000a900473ffffffffffffffffffffffffffffffffffffffff16905060008273ffffffffffffffffffffffffffffffffffffffff166370a08231306040518263ffffffff1660e01b815260040161146a9190613218565b60206040518083038186803b15801561148257600080fd5b505afa158015611496573d6000803e3d6000fd5b505050506040513d601f19601f820116820180604052508101906114ba9190612e20565b905060008273ffffffffffffffffffffffffffffffffffffffff166370a08231306040518263ffffffff1660e01b81526004016114f79190613218565b60206040518083038186803b15801561150f57600080fd5b505afa158015611523573d6000803e3d6000fd5b505050506040513d601f19601f820116820180604052508101906115479190612e20565b90506000600160003073ffffffffffffffffffffffffffffffffffffffff1673ffffffffffffffffffffffffffffffffffffffff168152602001908152602001600020549050600061159988886126a1565b90506000805490508085846115ae91906137a8565b6115b89190613721565b9a508084846115c791906137a8565b6115d19190613721565b995060008b1180156115e3575060008a115b611622576040517f08c379a0000000000000000000000000000000000000000000000000000000008152600401611619906134a8565b60405180910390fd5b61162c30846129fd565b611637878d8d611f6c565b611642868d8c611f6c565b8673ffffffffffffffffffffffffffffffffffffffff166370a08231306040518263ffffffff1660e01b815260040161167b9190613218565b60206040518083038186803b15801561169357600080fd5b505afa1580156116a7573d6000803e3d6000fd5b505050506040513d601f19601f820116820180604052508101906116cb9190612e20565b94508573ffffffffffffffffffffffffffffffffffffffff166370a08231306040518263ffffffff1660e01b81526004016117069190613218565b60206040518083038186803b15801561171e57600080fd5b505afa158015611732573d6000803e3d6000fd5b505050506040513d601f19601f820116820180604052508101906117569190612e20565b935061176485858b8b6120f6565b81156117d5576008600e9054906101000a90046dffffffffffffffffffffffffffff166dffffffffffffffffffffffffffff16600860009054906101000a90046dffffffffffffffffffffffffffff166dffffffffffffffffffffffffffff166117ce91906137a8565b600b819055505b8b73ffffffffffffffffffffffffffffffffffffffff163373ffffffffffffffffffffffffffffffffffffffff167fdccd412f0b1252819cb1fd330b93224ca42612892bb3f4f789976e6d819364968d8d6040516118349291906135c3565b60405180910390a35050505050505050506001600c81905550915091565b6040518060400160405280600681526020017f554e492d5632000000000000000000000000000000000000000000000000000081525081565b600061189833848461251b565b6001905092915050565b6103e881565b6001600c54146118ed576040517f08c379a00000000000000000000000000000000000000000000000000000000081526004016118e490613468565b60405180910390fd5b6000600c819055506000600660009054906101000a900473ffffffffffffffffffffffffffffffffffffffff1690506000600760009054906101000a900473ffffffffffffffffffffffffffffffffffffffff169050611a0d8284600860009054906101000a90046dffffffffffffffffffffffffffff166dffffffffffffffffffffffffffff168573ffffffffffffffffffffffffffffffffffffffff166370a08231306040518263ffffffff1660e01b81526004016119ae9190613218565b60206040518083038186803b1580156119c657600080fd5b505afa1580156119da573d6000803e3d6000fd5b505050506040513d601f19601f820116820180604052508101906119fe9190612e20565b611a089190613802565b611f6c565b611ad781846008600e9054906101000a90046dffffffffffffffffffffffffffff166dffffffffffffffffffffffffffff168473ffffffffffffffffffffffffffffffffffffffff166370a08231306040518263ffffffff1660e01b8152600401611a789190613218565b60206040518083038186803b158015611a9057600080fd5b505afa158015611aa4573d6000803e3d6000fd5b505050506040513d601f19601f82011682018060405250810190611ac89190612e20565b611ad29190613802565b611f6c565b50506001600c8190555050565b600560009054906101000a900473ffffffffffffffffffffffffffffffffffffffff1681565b600760009054906101000a900473ffffffffffffffffffffffffffffffffffffffff1681565b42841015611b73576040517f08c379a0000000000000000000000000000000000000000000000000000000008152600401611b6a90613448565b60405180910390fd5b60006003547f6e71edae12b1b97f4d1f60370fef10105fa2faae0126114a169c64845d6126c960001b898989600460008e73ffffffffffffffffffffffffffffffffffffffff1673ffffffffffffffffffffffffffffffffffffffff1681526020019081526020016000206000815480929190611bef9061395d565b919050558a604051602001611c09969594939291906132e0565b60405160208183030381529060405280519060200120604051602001611c309291906131e1565b604051602081830303815290604052805190602001209050600060018286868660405160008152602001604052604051611c6d9493929190613341565b6020604051602081039080840390855afa158015611c8f573d6000803e3d6000fd5b505050602060405103519050600073ffffffffffffffffffffffffffffffffffffffff168173ffffffffffffffffffffffffffffffffffffffff1614158015611d0357508873ffffffffffffffffffffffffffffffffffffffff168173ffffffffffffffffffffffffffffffffffffffff16145b611d42576040517f08c379a0000000000000000000000000000000000000000000000000000000008152600401611d3990613408565b60405180910390fd5b611d4d898989612430565b505050505050505050565b6002602052816000526040600020602052806000526040600020600091509150505481565b6001600c5414611dc2576040517f08c379a0000000000000000000000000000000000000000000000000000000008152600401611db990613468565b60405180910390fd5b6000600c81905550611f62600660009054906101000a900473ffffffffffffffffffffffffffffffffffffffff1673ffffffffffffffffffffffffffffffffffffffff166370a08231306040518263ffffffff1660e01b8152600401611e289190613218565b60206040518083038186803b158015611e4057600080fd5b505afa158015611e54573d6000803e3d6000fd5b505050506040513d601f19601f82011682018060405250810190611e789190612e20565b600760009054906101000a900473ffffffffffffffffffffffffffffffffffffffff1673ffffffffffffffffffffffffffffffffffffffff166370a08231306040518263ffffffff1660e01b8152600401611ed39190613218565b60206040518083038186803b158015611eeb57600080fd5b505afa158015611eff573d6000803e3d6000fd5b505050506040513d601f19601f82011682018060405250810190611f239190612e20565b600860009054906101000a90046dffffffffffffffffffffffffffff166008600e9054906101000a90046dffffffffffffffffffffffffffff166120f6565b6001600c81905550565b6000808473ffffffffffffffffffffffffffffffffffffffff166040518060400160405280601981526020017f7472616e7366657228616464726573732c75696e743235362900000000000000815250805190602001208585604051602401611fd6929190613233565b604051602081830303815290604052907bffffffffffffffffffffffffffffffffffffffffffffffffffffffff19166020820180517bffffffffffffffffffffffffffffffffffffffffffffffffffffffff838183161783525050505060405161204091906131ca565b6000604051808303816000865af19150503d806000811461207d576040519150601f19603f3d011682016040523d82523d6000602084013e612082565b606091505b50915091508180156120b057506000815114806120af5750808060200190518101906120ae9190612df7565b5b5b6120ef576040517f08c379a00000000000000000000000000000000000000000000000000000000081526004016120e690613528565b60405180910390fd5b5050505050565b7fffffffffffffffffffffffffffffffffffffffffffffffffffffffffffffffff60000b6dffffffffffffffffffffffffffff16841115801561216c57507fffffffffffffffffffffffffffffffffffffffffffffffffffffffffffffffff60000b6dffffffffffffffffffffffffffff168311155b6121ab576040517f08c379a00000000000000000000000000000000000000000000000000000000081526004016121a290613508565b60405180910390fd5b6000640100000000426121be91906139b0565b905060006008601c9054906101000a900463ffffffff16826121e09190613836565b905060008163ffffffff1611801561220957506000846dffffffffffffffffffffffffffff1614155b801561222657506000836dffffffffffffffffffffffffffff1614155b1561232c578063ffffffff1661226b8561223f86612b09565b7bffffffffffffffffffffffffffffffffffffffffffffffffffffffff16612b3d90919063ffffffff16565b7bffffffffffffffffffffffffffffffffffffffffffffffffffffffff1661229391906137a8565b600960008282546122a4919061369a565b925050819055508063ffffffff166122eb846122bf87612b09565b7bffffffffffffffffffffffffffffffffffffffffffffffffffffffff16612b3d90919063ffffffff16565b7bffffffffffffffffffffffffffffffffffffffffffffffffffffffff1661231391906137a8565b600a6000828254612324919061369a565b925050819055505b85600860006101000a8154816dffffffffffffffffffffffffffff02191690836dffffffffffffffffffffffffffff160217905550846008600e6101000a8154816dffffffffffffffffffffffffffff02191690836dffffffffffffffffffffffffffff160217905550816008601c6101000a81548163ffffffff021916908363ffffffff1602179055507f1c411e9a96e071241c2f21f7726b17ae89e3cab4c78be50e062b03a9fffbbad1600860009054906101000a90046dffffffffffffffffffffffffffff166008600e9054906101000a90046dffffffffffffffffffffffffffff16604051612420929190613548565b60405180910390a1505050505050565b80600260008573ffffffffffffffffffffffffffffffffffffffff1673ffffffffffffffffffffffffffffffffffffffff16815260200190815260200160002060008473ffffffffffffffffffffffffffffffffffffffff1673ffffffffffffffffffffffffffffffffffffffff168152602001908152602001600020819055508173ffffffffffffffffffffffffffffffffffffffff168373ffffffffffffffffffffffffffffffffffffffff167f8c5be1e5ebec7d5bd14f71427d1e84f3dd0314c0f7b2291e5b200ac8c7c3b9258360405161250e91906135a8565b60405180910390a3505050565b80600160008573ffffffffffffffffffffffffffffffffffffffff1673ffffffffffffffffffffffffffffffffffffffff168152602001908152602001600020546125669190613802565b600160008573ffffffffffffffffffffffffffffffffffffffff1673ffffffffffffffffffffffffffffffffffffffff1681526020019081526020016000208190555080600160008473ffffffffffffffffffffffffffffffffffffffff1673ffffffffffffffffffffffffffffffffffffffff168152602001908152602001600020546125f4919061369a565b600160008473ffffffffffffffffffffffffffffffffffffffff1673ffffffffffffffffffffffffffffffffffffffff168152602001908152602001600020819055508173ffffffffffffffffffffffffffffffffffffffff168373ffffffffffffffffffffffffffffffffffffffff167fddf252ad1be2c89b69c2b068fc378daa952ba7f163c4a11628f55a4df523b3ef8360405161269491906135a8565b60405180910390a3505050565b600080600560009054906101000a900473ffffffffffffffffffffffffffffffffffffffff1673ffffffffffffffffffffffffffffffffffffffff1663017e7e586040518163ffffffff1660e01b815260040160206040518083038186803b15801561270c57600080fd5b505afa158015612720573d6000803e3d6000fd5b505050506040513d601f19601f820116820180604052508101906127449190612c69565b9050600073ffffffffffffffffffffffffffffffffffffffff168173ffffffffffffffffffffffffffffffffffffffff16141591506000600b5490508215612844576000811461283f5760006127c4856dffffffffffffffffffffffffffff16876dffffffffffffffffffffffffffff166127bf91906137a8565b61285e565b905060006127d18361285e565b90508082111561283c57600081836127e99190613802565b6000546127f691906137a8565b905060008260058561280891906137a8565b612812919061369a565b9050600081836128229190613721565b905060008111156128385761283787826128d8565b5b5050505b50505b612856565b60008114612855576000600b819055505b5b505092915050565b600060038211156128c5578190506000600160028461287d9190613721565b612887919061369a565b90505b818110156128bf5780915060028182856128a49190613721565b6128ae919061369a565b6128b89190613721565b905061288a565b506128d3565b600082146128d257600190505b5b919050565b806000546128e6919061369a565b60008190555080600160008473ffffffffffffffffffffffffffffffffffffffff1673ffffffffffffffffffffffffffffffffffffffff16815260200190815260200160002054612937919061369a565b600160008473ffffffffffffffffffffffffffffffffffffffff1673ffffffffffffffffffffffffffffffffffffffff168152602001908152602001600020819055508173ffffffffffffffffffffffffffffffffffffffff16600073ffffffffffffffffffffffffffffffffffffffff167fddf252ad1be2c89b69c2b068fc378daa952ba7f163c4a11628f55a4df523b3ef836040516129d891906135a8565b60405180910390a35050565b60008183106129f357816129f5565b825b905092915050565b80600160008473ffffffffffffffffffffffffffffffffffffffff1673ffffffffffffffffffffffffffffffffffffffff16815260200190815260200160002054612a489190613802565b600160008473ffffffffffffffffffffffffffffffffffffffff1673ffffffffffffffffffffffffffffffffffffffff1681526020019081526020016000208190555080600054612a999190613802565b600081905550600073ffffffffffffffffffffffffffffffffffffffff168273ffffffffffffffffffffffffffffffffffffffff167fddf252ad1be2c89b69c2b068fc378daa952ba7f163c4a11628f55a4df523b3ef83604051612afd91906135a8565b60405180910390a35050565b60006e010000000000000000000000000000826dffffffffffffffffffffffffffff16612b369190613752565b9050919050565b6000816dffffffffffffffffffffffffffff1683612b5b91906136f0565b905092915050565b600081359050612b7281613d4c565b92915050565b600081519050612b8781613d4c565b92915050565b600081519050612b9c81613d63565b92915050565b600081359050612bb181613d7a565b92915050565b60008083601f840112612bc957600080fd5b8235905067ffffffffffffffff811115612be257600080fd5b602083019150836001820283011115612bfa57600080fd5b9250929050565b600081359050612c1081613d91565b92915050565b600081519050612c2581613d91565b92915050565b600081359050612c3a81613da8565b92915050565b600060208284031215612c5257600080fd5b6000612c6084828501612b63565b91505092915050565b600060208284031215612c7b57600080fd5b6000612c8984828501612b78565b91505092915050565b60008060408385031215612ca557600080fd5b6000612cb385828601612b63565b9250506020612cc485828601612b63565b9150509250929050565b600080600060608486031215612ce357600080fd5b6000612cf186828701612b63565b9350506020612d0286828701612b63565b9250506040612d1386828701612c01565b9150509250925092565b600080600080600080600060e0888a031215612d3857600080fd5b6000612d468a828b01612b63565b9750506020612d578a828b01612b63565b9650506040612d688a828b01612c01565b9550506060612d798a828b01612c01565b9450506080612d8a8a828b01612c2b565b93505060a0612d9b8a828b01612ba2565b92505060c0612dac8a828b01612ba2565b91505092959891949750929550565b60008060408385031215612dce57600080fd5b6000612ddc85828601612b63565b9250506020612ded85828601612c01565b9150509250929050565b600060208284031215612e0957600080fd5b6000612e1784828501612b8d565b91505092915050565b600060208284031215612e3257600080fd5b6000612e4084828501612c16565b91505092915050565b600080600080600060808688031215612e6157600080fd5b6000612e6f88828901612c01565b9550506020612e8088828901612c01565b9450506040612e9188828901612b63565b935050606086013567ffffffffffffffff811115612eae57600080fd5b612eba88828901612bb7565b92509250509295509295909350565b612ed28161386a565b82525050565b612ee18161387c565b82525050565b612ef081613888565b82525050565b612f07612f0282613888565b6139a6565b82525050565b6000612f198385613662565b9350612f2683858461391b565b612f2f83613a3f565b840190509392505050565b6000612f458261364c565b612f4f8185613673565b9350612f5f81856020860161392a565b80840191505092915050565b6000612f7682613657565b612f80818561367e565b9350612f9081856020860161392a565b612f9981613a3f565b840191505092915050565b6000612fb160258361367e565b9150612fbc82613a50565b604082019050919050565b6000612fd460248361367e565b9150612fdf82613a9f565b604082019050919050565b6000612ff760158361367e565b915061300282613aee565b602082019050919050565b600061301a601c8361367e565b915061302582613b17565b602082019050919050565b600061303d60028361368f565b915061304882613b40565b600282019050919050565b600061306060218361367e565b915061306b82613b69565b604082019050919050565b600061308360128361367e565b915061308e82613bb8565b602082019050919050565b60006130a660118361367e565b91506130b182613be1565b602082019050919050565b60006130c9600c8361367e565b91506130d482613c0a565b602082019050919050565b60006130ec60288361367e565b91506130f782613c33565b604082019050919050565b600061310f60288361367e565b915061311a82613c82565b604082019050919050565b600061313260148361367e565b915061313d82613cd1565b602082019050919050565b600061315560138361367e565b915061316082613cfa565b602082019050919050565b6000613178601a8361367e565b915061318382613d23565b602082019050919050565b61319781613892565b82525050565b6131a6816138f4565b82525050565b6131b5816138fe565b82525050565b6131c48161390e565b82525050565b60006131d68284612f3a565b915081905092915050565b60006131ec82613030565b91506131f88285612ef6565b6020820191506132088284612ef6565b6020820191508190509392505050565b600060208201905061322d6000830184612ec9565b92915050565b60006040820190506132486000830185612ec9565b613255602083018461319d565b9392505050565b60006080820190506132716000830188612ec9565b61327e602083018761319d565b61328b604083018661319d565b818103606083015261329e818486612f0d565b90509695505050505050565b60006020820190506132bf6000830184612ed8565b92915050565b60006020820190506132da6000830184612ee7565b92915050565b600060c0820190506132f56000830189612ee7565b6133026020830188612ec9565b61330f6040830187612ec9565b61331c606083018661319d565b613329608083018561319d565b61333660a083018461319d565b979650505050505050565b60006080820190506133566000830187612ee7565b61336360208301866131bb565b6133706040830185612ee7565b61337d6060830184612ee7565b95945050505050565b600060208201905081810360008301526133a08184612f6b565b905092915050565b600060208201905081810360008301526133c181612fa4565b9050919050565b600060208201905081810360008301526133e181612fc7565b9050919050565b6000602082019050818103600083015261340181612fea565b9050919050565b600060208201905081810360008301526134218161300d565b9050919050565b6000602082019050818103600083015261344181613053565b9050919050565b6000602082019050818103600083015261346181613076565b9050919050565b6000602082019050818103600083015261348181613099565b9050919050565b600060208201905081810360008301526134a1816130bc565b9050919050565b600060208201905081810360008301526134c1816130df565b9050919050565b600060208201905081810360008301526134e181613102565b9050919050565b6000602082019050818103600083015261350181613125565b9050919050565b6000602082019050818103600083015261352181613148565b9050919050565b600060208201905081810360008301526135418161316b565b9050919050565b600060408201905061355d600083018561318e565b61356a602083018461318e565b9392505050565b6000606082019050613586600083018661318e565b613593602083018561318e565b6135a060408301846131ac565b949350505050565b60006020820190506135bd600083018461319d565b92915050565b60006040820190506135d8600083018561319d565b6135e5602083018461319d565b9392505050565b6000608082019050613601600083018761319d565b61360e602083018661319d565b61361b604083018561319d565b613628606083018461319d565b95945050505050565b600060208201905061364660008301846131bb565b92915050565b600081519050919050565b600081519050919050565b600082825260208201905092915050565b600081905092915050565b600082825260208201905092915050565b600081905092915050565b60006136a5826138f4565b91506136b0836138f4565b9250827fffffffffffffffffffffffffffffffffffffffffffffffffffffffffffffffff038211156136e5576136e46139e1565b5b828201905092915050565b60006136fb826138cc565b9150613706836138cc565b92508261371657613715613a10565b5b828204905092915050565b600061372c826138f4565b9150613737836138f4565b92508261374757613746613a10565b5b828204905092915050565b600061375d826138cc565b9150613768836138cc565b9250817bffffffffffffffffffffffffffffffffffffffffffffffffffffffff048311821515161561379d5761379c6139e1565b5b828202905092915050565b60006137b3826138f4565b91506137be836138f4565b9250817fffffffffffffffffffffffffffffffffffffffffffffffffffffffffffffffff04831182151516156137f7576137f66139e1565b5b828202905092915050565b600061380d826138f4565b9150613818836138f4565b92508282101561382b5761382a6139e1565b5b828203905092915050565b6000613841826138fe565b915061384c836138fe565b92508282101561385f5761385e6139e1565b5b828203905092915050565b6000613875826138ac565b9050919050565b60008115159050919050565b6000819050919050565b60006dffffffffffffffffffffffffffff82169050919050565b600073ffffffffffffffffffffffffffffffffffffffff82169050919050565b60007bffffffffffffffffffffffffffffffffffffffffffffffffffffffff82169050919050565b6000819050919050565b600063ffffffff82169050919050565b600060ff82169050919050565b82818337600083830152505050565b60005b8381101561394857808201518184015260208101905061392d565b83811115613957576000848401525b50505050565b6000613968826138f4565b91507fffffffffffffffffffffffffffffffffffffffffffffffffffffffffffffffff82141561399b5761399a6139e1565b5b600182019050919050565b6000819050919050565b60006139bb826138f4565b91506139c6836138f4565b9250826139d6576139d5613a10565b5b828206905092915050565b7f4e487b7100000000000000000000000000000000000000000000000000000000600052601160045260246000fd5b7f4e487b7100000000000000000000000000000000000000000000000000000000600052601260045260246000fd5b6000601f19601f8301169050919050565b7f556e697377617056323a20494e53554646494349454e545f4f55545055545f4160008201527f4d4f554e54000000000000000000000000000000000000000000000000000000602082015250565b7f556e697377617056323a20494e53554646494349454e545f494e5055545f414d60008201527f4f554e5400000000000000000000000000000000000000000000000000000000602082015250565b7f556e697377617056323a20494e56414c49445f544f0000000000000000000000600082015250565b7f556e697377617056323a20494e56414c49445f5349474e415455524500000000600082015250565b7f1901000000000000000000000000000000000000000000000000000000000000600082015250565b7f556e697377617056323a20494e53554646494349454e545f4c4951554944495460008201527f5900000000000000000000000000000000000000000000000000000000000000602082015250565b7f556e697377617056323a20455850495245440000000000000000000000000000600082015250565b7f556e697377617056323a204c4f434b4544000000000000000000000000000000600082015250565b7f556e697377617056323a204b0000000000000000000000000000000000000000600082015250565b7f556e697377617056323a20494e53554646494349454e545f4c4951554944495460008201527f595f4255524e4544000000000000000000000000000000000000000000000000602082015250565b7f556e697377617056323a20494e53554646494349454e545f4c4951554944495460008201527f595f4d494e544544000000000000000000000000000000000000000000000000602082015250565b7f556e697377617056323a20464f5242494444454e000000000000000000000000600082015250565b7f556e697377617056323a204f564552464c4f5700000000000000000000000000600082015250565b7f556e697377617056323a205452414e534645525f4641494c4544000000000000600082015250565b613d558161386a565b8114613d6057600080fd5b50565b613d6c8161387c565b8114613d7757600080fd5b50565b613d8381613888565b8114613d8e57600080fd5b50565b613d9a816138f4565b8114613da557600080fd5b50565b613db18161390e565b8114613dbc57600080fd5b5056fea2646970667358221220f296409fef3ad3d5da386d5409c827ba616168d75ac75cecf1612d93030cfba764736f6c63430008030033a2646970667358221220cf12e9e8c8dcf885dcbed554ade5a97ab160d02acee8cfa4fd646c6e6b78876164736f6c63430008030033",
  "linkReferences": {},
  "deployedLinkReferences": {}
}